{
  "address": "0x736381622622DaE7674Ca6dAF2988CD5FC810A82",
  "abi": [
    {
      "inputs": [],
      "stateMutability": "nonpayable",
      "type": "constructor"
    },
    {
      "anonymous": false,
      "inputs": [
        {
          "indexed": true,
          "internalType": "address",
          "name": "recipient",
          "type": "address"
        },
        {
          "indexed": true,
          "internalType": "uint256",
          "name": "amount",
          "type": "uint256"
        }
      ],
      "name": "AirDropReleased",
      "type": "event"
    },
    {
      "anonymous": false,
      "inputs": [
        {
          "indexed": false,
          "internalType": "address",
          "name": "from",
          "type": "address"
        },
        {
          "indexed": false,
          "internalType": "uint256",
          "name": "amount",
          "type": "uint256"
        }
      ],
      "name": "PaymentReceived",
      "type": "event"
    },
    {
      "anonymous": false,
      "inputs": [
        {
          "indexed": true,
          "internalType": "bytes32",
          "name": "role",
          "type": "bytes32"
        },
        {
          "indexed": true,
          "internalType": "bytes32",
          "name": "previousAdminRole",
          "type": "bytes32"
        },
        {
          "indexed": true,
          "internalType": "bytes32",
          "name": "newAdminRole",
          "type": "bytes32"
        }
      ],
      "name": "RoleAdminChanged",
      "type": "event"
    },
    {
      "anonymous": false,
      "inputs": [
        {
          "indexed": true,
          "internalType": "bytes32",
          "name": "role",
          "type": "bytes32"
        },
        {
          "indexed": true,
          "internalType": "address",
          "name": "account",
          "type": "address"
        },
        {
          "indexed": true,
          "internalType": "address",
          "name": "sender",
          "type": "address"
        }
      ],
      "name": "RoleGranted",
      "type": "event"
    },
    {
      "anonymous": false,
      "inputs": [
        {
          "indexed": true,
          "internalType": "bytes32",
          "name": "role",
          "type": "bytes32"
        },
        {
          "indexed": true,
          "internalType": "address",
          "name": "account",
          "type": "address"
        },
        {
          "indexed": true,
          "internalType": "address",
          "name": "sender",
          "type": "address"
        }
      ],
      "name": "RoleRevoked",
      "type": "event"
    },
    {
      "inputs": [],
      "name": "ADMIN",
      "outputs": [
        {
          "internalType": "bytes32",
          "name": "",
          "type": "bytes32"
        }
      ],
      "stateMutability": "view",
      "type": "function"
    },
    {
      "inputs": [],
      "name": "DEFAULT_ADMIN_ROLE",
      "outputs": [
        {
          "internalType": "bytes32",
          "name": "",
          "type": "bytes32"
        }
      ],
      "stateMutability": "view",
      "type": "function"
    },
    {
      "inputs": [],
      "name": "MANAGER",
      "outputs": [
        {
          "internalType": "bytes32",
          "name": "",
          "type": "bytes32"
        }
      ],
      "stateMutability": "view",
      "type": "function"
    },
    {
      "inputs": [
        {
          "internalType": "uint256",
          "name": "",
          "type": "uint256"
        }
      ],
      "name": "airDropRecipients",
      "outputs": [
        {
          "internalType": "address",
          "name": "",
          "type": "address"
        }
      ],
      "stateMutability": "view",
      "type": "function"
    },
    {
      "inputs": [
        {
          "internalType": "bytes32",
          "name": "role",
          "type": "bytes32"
        }
      ],
      "name": "getRoleAdmin",
      "outputs": [
        {
          "internalType": "bytes32",
          "name": "",
          "type": "bytes32"
        }
      ],
      "stateMutability": "view",
      "type": "function"
    },
    {
      "inputs": [
        {
          "internalType": "bytes32",
          "name": "role",
          "type": "bytes32"
        },
        {
          "internalType": "address",
          "name": "account",
          "type": "address"
        }
      ],
      "name": "grantRole",
      "outputs": [],
      "stateMutability": "nonpayable",
      "type": "function"
    },
    {
      "inputs": [
        {
          "internalType": "bytes32",
          "name": "role",
          "type": "bytes32"
        },
        {
          "internalType": "address",
          "name": "account",
          "type": "address"
        }
      ],
      "name": "hasRole",
      "outputs": [
        {
          "internalType": "bool",
          "name": "",
          "type": "bool"
        }
      ],
      "stateMutability": "view",
      "type": "function"
    },
    {
      "inputs": [
        {
          "internalType": "address payable[]",
          "name": "recipients",
          "type": "address[]"
        },
        {
          "internalType": "uint256[]",
          "name": "shares",
          "type": "uint256[]"
        }
      ],
      "name": "payoutRecipients",
      "outputs": [],
      "stateMutability": "nonpayable",
      "type": "function"
    },
    {
      "inputs": [
        {
          "internalType": "bytes32",
          "name": "role",
          "type": "bytes32"
        },
        {
          "internalType": "address",
          "name": "account",
          "type": "address"
        }
      ],
      "name": "renounceRole",
      "outputs": [],
      "stateMutability": "nonpayable",
      "type": "function"
    },
    {
      "inputs": [
        {
          "internalType": "bytes32",
          "name": "role",
          "type": "bytes32"
        },
        {
          "internalType": "address",
          "name": "account",
          "type": "address"
        }
      ],
      "name": "revokeRole",
      "outputs": [],
      "stateMutability": "nonpayable",
      "type": "function"
    },
    {
      "inputs": [
        {
          "internalType": "bytes4",
          "name": "interfaceId",
          "type": "bytes4"
        }
      ],
      "name": "supportsInterface",
      "outputs": [
        {
          "internalType": "bool",
          "name": "",
          "type": "bool"
        }
      ],
      "stateMutability": "view",
      "type": "function"
    },
    {
      "stateMutability": "payable",
      "type": "receive"
    }
  ],
  "transactionHash": "0xb48324890cb6bea08cf13ca74aadc68c86c11c09438d4173714d86b5e89eef38",
  "args": [],
  "solcInputHash": "7a7fb7dd4877558f80652a86cb4fcff7",
  "bytecode": "0x60806040523480156200001157600080fd5b50604080516020810190915260008152620000309060019081620001c8565b506200005b600080516020620012c7833981519152600080516020620012e783398151915262000097565b62000076600080516020620012c783398151915233620000ec565b62000091600080516020620012e783398151915233620000ec565b62000249565b6000620000a483620000fc565b600084815260208190526040808220600101859055519192508391839186917fbd79b86ffe0ab8e8776151514217cd7cacd52c909f66475c3af44e129f0b00ff9190a4505050565b620000f8828262000111565b5050565b60009081526020819052604090206001015490565b6200011d82826200019b565b620000f8576000828152602081815260408083206001600160a01b03851684529091529020805460ff1916600117905562000157620001c4565b6001600160a01b0316816001600160a01b0316837f2f8788117e7eff1d82e926ec794901d17c78024a50270940304540a733656f0d60405160405180910390a45050565b6000918252602082815260408084206001600160a01b0393909316845291905290205460ff1690565b3390565b82805482825590600052602060002090810192821562000220579160200282015b828111156200022057825182546001600160a01b0319166001600160a01b03909116178255602090920191600190910190620001e9565b506200022e92915062000232565b5090565b5b808211156200022e576000815560010162000233565b61106e80620002596000396000f3fe6080604052600436106100a05760003560e01c80632f2ff15d116100645780632f2ff15d1461019457806336568abe146101b45780634392c3c7146101d457806391d1485414610201578063a217fddf14610221578063d547741f14610236576100e0565b806301d13bfb146100e557806301ffc9a7146101075780631b2df8501461013d578063248a9ca31461015f5780632a0acc6a1461017f576100e0565b366100e0577f6ef95f06320e7a25a04a175ca677b7052bdd97131872c2192525a629f51be77033346040516100d6929190610c97565b60405180910390a1005b600080fd5b3480156100f157600080fd5b50610105610100366004610adc565b610256565b005b34801561011357600080fd5b50610127610122366004610be3565b6104af565b6040516101349190610cb0565b60405180910390f35b34801561014957600080fd5b506101526104da565b6040516101349190610cbb565b34801561016b57600080fd5b5061015261017a366004610b9c565b6104fe565b34801561018b57600080fd5b50610152610513565b3480156101a057600080fd5b506101056101af366004610bb4565b610537565b3480156101c057600080fd5b506101056101cf366004610bb4565b61055b565b3480156101e057600080fd5b506101f46101ef366004610b9c565b6105a1565b6040516101349190610c83565b34801561020d57600080fd5b5061012761021c366004610bb4565b6105cb565b34801561022d57600080fd5b506101526105f4565b34801561024257600080fd5b50610105610251366004610bb4565b6105f9565b7faf290d8680820aad922855f39b306097b20e28774d6c1ad35a20325630c3a02c61028881610283610618565b61061c565b60008351116102b25760405162461bcd60e51b81526004016102a990610e67565b60405180910390fd5b81518351146102d35760405162461bcd60e51b81526004016102a990610dee565b600047116102f35760405162461bcd60e51b81526004016102a990610d2c565b82516103069060019060208601906109f6565b506000805b835181101561035b5783818151811061033457634e487b7160e01b600052603260045260246000fd5b6020026020010151826103479190610f3b565b91508061035381610fd9565b91505061030b565b504760005b85518110156104a75760006001600160a01b031686828151811061039457634e487b7160e01b600052603260045260246000fd5b60200260200101516001600160a01b031614156103c35760405162461bcd60e51b81526004016102a990610e23565b6000838683815181106103e657634e487b7160e01b600052603260045260246000fd5b6020026020010151846103f99190610f73565b6104039190610f53565b90508087838151811061042657634e487b7160e01b600052603260045260246000fd5b60200260200101516001600160a01b03167f32761f3a40f75f778c5539c390e66fc45ac79ea80e18250ff4dd60ac9769c8be60405160405180910390a361049487838151811061048657634e487b7160e01b600052603260045260246000fd5b602002602001015182610680565b508061049f81610fd9565b915050610360565b505050505050565b60006001600160e01b03198216637965db0b60e01b14806104d457506104d48261071c565b92915050565b7faf290d8680820aad922855f39b306097b20e28774d6c1ad35a20325630c3a02c81565b60009081526020819052604090206001015490565b7fdf8b4c520ffe197c5343c6f5aec59570151ef9a492f2c624fd45ddde6135ec4281565b610540826104fe565b61054c81610283610618565b6105568383610735565b505050565b610563610618565b6001600160a01b0316816001600160a01b0316146105935760405162461bcd60e51b81526004016102a990610e9e565b61059d82826107ba565b5050565b600181815481106105b157600080fd5b6000918252602090912001546001600160a01b0316905081565b6000918252602082815260408084206001600160a01b0393909316845291905290205460ff1690565b600081565b610602826104fe565b61060e81610283610618565b61055683836107ba565b3390565b61062682826105cb565b61059d5761063e816001600160a01b0316601461083d565b61064983602061083d565b60405160200161065a929190610c0e565b60408051601f198184030181529082905262461bcd60e51b82526102a991600401610cc4565b804710156106a05760405162461bcd60e51b81526004016102a990610db7565b6000826001600160a01b0316826040516106b990610c0b565b60006040518083038185875af1925050503d80600081146106f6576040519150601f19603f3d011682016040523d82523d6000602084013e6106fb565b606091505b50509050806105565760405162461bcd60e51b81526004016102a990610d5a565b6001600160e01b031981166301ffc9a760e01b14919050565b61073f82826105cb565b61059d576000828152602081815260408083206001600160a01b03851684529091529020805460ff19166001179055610776610618565b6001600160a01b0316816001600160a01b0316837f2f8788117e7eff1d82e926ec794901d17c78024a50270940304540a733656f0d60405160405180910390a45050565b6107c482826105cb565b1561059d576000828152602081815260408083206001600160a01b03851684529091529020805460ff191690556107f9610618565b6001600160a01b0316816001600160a01b0316837ff6391f5c32d9c69d2a47ea670b442974b53935d1edc7fd64eb21e047a839171b60405160405180910390a45050565b6060600061084c836002610f73565b610857906002610f3b565b67ffffffffffffffff81111561087d57634e487b7160e01b600052604160045260246000fd5b6040519080825280601f01601f1916602001820160405280156108a7576020820181803683370190505b509050600360fc1b816000815181106108d057634e487b7160e01b600052603260045260246000fd5b60200101906001600160f81b031916908160001a905350600f60fb1b8160018151811061090d57634e487b7160e01b600052603260045260246000fd5b60200101906001600160f81b031916908160001a9053506000610931846002610f73565b61093c906001610f3b565b90505b60018111156109d0576f181899199a1a9b1b9c1cb0b131b232b360811b85600f166010811061097e57634e487b7160e01b600052603260045260246000fd5b1a60f81b8282815181106109a257634e487b7160e01b600052603260045260246000fd5b60200101906001600160f81b031916908160001a90535060049490941c936109c981610fc2565b905061093f565b5083156109ef5760405162461bcd60e51b81526004016102a990610cf7565b9392505050565b828054828255906000526020600020908101928215610a4b579160200282015b82811115610a4b57825182546001600160a01b0319166001600160a01b03909116178255602090920191600190910190610a16565b50610a57929150610a5b565b5090565b5b80821115610a575760008155600101610a5c565b600082601f830112610a80578081fd5b81356020610a95610a9083610f17565b610eed565b8281528181019085830183850287018401881015610ab1578586fd5b855b85811015610acf57813584529284019290840190600101610ab3565b5090979650505050505050565b60008060408385031215610aee578182fd5b823567ffffffffffffffff80821115610b05578384fd5b818501915085601f830112610b18578384fd5b81356020610b28610a9083610f17565b82815281810190858301838502870184018b1015610b44578889fd5b8896505b84871015610b6f578035610b5b81611020565b835260019690960195918301918301610b48565b5096505086013592505080821115610b85578283fd5b50610b9285828601610a70565b9150509250929050565b600060208284031215610bad578081fd5b5035919050565b60008060408385031215610bc6578182fd5b823591506020830135610bd881611020565b809150509250929050565b600060208284031215610bf4578081fd5b81356001600160e01b0319811681146109ef578182fd5b90565b60007f416363657373436f6e74726f6c3a206163636f756e742000000000000000000082528351610c46816017850160208801610f92565b7001034b99036b4b9b9b4b733903937b6329607d1b6017918401918201528351610c77816028840160208801610f92565b01602801949350505050565b6001600160a01b0391909116815260200190565b6001600160a01b03929092168252602082015260400190565b901515815260200190565b90815260200190565b6000602082528251806020840152610ce3816040850160208701610f92565b601f01601f19169190910160400192915050565b6020808252818101527f537472696e67733a20686578206c656e67746820696e73756666696369656e74604082015260600190565b602080825260149082015273041697264726f702062616c616e636520697320360641b604082015260600190565b6020808252603a908201527f416464726573733a20756e61626c6520746f2073656e642076616c75652c207260408201527f6563697069656e74206d61792068617665207265766572746564000000000000606082015260800190565b6020808252601d908201527f416464726573733a20696e73756666696369656e742062616c616e6365000000604082015260600190565b6020808252818101527f416c6c20726563697069656e7473206d75737420686176652061207368617265604082015260600190565b60208082526024908201527f43616e6e6f742073657420726563697069656e7420746f207a65726f206164646040820152637265737360e01b606082015260800190565b6020808252601c908201527f496e76616c6964206e756d626572206f6620726563697069656e747300000000604082015260600190565b6020808252602f908201527f416363657373436f6e74726f6c3a2063616e206f6e6c792072656e6f756e636560408201526e103937b632b9903337b91039b2b63360891b606082015260800190565b60405181810167ffffffffffffffff81118282101715610f0f57610f0f61100a565b604052919050565b600067ffffffffffffffff821115610f3157610f3161100a565b5060209081020190565b60008219821115610f4e57610f4e610ff4565b500190565b600082610f6e57634e487b7160e01b81526012600452602481fd5b500490565b6000816000190483118215151615610f8d57610f8d610ff4565b500290565b60005b83811015610fad578181015183820152602001610f95565b83811115610fbc576000848401525b50505050565b600081610fd157610fd1610ff4565b506000190190565b6000600019821415610fed57610fed610ff4565b5060010190565b634e487b7160e01b600052601160045260246000fd5b634e487b7160e01b600052604160045260246000fd5b6001600160a01b038116811461103557600080fd5b5056fea26469706673582212206d4a82e9cbd399a6df9207b90b828c631c65d171c68afd3b3964d260cbccf85364736f6c63430008000033af290d8680820aad922855f39b306097b20e28774d6c1ad35a20325630c3a02cdf8b4c520ffe197c5343c6f5aec59570151ef9a492f2c624fd45ddde6135ec42",
  "devdoc": {
    "kind": "dev",
    "methods": {
      "getRoleAdmin(bytes32)": {
        "details": "Returns the admin role that controls `role`. See {grantRole} and {revokeRole}. To change a role's admin, use {_setRoleAdmin}."
      },
      "grantRole(bytes32,address)": {
        "details": "Grants `role` to `account`. If `account` had not been already granted `role`, emits a {RoleGranted} event. Requirements: - the caller must have ``role``'s admin role."
      },
      "hasRole(bytes32,address)": {
        "details": "Returns `true` if `account` has been granted `role`."
      },
      "renounceRole(bytes32,address)": {
        "details": "Revokes `role` from the calling account. Roles are often managed via {grantRole} and {revokeRole}: this function's purpose is to provide a mechanism for accounts to lose their privileges if they are compromised (such as when a trusted device is misplaced). If the calling account had been granted `role`, emits a {RoleRevoked} event. Requirements: - the caller must be `account`."
      },
      "revokeRole(bytes32,address)": {
        "details": "Revokes `role` from `account`. If `account` had been granted `role`, emits a {RoleRevoked} event. Requirements: - the caller must have ``role``'s admin role."
      },
      "supportsInterface(bytes4)": {
        "details": "See {IERC165-supportsInterface}."
      }
    },
    "version": 1
  },
  "userdoc": {
    "kind": "user",
    "methods": {},
    "version": 1
  },
  "storageLayout": {
    "storage": [
      {
        "astId": 24,
        "contract": "contracts/airdrop.sol:AirDrop",
        "label": "_roles",
        "offset": 0,
        "slot": "0",
        "type": "t_mapping(t_bytes32,t_struct(RoleData)19_storage)"
      },
      {
        "astId": 3282,
        "contract": "contracts/airdrop.sol:AirDrop",
        "label": "airDropRecipients",
        "offset": 0,
        "slot": "1",
        "type": "t_array(t_address)dyn_storage"
      }
    ],
    "types": {
      "t_address": {
        "encoding": "inplace",
        "label": "address",
        "numberOfBytes": "20"
      },
      "t_array(t_address)dyn_storage": {
        "base": "t_address",
        "encoding": "dynamic_array",
        "label": "address[]",
        "numberOfBytes": "32"
      },
      "t_bool": {
        "encoding": "inplace",
        "label": "bool",
        "numberOfBytes": "1"
      },
      "t_bytes32": {
        "encoding": "inplace",
        "label": "bytes32",
        "numberOfBytes": "32"
      },
      "t_mapping(t_address,t_bool)": {
        "encoding": "mapping",
        "key": "t_address",
        "label": "mapping(address => bool)",
        "numberOfBytes": "32",
        "value": "t_bool"
      },
      "t_mapping(t_bytes32,t_struct(RoleData)19_storage)": {
        "encoding": "mapping",
        "key": "t_bytes32",
        "label": "mapping(bytes32 => struct AccessControl.RoleData)",
        "numberOfBytes": "32",
        "value": "t_struct(RoleData)19_storage"
      },
      "t_struct(RoleData)19_storage": {
        "encoding": "inplace",
        "label": "struct AccessControl.RoleData",
        "members": [
          {
            "astId": 16,
            "contract": "contracts/airdrop.sol:AirDrop",
            "label": "members",
            "offset": 0,
            "slot": "0",
            "type": "t_mapping(t_address,t_bool)"
          },
          {
            "astId": 18,
            "contract": "contracts/airdrop.sol:AirDrop",
            "label": "adminRole",
            "offset": 0,
            "slot": "1",
            "type": "t_bytes32"
          }
        ],
        "numberOfBytes": "64"
      }
    }
  }
}