{
  "address": "0x665ca8d5CE2ad0Ff7f04cB4289cd6399e048E6C6",
  "abi": [
    {
      "inputs": [
        {
          "internalType": "address[]",
          "name": "payees",
          "type": "address[]"
        },
        {
          "internalType": "uint256[]",
          "name": "shares_",
          "type": "uint256[]"
        }
      ],
      "stateMutability": "payable",
      "type": "constructor"
    },
    {
      "anonymous": false,
      "inputs": [
        {
          "indexed": false,
          "internalType": "address",
          "name": "account",
          "type": "address"
        },
        {
          "indexed": false,
          "internalType": "uint256",
          "name": "shares",
          "type": "uint256"
        }
      ],
      "name": "PayeeAdded",
      "type": "event"
    },
    {
      "anonymous": false,
      "inputs": [
        {
          "indexed": false,
          "internalType": "address",
          "name": "from",
          "type": "address"
        },
        {
          "indexed": false,
          "internalType": "uint256",
          "name": "amount",
          "type": "uint256"
        }
      ],
      "name": "PaymentReceived",
      "type": "event"
    },
    {
      "anonymous": false,
      "inputs": [
        {
          "indexed": false,
          "internalType": "address",
          "name": "to",
          "type": "address"
        },
        {
          "indexed": false,
          "internalType": "uint256",
          "name": "amount",
          "type": "uint256"
        }
      ],
      "name": "PaymentReleased",
      "type": "event"
    },
    {
      "anonymous": false,
      "inputs": [
        {
          "indexed": true,
          "internalType": "bytes32",
          "name": "role",
          "type": "bytes32"
        },
        {
          "indexed": true,
          "internalType": "bytes32",
          "name": "previousAdminRole",
          "type": "bytes32"
        },
        {
          "indexed": true,
          "internalType": "bytes32",
          "name": "newAdminRole",
          "type": "bytes32"
        }
      ],
      "name": "RoleAdminChanged",
      "type": "event"
    },
    {
      "anonymous": false,
      "inputs": [
        {
          "indexed": true,
          "internalType": "bytes32",
          "name": "role",
          "type": "bytes32"
        },
        {
          "indexed": true,
          "internalType": "address",
          "name": "account",
          "type": "address"
        },
        {
          "indexed": true,
          "internalType": "address",
          "name": "sender",
          "type": "address"
        }
      ],
      "name": "RoleGranted",
      "type": "event"
    },
    {
      "anonymous": false,
      "inputs": [
        {
          "indexed": true,
          "internalType": "bytes32",
          "name": "role",
          "type": "bytes32"
        },
        {
          "indexed": true,
          "internalType": "address",
          "name": "account",
          "type": "address"
        },
        {
          "indexed": true,
          "internalType": "address",
          "name": "sender",
          "type": "address"
        }
      ],
      "name": "RoleRevoked",
      "type": "event"
    },
    {
      "inputs": [],
      "name": "ADMIN",
      "outputs": [
        {
          "internalType": "bytes32",
          "name": "",
          "type": "bytes32"
        }
      ],
      "stateMutability": "view",
      "type": "function"
    },
    {
      "inputs": [],
      "name": "DEFAULT_ADMIN_ROLE",
      "outputs": [
        {
          "internalType": "bytes32",
          "name": "",
          "type": "bytes32"
        }
      ],
      "stateMutability": "view",
      "type": "function"
    },
    {
      "inputs": [],
      "name": "RELEASER",
      "outputs": [
        {
          "internalType": "bytes32",
          "name": "",
          "type": "bytes32"
        }
      ],
      "stateMutability": "view",
      "type": "function"
    },
    {
      "inputs": [
        {
          "internalType": "bytes32",
          "name": "role",
          "type": "bytes32"
        }
      ],
      "name": "getRoleAdmin",
      "outputs": [
        {
          "internalType": "bytes32",
          "name": "",
          "type": "bytes32"
        }
      ],
      "stateMutability": "view",
      "type": "function"
    },
    {
      "inputs": [
        {
          "internalType": "bytes32",
          "name": "role",
          "type": "bytes32"
        },
        {
          "internalType": "address",
          "name": "account",
          "type": "address"
        }
      ],
      "name": "grantRole",
      "outputs": [],
      "stateMutability": "nonpayable",
      "type": "function"
    },
    {
      "inputs": [
        {
          "internalType": "bytes32",
          "name": "role",
          "type": "bytes32"
        },
        {
          "internalType": "address",
          "name": "account",
          "type": "address"
        }
      ],
      "name": "hasRole",
      "outputs": [
        {
          "internalType": "bool",
          "name": "",
          "type": "bool"
        }
      ],
      "stateMutability": "view",
      "type": "function"
    },
    {
      "inputs": [
        {
          "internalType": "uint256",
          "name": "index",
          "type": "uint256"
        }
      ],
      "name": "payee",
      "outputs": [
        {
          "internalType": "address",
          "name": "",
          "type": "address"
        }
      ],
      "stateMutability": "view",
      "type": "function"
    },
    {
      "inputs": [
        {
          "internalType": "address",
          "name": "account",
          "type": "address"
        }
      ],
      "name": "paymentDue",
      "outputs": [
        {
          "internalType": "uint256",
          "name": "",
          "type": "uint256"
        }
      ],
      "stateMutability": "view",
      "type": "function"
    },
    {
      "inputs": [
        {
          "internalType": "address payable",
          "name": "account",
          "type": "address"
        }
      ],
      "name": "release",
      "outputs": [],
      "stateMutability": "nonpayable",
      "type": "function"
    },
    {
      "inputs": [],
      "name": "releaseAll",
      "outputs": [],
      "stateMutability": "nonpayable",
      "type": "function"
    },
    {
      "inputs": [
        {
          "internalType": "address",
          "name": "account",
          "type": "address"
        }
      ],
      "name": "released",
      "outputs": [
        {
          "internalType": "uint256",
          "name": "",
          "type": "uint256"
        }
      ],
      "stateMutability": "view",
      "type": "function"
    },
    {
      "inputs": [
        {
          "internalType": "bytes32",
          "name": "role",
          "type": "bytes32"
        },
        {
          "internalType": "address",
          "name": "account",
          "type": "address"
        }
      ],
      "name": "renounceRole",
      "outputs": [],
      "stateMutability": "nonpayable",
      "type": "function"
    },
    {
      "inputs": [
        {
          "internalType": "bytes32",
          "name": "role",
          "type": "bytes32"
        },
        {
          "internalType": "address",
          "name": "account",
          "type": "address"
        }
      ],
      "name": "revokeRole",
      "outputs": [],
      "stateMutability": "nonpayable",
      "type": "function"
    },
    {
      "inputs": [
        {
          "internalType": "address",
          "name": "account",
          "type": "address"
        }
      ],
      "name": "shares",
      "outputs": [
        {
          "internalType": "uint256",
          "name": "",
          "type": "uint256"
        }
      ],
      "stateMutability": "view",
      "type": "function"
    },
    {
      "inputs": [
        {
          "internalType": "bytes4",
          "name": "interfaceId",
          "type": "bytes4"
        }
      ],
      "name": "supportsInterface",
      "outputs": [
        {
          "internalType": "bool",
          "name": "",
          "type": "bool"
        }
      ],
      "stateMutability": "view",
      "type": "function"
    },
    {
      "inputs": [],
      "name": "totalReleased",
      "outputs": [
        {
          "internalType": "uint256",
          "name": "",
          "type": "uint256"
        }
      ],
      "stateMutability": "view",
      "type": "function"
    },
    {
      "inputs": [],
      "name": "totalShares",
      "outputs": [
        {
          "internalType": "uint256",
          "name": "",
          "type": "uint256"
        }
      ],
      "stateMutability": "view",
      "type": "function"
    },
    {
      "stateMutability": "payable",
      "type": "receive"
    }
  ],
  "transactionHash": "0xee0623ebd10ffe3a259a765d8f074da46a57ab0c83630a84b1542713db895d08",
  "args": [
    [
      "0x8a5c5FA3AF30F25e666bdcbFeb40cbC893a6a40e",
      "0x36623A7Fa148c67E872d0e71F90640E70b3a8d4C",
      "0x5D410a410e9A5bC13B2E40A849492D839447C871",
      "0x1CA611bBbCD2a5Dcb05e0b7090C5ef0d1Cf4b031",
      "0x3fd2aB7A175523d300A5784B1a50Fe0fBef76166",
      "0x45edc98A1E4AE14534703FBe270919C3056Dac64",
      "0xA50A977C76FB49Fbc3Ba68a4e73CF40053A688FE"
    ],
    [
      2000,
      3000,
      500,
      1300,
      1300,
      500,
      1400
    ]
  ],
  "solcInputHash": "c06b389ac86e34a104d6ae8daa2c28c7",
  "bytecode": "0x6080604052604051620017f3380380620017f383398101604081905262000026916200048a565b8051825114620000535760405162461bcd60e51b81526004016200004a90620005c9565b60405180910390fd5b6000825111620000775760405162461bcd60e51b81526004016200004a9062000666565b60005b82518110156200015557620000e6838281518110620000a957634e487b7160e01b600052603260045260246000fd5b6020026020010151838381518110620000d257634e487b7160e01b600052603260045260246000fd5b6020026020010151620001b460201b60201c565b620001407f5b033f009b24f6e014b10f805533ea1d9f34fcc0b024810c542615fcfa4f9f378483815181106200012c57634e487b7160e01b600052603260045260246000fd5b6020026020010151620002e560201b60201c565b806200014c8162000741565b9150506200007a565b50620001917f5b033f009b24f6e014b10f805533ea1d9f34fcc0b024810c542615fcfa4f9f37600080516020620017d3833981519152620002f5565b620001ac600080516020620017d383398151915233620002e5565b50506200078b565b6001600160a01b038216620001dd5760405162461bcd60e51b81526004016200004a906200057d565b60008111620002005760405162461bcd60e51b81526004016200004a906200069d565b6001600160a01b03821660009081526003602052604090205415620002395760405162461bcd60e51b81526004016200004a906200061b565b6005805460018082019092557f036b6384b5eca791c62761152d0c79bb0604c104a5fb6f4eb0703f3154bb3db00180546001600160a01b0319166001600160a01b038516908117909155600090815260036020526040902082905554620002a290829062000726565b6001556040517f40c340f65e17194d14ddddb073d3c9f888e3cb52b5aae0c6c7706b4fbc905fac90620002d9908490849062000564565b60405180910390a15050565b620002f182826200034a565b5050565b60006200030283620003d4565b600084815260208190526040808220600101859055519192508391839186917fbd79b86ffe0ab8e8776151514217cd7cacd52c909f66475c3af44e129f0b00ff9190a4505050565b620003568282620003e9565b620002f1576000828152602081815260408083206001600160a01b03851684529091529020805460ff191660011790556200039062000412565b6001600160a01b0316816001600160a01b0316837f2f8788117e7eff1d82e926ec794901d17c78024a50270940304540a733656f0d60405160405180910390a45050565b60009081526020819052604090206001015490565b6000918252602082815260408084206001600160a01b0393909316845291905290205460ff1690565b3390565b600082601f83011262000427578081fd5b81516020620004406200043a8362000700565b620006d4565b82815281810190858301838502870184018810156200045d578586fd5b855b858110156200047d578151845292840192908401906001016200045f565b5090979650505050505050565b600080604083850312156200049d578182fd5b82516001600160401b0380821115620004b4578384fd5b818501915085601f830112620004c8578384fd5b81516020620004db6200043a8362000700565b82815281810190858301838502870184018b1015620004f8578889fd5b8896505b84871015620005315780516001600160a01b03811681146200051c57898afd5b835260019690960195918301918301620004fc565b50918801519196509093505050808211156200054b578283fd5b506200055a8582860162000416565b9150509250929050565b6001600160a01b03929092168252602082015260400190565b6020808252602c908201527f5061796d656e7453706c69747465723a206163636f756e74206973207468652060408201526b7a65726f206164647265737360a01b606082015260800190565b60208082526032908201527f5061796d656e7453706c69747465723a2070617965657320616e6420736861726040820152710cae640d8cadccee8d040dad2e6dac2e8c6d60731b606082015260800190565b6020808252602b908201527f5061796d656e7453706c69747465723a206163636f756e7420616c726561647960408201526a206861732073686172657360a81b606082015260800190565b6020808252601a908201527f5061796d656e7453706c69747465723a206e6f20706179656573000000000000604082015260600190565b6020808252601d908201527f5061796d656e7453706c69747465723a20736861726573206172652030000000604082015260600190565b6040518181016001600160401b0381118282101715620006f857620006f862000775565b604052919050565b60006001600160401b038211156200071c576200071c62000775565b5060209081020190565b600082198211156200073c576200073c6200075f565b500190565b60006000198214156200075857620007586200075f565b5060010190565b634e487b7160e01b600052601160045260246000fd5b634e487b7160e01b600052604160045260246000fd5b611038806200079b6000396000f3fe6080604052600436106101025760003560e01c80635be7fde811610095578063a217fddf11610064578063a217fddf146102d8578063ce7c2ac2146102ed578063d4c7f0111461030d578063d547741f14610322578063e33b7de31461034257610142565b80635be7fde8146102565780638b83209b1461026b57806391d14854146102985780639852595c146102b857610142565b80632f2ff15d116100d15780632f2ff15d146101e157806336568abe14610201578063366f2d86146102215780633a98ef391461024157610142565b806301ffc9a714610147578063191655871461017d578063248a9ca31461019f5780632a0acc6a146101cc57610142565b36610142577f6ef95f06320e7a25a04a175ca677b7052bdd97131872c2192525a629f51be7703334604051610138929190610cf8565b60405180910390a1005b600080fd5b34801561015357600080fd5b50610167610162366004610c44565b610357565b6040516101749190610d11565b60405180910390f35b34801561018957600080fd5b5061019d610198366004610be1565b610382565b005b3480156101ab57600080fd5b506101bf6101ba366004610bfd565b610504565b6040516101749190610d1c565b3480156101d857600080fd5b506101bf610519565b3480156101ed57600080fd5b5061019d6101fc366004610c15565b61053d565b34801561020d57600080fd5b5061019d61021c366004610c15565b610561565b34801561022d57600080fd5b506101bf61023c366004610be1565b6105a7565b34801561024d57600080fd5b506101bf61063d565b34801561026257600080fd5b5061019d610643565b34801561027757600080fd5b5061028b610286366004610bfd565b61071f565b6040516101749190610ce4565b3480156102a457600080fd5b506101676102b3366004610c15565b61075d565b3480156102c457600080fd5b506101bf6102d3366004610be1565b610786565b3480156102e457600080fd5b506101bf6107a1565b3480156102f957600080fd5b506101bf610308366004610be1565b6107a6565b34801561031957600080fd5b506101bf6107c1565b34801561032e57600080fd5b5061019d61033d366004610c15565b6107e5565b34801561034e57600080fd5b506101bf610804565b60006001600160e01b03198216637965db0b60e01b148061037c575061037c8261080a565b92915050565b7f5b033f009b24f6e014b10f805533ea1d9f34fcc0b024810c542615fcfa4f9f376103b4816103af610823565b610827565b6001600160a01b0382166000908152600360205260409020546103f25760405162461bcd60e51b81526004016103e990610d8d565b60405180910390fd5b6000600254476104029190610f01565b6001600160a01b03841660009081526004602090815260408083205460015460039093529083205493945091926104399085610f39565b6104439190610f19565b61044d9190610f58565b90508061046c5760405162461bcd60e51b81526004016103e990610e67565b6001600160a01b038416600090815260046020526040902054610490908290610f01565b6001600160a01b0385166000908152600460205260409020556002546104b7908290610f01565b6002556040517fdf20fd1e76bc69d672e4814fafb2c449bba3a5369d8359adf9e05e6fde87b056906104ec9086908490610cf8565b60405180910390a16104fe848261088b565b50505050565b60009081526020819052604090206001015490565b7fdf8b4c520ffe197c5343c6f5aec59570151ef9a492f2c624fd45ddde6135ec4281565b61054682610504565b610552816103af610823565b61055c8383610927565b505050565b610569610823565b6001600160a01b0316816001600160a01b0316146105995760405162461bcd60e51b81526004016103e990610eb2565b6105a382826109ac565b5050565b6001600160a01b0381166000908152600360205260408120546105dc5760405162461bcd60e51b81526004016103e990610d8d565b6000600254476105ec9190610f01565b6001600160a01b038416600090815260046020908152604080832054600154600390935292205492935090916106229084610f39565b61062c9190610f19565b6106369190610f58565b9392505050565b60015490565b7fdf8b4c520ffe197c5343c6f5aec59570151ef9a492f2c624fd45ddde6135ec42610670816103af610823565b60005b60055461ffff821610156105a35760006106c560058361ffff16815481106106ab57634e487b7160e01b600052603260045260246000fd5b6000918252602090912001546001600160a01b03166105a7565b111561070d5761070d60058261ffff16815481106106f357634e487b7160e01b600052603260045260246000fd5b6000918252602090912001546001600160a01b0316610382565b8061071781610fb2565b915050610673565b60006005828154811061074257634e487b7160e01b600052603260045260246000fd5b6000918252602090912001546001600160a01b031692915050565b6000918252602082815260408084206001600160a01b0393909316845291905290205460ff1690565b6001600160a01b031660009081526004602052604090205490565b600081565b6001600160a01b031660009081526003602052604090205490565b7f5b033f009b24f6e014b10f805533ea1d9f34fcc0b024810c542615fcfa4f9f3781565b6107ee82610504565b6107fa816103af610823565b61055c83836109ac565b60025490565b6001600160e01b031981166301ffc9a760e01b14919050565b3390565b610831828261075d565b6105a357610849816001600160a01b03166014610a2f565b610854836020610a2f565b604051602001610865929190610c6f565b60408051601f198184030181529082905262461bcd60e51b82526103e991600401610d25565b804710156108ab5760405162461bcd60e51b81526004016103e990610e30565b6000826001600160a01b0316826040516108c490610c6c565b60006040518083038185875af1925050503d8060008114610901576040519150601f19603f3d011682016040523d82523d6000602084013e610906565b606091505b505090508061055c5760405162461bcd60e51b81526004016103e990610dd3565b610931828261075d565b6105a3576000828152602081815260408083206001600160a01b03851684529091529020805460ff19166001179055610968610823565b6001600160a01b0316816001600160a01b0316837f2f8788117e7eff1d82e926ec794901d17c78024a50270940304540a733656f0d60405160405180910390a45050565b6109b6828261075d565b156105a3576000828152602081815260408083206001600160a01b03851684529091529020805460ff191690556109eb610823565b6001600160a01b0316816001600160a01b0316837ff6391f5c32d9c69d2a47ea670b442974b53935d1edc7fd64eb21e047a839171b60405160405180910390a45050565b60606000610a3e836002610f39565b610a49906002610f01565b67ffffffffffffffff811115610a6f57634e487b7160e01b600052604160045260246000fd5b6040519080825280601f01601f191660200182016040528015610a99576020820181803683370190505b509050600360fc1b81600081518110610ac257634e487b7160e01b600052603260045260246000fd5b60200101906001600160f81b031916908160001a905350600f60fb1b81600181518110610aff57634e487b7160e01b600052603260045260246000fd5b60200101906001600160f81b031916908160001a9053506000610b23846002610f39565b610b2e906001610f01565b90505b6001811115610bc2576f181899199a1a9b1b9c1cb0b131b232b360811b85600f1660108110610b7057634e487b7160e01b600052603260045260246000fd5b1a60f81b828281518110610b9457634e487b7160e01b600052603260045260246000fd5b60200101906001600160f81b031916908160001a90535060049490941c93610bbb81610f9b565b9050610b31565b5083156106365760405162461bcd60e51b81526004016103e990610d58565b600060208284031215610bf2578081fd5b813561063681610fea565b600060208284031215610c0e578081fd5b5035919050565b60008060408385031215610c27578081fd5b823591506020830135610c3981610fea565b809150509250929050565b600060208284031215610c55578081fd5b81356001600160e01b031981168114610636578182fd5b90565b60007f416363657373436f6e74726f6c3a206163636f756e742000000000000000000082528351610ca7816017850160208801610f6f565b7001034b99036b4b9b9b4b733903937b6329607d1b6017918401918201528351610cd8816028840160208801610f6f565b01602801949350505050565b6001600160a01b0391909116815260200190565b6001600160a01b03929092168252602082015260400190565b901515815260200190565b90815260200190565b6000602082528251806020840152610d44816040850160208701610f6f565b601f01601f19169190910160400192915050565b6020808252818101527f537472696e67733a20686578206c656e67746820696e73756666696369656e74604082015260600190565b60208082526026908201527f5061796d656e7453706c69747465723a206163636f756e7420686173206e6f2060408201526573686172657360d01b606082015260800190565b6020808252603a908201527f416464726573733a20756e61626c6520746f2073656e642076616c75652c207260408201527f6563697069656e74206d61792068617665207265766572746564000000000000606082015260800190565b6020808252601d908201527f416464726573733a20696e73756666696369656e742062616c616e6365000000604082015260600190565b6020808252602b908201527f5061796d656e7453706c69747465723a206163636f756e74206973206e6f742060408201526a191d59481c185e5b595b9d60aa1b606082015260800190565b6020808252602f908201527f416363657373436f6e74726f6c3a2063616e206f6e6c792072656e6f756e636560408201526e103937b632b9903337b91039b2b63360891b606082015260800190565b60008219821115610f1457610f14610fd4565b500190565b600082610f3457634e487b7160e01b81526012600452602481fd5b500490565b6000816000190483118215151615610f5357610f53610fd4565b500290565b600082821015610f6a57610f6a610fd4565b500390565b60005b83811015610f8a578181015183820152602001610f72565b838111156104fe5750506000910152565b600081610faa57610faa610fd4565b506000190190565b600061ffff80831681811415610fca57610fca610fd4565b6001019392505050565b634e487b7160e01b600052601160045260246000fd5b6001600160a01b0381168114610fff57600080fd5b5056fea264697066735822122045b36d91412c3d484e43ce82ed380c4c98e4f00e995c34bbf4639f12a69d3aa564736f6c63430008000033df8b4c520ffe197c5343c6f5aec59570151ef9a492f2c624fd45ddde6135ec42",
  "devdoc": {
    "kind": "dev",
    "methods": {
      "getRoleAdmin(bytes32)": {
        "details": "Returns the admin role that controls `role`. See {grantRole} and {revokeRole}. To change a role's admin, use {_setRoleAdmin}."
      },
      "grantRole(bytes32,address)": {
        "details": "Grants `role` to `account`. If `account` had not been already granted `role`, emits a {RoleGranted} event. Requirements: - the caller must have ``role``'s admin role."
      },
      "hasRole(bytes32,address)": {
        "details": "Returns `true` if `account` has been granted `role`."
      },
      "renounceRole(bytes32,address)": {
        "details": "Revokes `role` from the calling account. Roles are often managed via {grantRole} and {revokeRole}: this function's purpose is to provide a mechanism for accounts to lose their privileges if they are compromised (such as when a trusted device is misplaced). If the calling account had been granted `role`, emits a {RoleRevoked} event. Requirements: - the caller must be `account`."
      },
      "revokeRole(bytes32,address)": {
        "details": "Revokes `role` from `account`. If `account` had been granted `role`, emits a {RoleRevoked} event. Requirements: - the caller must have ``role``'s admin role."
      },
      "supportsInterface(bytes4)": {
        "details": "See {IERC165-supportsInterface}."
      }
    },
    "version": 1
  },
  "userdoc": {
    "kind": "user",
    "methods": {},
    "version": 1
  },
  "storageLayout": {
    "storage": [
      {
        "astId": 24,
        "contract": "contracts/split-treasury.sol:SplitTreasury",
        "label": "_roles",
        "offset": 0,
        "slot": "0",
        "type": "t_mapping(t_bytes32,t_struct(RoleData)19_storage)"
      },
      {
        "astId": 2755,
        "contract": "contracts/split-treasury.sol:SplitTreasury",
        "label": "_totalShares",
        "offset": 0,
        "slot": "1",
        "type": "t_uint256"
      },
      {
        "astId": 2757,
        "contract": "contracts/split-treasury.sol:SplitTreasury",
        "label": "_totalReleased",
        "offset": 0,
        "slot": "2",
        "type": "t_uint256"
      },
      {
        "astId": 2761,
        "contract": "contracts/split-treasury.sol:SplitTreasury",
        "label": "_shares",
        "offset": 0,
        "slot": "3",
        "type": "t_mapping(t_address,t_uint256)"
      },
      {
        "astId": 2765,
        "contract": "contracts/split-treasury.sol:SplitTreasury",
        "label": "_released",
        "offset": 0,
        "slot": "4",
        "type": "t_mapping(t_address,t_uint256)"
      },
      {
        "astId": 2768,
        "contract": "contracts/split-treasury.sol:SplitTreasury",
        "label": "_payees",
        "offset": 0,
        "slot": "5",
        "type": "t_array(t_address)dyn_storage"
      }
    ],
    "types": {
      "t_address": {
        "encoding": "inplace",
        "label": "address",
        "numberOfBytes": "20"
      },
      "t_array(t_address)dyn_storage": {
        "base": "t_address",
        "encoding": "dynamic_array",
        "label": "address[]",
        "numberOfBytes": "32"
      },
      "t_bool": {
        "encoding": "inplace",
        "label": "bool",
        "numberOfBytes": "1"
      },
      "t_bytes32": {
        "encoding": "inplace",
        "label": "bytes32",
        "numberOfBytes": "32"
      },
      "t_mapping(t_address,t_bool)": {
        "encoding": "mapping",
        "key": "t_address",
        "label": "mapping(address => bool)",
        "numberOfBytes": "32",
        "value": "t_bool"
      },
      "t_mapping(t_address,t_uint256)": {
        "encoding": "mapping",
        "key": "t_address",
        "label": "mapping(address => uint256)",
        "numberOfBytes": "32",
        "value": "t_uint256"
      },
      "t_mapping(t_bytes32,t_struct(RoleData)19_storage)": {
        "encoding": "mapping",
        "key": "t_bytes32",
        "label": "mapping(bytes32 => struct AccessControl.RoleData)",
        "numberOfBytes": "32",
        "value": "t_struct(RoleData)19_storage"
      },
      "t_struct(RoleData)19_storage": {
        "encoding": "inplace",
        "label": "struct AccessControl.RoleData",
        "members": [
          {
            "astId": 16,
            "contract": "contracts/split-treasury.sol:SplitTreasury",
            "label": "members",
            "offset": 0,
            "slot": "0",
            "type": "t_mapping(t_address,t_bool)"
          },
          {
            "astId": 18,
            "contract": "contracts/split-treasury.sol:SplitTreasury",
            "label": "adminRole",
            "offset": 0,
            "slot": "1",
            "type": "t_bytes32"
          }
        ],
        "numberOfBytes": "64"
      },
      "t_uint256": {
        "encoding": "inplace",
        "label": "uint256",
        "numberOfBytes": "32"
      }
    }
  }
}