{
  "address": "0x7f85f166c34b375Ea6eBA79b2084ef5251D343Db",
  "abi": [
    {
      "inputs": [],
      "stateMutability": "nonpayable",
      "type": "constructor"
    },
    {
      "anonymous": false,
      "inputs": [
        {
          "indexed": true,
          "internalType": "address",
          "name": "owner",
          "type": "address"
        },
        {
          "indexed": true,
          "internalType": "address",
          "name": "spender",
          "type": "address"
        },
        {
          "indexed": false,
          "internalType": "uint256",
          "name": "value",
          "type": "uint256"
        }
      ],
      "name": "Approval",
      "type": "event"
    },
    {
      "anonymous": false,
      "inputs": [
        {
          "indexed": true,
          "internalType": "address",
          "name": "previousOwner",
          "type": "address"
        },
        {
          "indexed": true,
          "internalType": "address",
          "name": "newOwner",
          "type": "address"
        }
      ],
      "name": "OwnershipTransferred",
      "type": "event"
    },
    {
      "anonymous": false,
      "inputs": [
        {
          "indexed": true,
          "internalType": "address",
          "name": "from",
          "type": "address"
        },
        {
          "indexed": true,
          "internalType": "address",
          "name": "to",
          "type": "address"
        },
        {
          "indexed": false,
          "internalType": "uint256",
          "name": "value",
          "type": "uint256"
        }
      ],
      "name": "Transfer",
      "type": "event"
    },
    {
      "inputs": [
        {
          "internalType": "address",
          "name": "owner",
          "type": "address"
        },
        {
          "internalType": "address",
          "name": "spender",
          "type": "address"
        }
      ],
      "name": "allowance",
      "outputs": [
        {
          "internalType": "uint256",
          "name": "",
          "type": "uint256"
        }
      ],
      "stateMutability": "view",
      "type": "function"
    },
    {
      "inputs": [
        {
          "internalType": "address",
          "name": "spender",
          "type": "address"
        },
        {
          "internalType": "uint256",
          "name": "amount",
          "type": "uint256"
        }
      ],
      "name": "approve",
      "outputs": [
        {
          "internalType": "bool",
          "name": "",
          "type": "bool"
        }
      ],
      "stateMutability": "nonpayable",
      "type": "function"
    },
    {
      "inputs": [
        {
          "internalType": "address",
          "name": "recipient",
          "type": "address"
        },
        {
          "internalType": "uint256",
          "name": "amount",
          "type": "uint256"
        }
      ],
      "name": "awardTickets",
      "outputs": [],
      "stateMutability": "nonpayable",
      "type": "function"
    },
    {
      "inputs": [
        {
          "internalType": "address",
          "name": "account",
          "type": "address"
        }
      ],
      "name": "balanceOf",
      "outputs": [
        {
          "internalType": "uint256",
          "name": "",
          "type": "uint256"
        }
      ],
      "stateMutability": "view",
      "type": "function"
    },
    {
      "inputs": [
        {
          "internalType": "uint8",
          "name": "",
          "type": "uint8"
        }
      ],
      "name": "boxTierToPrice",
      "outputs": [
        {
          "internalType": "uint256",
          "name": "",
          "type": "uint256"
        }
      ],
      "stateMutability": "view",
      "type": "function"
    },
    {
      "inputs": [
        {
          "internalType": "address",
          "name": "recipient",
          "type": "address"
        },
        {
          "internalType": "uint256",
          "name": "amount",
          "type": "uint256"
        }
      ],
      "name": "burnTickets",
      "outputs": [],
      "stateMutability": "nonpayable",
      "type": "function"
    },
    {
      "inputs": [],
      "name": "decimals",
      "outputs": [
        {
          "internalType": "uint8",
          "name": "",
          "type": "uint8"
        }
      ],
      "stateMutability": "view",
      "type": "function"
    },
    {
      "inputs": [
        {
          "internalType": "address",
          "name": "spender",
          "type": "address"
        },
        {
          "internalType": "uint256",
          "name": "subtractedValue",
          "type": "uint256"
        }
      ],
      "name": "decreaseAllowance",
      "outputs": [
        {
          "internalType": "bool",
          "name": "",
          "type": "bool"
        }
      ],
      "stateMutability": "nonpayable",
      "type": "function"
    },
    {
      "inputs": [],
      "name": "dispenseTickets",
      "outputs": [],
      "stateMutability": "nonpayable",
      "type": "function"
    },
    {
      "inputs": [
        {
          "internalType": "address",
          "name": "spender",
          "type": "address"
        },
        {
          "internalType": "uint256",
          "name": "addedValue",
          "type": "uint256"
        }
      ],
      "name": "increaseAllowance",
      "outputs": [
        {
          "internalType": "bool",
          "name": "",
          "type": "bool"
        }
      ],
      "stateMutability": "nonpayable",
      "type": "function"
    },
    {
      "inputs": [],
      "name": "name",
      "outputs": [
        {
          "internalType": "string",
          "name": "",
          "type": "string"
        }
      ],
      "stateMutability": "view",
      "type": "function"
    },
    {
      "inputs": [],
      "name": "owner",
      "outputs": [
        {
          "internalType": "address",
          "name": "",
          "type": "address"
        }
      ],
      "stateMutability": "view",
      "type": "function"
    },
    {
      "inputs": [
        {
          "internalType": "address",
          "name": "recipient",
          "type": "address"
        },
        {
          "internalType": "uint8",
          "name": "tier",
          "type": "uint8"
        }
      ],
      "name": "purchaseBox",
      "outputs": [],
      "stateMutability": "nonpayable",
      "type": "function"
    },
    {
      "inputs": [],
      "name": "renounceOwnership",
      "outputs": [],
      "stateMutability": "nonpayable",
      "type": "function"
    },
    {
      "inputs": [
        {
          "internalType": "uint8",
          "name": "tier",
          "type": "uint8"
        },
        {
          "internalType": "uint256",
          "name": "price",
          "type": "uint256"
        }
      ],
      "name": "setBoxTierPrice",
      "outputs": [],
      "stateMutability": "nonpayable",
      "type": "function"
    },
    {
      "inputs": [
        {
          "internalType": "address",
          "name": "lootAddress",
          "type": "address"
        }
      ],
      "name": "setLootAddress",
      "outputs": [],
      "stateMutability": "nonpayable",
      "type": "function"
    },
    {
      "inputs": [
        {
          "internalType": "address",
          "name": "nookiAddress",
          "type": "address"
        }
      ],
      "name": "setNookiAddress",
      "outputs": [],
      "stateMutability": "nonpayable",
      "type": "function"
    },
    {
      "inputs": [
        {
          "internalType": "uint256",
          "name": "nookiId",
          "type": "uint256"
        },
        {
          "internalType": "uint256",
          "name": "multiplier",
          "type": "uint256"
        }
      ],
      "name": "setNookiTicketMultiplier",
      "outputs": [],
      "stateMutability": "nonpayable",
      "type": "function"
    },
    {
      "inputs": [
        {
          "internalType": "uint256[]",
          "name": "nookiIds",
          "type": "uint256[]"
        },
        {
          "internalType": "uint256[]",
          "name": "multipliers",
          "type": "uint256[]"
        }
      ],
      "name": "setNookiTicketMultipliers",
      "outputs": [],
      "stateMutability": "nonpayable",
      "type": "function"
    },
    {
      "inputs": [],
      "name": "symbol",
      "outputs": [
        {
          "internalType": "string",
          "name": "",
          "type": "string"
        }
      ],
      "stateMutability": "view",
      "type": "function"
    },
    {
      "inputs": [],
      "name": "totalSupply",
      "outputs": [
        {
          "internalType": "uint256",
          "name": "",
          "type": "uint256"
        }
      ],
      "stateMutability": "view",
      "type": "function"
    },
    {
      "inputs": [
        {
          "internalType": "address",
          "name": "recipient",
          "type": "address"
        },
        {
          "internalType": "uint256",
          "name": "amount",
          "type": "uint256"
        }
      ],
      "name": "transfer",
      "outputs": [
        {
          "internalType": "bool",
          "name": "",
          "type": "bool"
        }
      ],
      "stateMutability": "nonpayable",
      "type": "function"
    },
    {
      "inputs": [
        {
          "internalType": "address",
          "name": "sender",
          "type": "address"
        },
        {
          "internalType": "address",
          "name": "recipient",
          "type": "address"
        },
        {
          "internalType": "uint256",
          "name": "amount",
          "type": "uint256"
        }
      ],
      "name": "transferFrom",
      "outputs": [
        {
          "internalType": "bool",
          "name": "",
          "type": "bool"
        }
      ],
      "stateMutability": "nonpayable",
      "type": "function"
    },
    {
      "inputs": [
        {
          "internalType": "address",
          "name": "newOwner",
          "type": "address"
        }
      ],
      "name": "transferOwnership",
      "outputs": [],
      "stateMutability": "nonpayable",
      "type": "function"
    }
  ],
  "transactionHash": "0x0869cbf9aa797a7719790b764c908a2eb88c4febb0afe33ce856d8196965daae",
  "args": [],
  "solcInputHash": "7a7fb7dd4877558f80652a86cb4fcff7",
  "bytecode": "0x60806040523480156200001157600080fd5b506040518060400160405280600c81526020016b4e757474795469636b65747360a01b8152506040518060400160405280600381526020016209ca8b60eb1b81525081600390805190602001906200006b929190620000fa565b50805162000081906004906020840190620000fa565b5050506200009e62000098620000a460201b60201c565b620000a8565b620001dd565b3390565b600580546001600160a01b038381166001600160a01b0319831681179093556040519116919082907f8be0079c531659141344cd1fd0a4f28419497f9722a3daafe3b4186f6b6457e090600090a35050565b8280546200010890620001a0565b90600052602060002090601f0160209004810192826200012c576000855562000177565b82601f106200014757805160ff191683800117855562000177565b8280016001018555821562000177579182015b82811115620001775782518255916020019190600101906200015a565b506200018592915062000189565b5090565b5b808211156200018557600081556001016200018a565b600281046001821680620001b557607f821691505b60208210811415620001d757634e487b7160e01b600052602260045260246000fd5b50919050565b61176a80620001ed6000396000f3fe608060405234801561001057600080fd5b50600436106101585760003560e01c8063715018a6116100c3578063a9059cbb1161007c578063a9059cbb146102bd578063c489f1db146102d0578063d6f748ff146102d8578063dd62ed3e146102eb578063e6cbfc8a146102fe578063f2fde38b1461031157610158565b8063715018a61461025f578063749f82e71461026757806385bc898c1461027a5780638da5cb5b1461028d57806395d89b41146102a2578063a457c2d7146102aa57610158565b80632b3f944e116101155780632b3f944e146101eb578063313ce567146101fe57806339509351146102135780634306e4c91461022657806363ef62ef1461023957806370a082311461024c57610158565b806306fdde031461015d578063095ea7b31461017b57806314c6e60f1461019b57806318160ddd146101b057806323b872dd146101c55780632a9c5a97146101d8575b600080fd5b610165610324565b60405161017291906112b1565b60405180910390f35b61018e610189366004611148565b6103b6565b60405161017291906112a6565b6101ae6101a936600461125b565b6103d3565b005b6101b8610431565b6040516101729190611618565b61018e6101d3366004611108565b610437565b6101ae6101e6366004611091565b6104c7565b6101ae6101f9366004611173565b610528565b6102066105e8565b6040516101729190611621565b61018e610221366004611148565b6105ed565b6101ae610234366004611091565b610641565b6101ae610247366004611148565b6106a2565b6101b861025a366004611091565b6106eb565b6101ae61070a565b6101b8610275366004611241565b610755565b6101ae610288366004611148565b610767565b6102956107b0565b6040516101729190611276565b6101656107bf565b61018e6102b8366004611148565b6107ce565b61018e6102cb366004611148565b610847565b6101ae61085b565b6101ae6102e63660046111a7565b610b39565b6101b86102f93660046110d0565b610c23565b6101ae61030c366004611220565b610c4e565b6101ae61031f366004611091565b610c9f565b6060600380546103339061169d565b80601f016020809104026020016040519081016040528092919081815260200182805461035f9061169d565b80156103ac5780601f10610381576101008083540402835291602001916103ac565b820191906000526020600020905b81548152906001019060200180831161038f57829003601f168201915b5050505050905090565b60006103ca6103c3610d0d565b8484610d11565b50600192915050565b6103db610d0d565b6001600160a01b03166103ec6107b0565b6001600160a01b03161461041b5760405162461bcd60e51b815260040161041290611416565b60405180910390fd5b60ff909116600090815260066020526040902055565b60025490565b6000610444848484610dc5565b6001600160a01b038416600090815260016020526040812081610465610d0d565b6001600160a01b03166001600160a01b03168152602001908152602001600020549050828110156104a85760405162461bcd60e51b8152600401610412906113ce565b6104bc856104b4610d0d565b858403610d11565b506001949350505050565b6104cf610d0d565b6001600160a01b03166104e06107b0565b6001600160a01b0316146105065760405162461bcd60e51b815260040161041290611416565b600880546001600160a01b0319166001600160a01b0392909216919091179055565b60ff8116600090815260066020526040902054610544336106eb565b10156105625760405162461bcd60e51b81526004016104129061144b565b600754604051631e4f6a9160e21b81526001600160a01b039091169063793daa4490610594908590859060040161128a565b600060405180830381600087803b1580156105ae57600080fd5b505af11580156105c2573d6000803e3d6000fd5b50505060ff82166000908152600660205260409020546105e491503390610ddd565b5050565b601290565b60006103ca6105fa610d0d565b848460016000610608610d0d565b6001600160a01b03908116825260208083019390935260409182016000908120918b168152925290205461063c919061162f565b610d11565b610649610d0d565b6001600160a01b031661065a6107b0565b6001600160a01b0316146106805760405162461bcd60e51b815260040161041290611416565b600780546001600160a01b0319166001600160a01b0392909216919091179055565b6106aa610d0d565b6001600160a01b03166106bb6107b0565b6001600160a01b0316146106e15760405162461bcd60e51b815260040161041290611416565b6105e48282610ece565b6001600160a01b0381166000908152602081905260409020545b919050565b610712610d0d565b6001600160a01b03166107236107b0565b6001600160a01b0316146107495760405162461bcd60e51b815260040161041290611416565b6107536000610f96565b565b60066020526000908152604090205481565b61076f610d0d565b6001600160a01b03166107806107b0565b6001600160a01b0316146107a65760405162461bcd60e51b815260040161041290611416565b6105e48282610ddd565b6005546001600160a01b031690565b6060600480546103339061169d565b600080600160006107dd610d0d565b6001600160a01b03908116825260208083019390935260409182016000908120918816815292529020549050828110156108295760405162461bcd60e51b81526004016104129061159c565b61083d610834610d0d565b85858403610d11565b5060019392505050565b60006103ca610854610d0d565b8484610dc5565b610863610d0d565b6001600160a01b03166108746107b0565b6001600160a01b03161461089a5760405162461bcd60e51b815260040161041290611416565b60005b600860009054906101000a90046001600160a01b03166001600160a01b03166318160ddd6040518163ffffffff1660e01b815260040160206040518083038186803b1580156108eb57600080fd5b505afa1580156108ff573d6000803e3d6000fd5b505050506040513d601f19601f820116820180604052508101906109239190611208565b811015610b3657600854604051634f6ccce760e01b81526000916001600160a01b031690634f6ccce79061095b908590600401611618565b60206040518083038186803b15801561097357600080fd5b505afa158015610987573d6000803e3d6000fd5b505050506040513d601f19601f820116820180604052508101906109ab9190611208565b600854604051638a727fd560e01b815291925060009162015180916001600160a01b031690638a727fd5906109e4908690600401611618565b60206040518083038186803b1580156109fc57600080fd5b505afa158015610a10573d6000803e3d6000fd5b505050506040513d601f19601f82011682018060405250810190610a349190611208565b610a3e9042611686565b610a489190611647565b6000838152600a602052604081205491925090610a659083611686565b9050600083815260096020526040812054610a809083611667565b6000858152600a60205260409081902085905560085490516331a9108f60e11b8152919250610b1f916001600160a01b0390911690636352211e90610ac9908890600401611618565b60206040518083038186803b158015610ae157600080fd5b505afa158015610af5573d6000803e3d6000fd5b505050506040513d601f19601f82011682018060405250810190610b1991906110b4565b82610ece565b505050508080610b2e906116d8565b91505061089d565b50565b610b41610d0d565b6001600160a01b0316610b526107b0565b6001600160a01b031614610b785760405162461bcd60e51b815260040161041290611416565b8051825114610b995760405162461bcd60e51b815260040161041290611507565b60005b8251811015610c1e57818181518110610bc557634e487b7160e01b600052603260045260246000fd5b602002602001015160096000858481518110610bf157634e487b7160e01b600052603260045260246000fd5b60200260200101518152602001908152602001600020819055508080610c16906116d8565b915050610b9c565b505050565b6001600160a01b03918216600090815260016020908152604080832093909416825291909152205490565b610c56610d0d565b6001600160a01b0316610c676107b0565b6001600160a01b031614610c8d5760405162461bcd60e51b815260040161041290611416565b60009182526009602052604090912055565b610ca7610d0d565b6001600160a01b0316610cb86107b0565b6001600160a01b031614610cde5760405162461bcd60e51b815260040161041290611416565b6001600160a01b038116610d045760405162461bcd60e51b815260040161041290611346565b610b3681610f96565b3390565b6001600160a01b038316610d375760405162461bcd60e51b8152600401610412906114c3565b6001600160a01b038216610d5d5760405162461bcd60e51b81526004016104129061138c565b6001600160a01b0380841660008181526001602090815260408083209487168084529490915290819020849055517f8c5be1e5ebec7d5bd14f71427d1e84f3dd0314c0f7b2291e5b200ac8c7c3b92590610db8908590611618565b60405180910390a3505050565b60405162461bcd60e51b815260040161041290611553565b6001600160a01b038216610e035760405162461bcd60e51b815260040161041290611482565b610e0f82600083610c1e565b6001600160a01b03821660009081526020819052604090205481811015610e485760405162461bcd60e51b815260040161041290611304565b6001600160a01b0383166000908152602081905260408120838303905560028054849290610e77908490611686565b90915550506040516000906001600160a01b038516907fddf252ad1be2c89b69c2b068fc378daa952ba7f163c4a11628f55a4df523b3ef90610eba908690611618565b60405180910390a3610c1e83600084610c1e565b6001600160a01b038216610ef45760405162461bcd60e51b8152600401610412906115e1565b610f0060008383610c1e565b8060026000828254610f12919061162f565b90915550506001600160a01b03821660009081526020819052604081208054839290610f3f90849061162f565b90915550506040516001600160a01b038316906000907fddf252ad1be2c89b69c2b068fc378daa952ba7f163c4a11628f55a4df523b3ef90610f82908590611618565b60405180910390a36105e460008383610c1e565b600580546001600160a01b038381166001600160a01b0319831681179093556040519116919082907f8be0079c531659141344cd1fd0a4f28419497f9722a3daafe3b4186f6b6457e090600090a35050565b600082601f830112610ff8578081fd5b8135602067ffffffffffffffff8083111561101557611015611709565b8183026040518382820101818110848211171561103457611034611709565b60405284815283810192508684018288018501891015611052578687fd5b8692505b85831015611074578035845292840192600192909201918401611056565b50979650505050505050565b803560ff8116811461070557600080fd5b6000602082840312156110a2578081fd5b81356110ad8161171f565b9392505050565b6000602082840312156110c5578081fd5b81516110ad8161171f565b600080604083850312156110e2578081fd5b82356110ed8161171f565b915060208301356110fd8161171f565b809150509250929050565b60008060006060848603121561111c578081fd5b83356111278161171f565b925060208401356111378161171f565b929592945050506040919091013590565b6000806040838503121561115a578182fd5b82356111658161171f565b946020939093013593505050565b60008060408385031215611185578182fd5b82356111908161171f565b915061119e60208401611080565b90509250929050565b600080604083850312156111b9578182fd5b823567ffffffffffffffff808211156111d0578384fd5b6111dc86838701610fe8565b935060208501359150808211156111f1578283fd5b506111fe85828601610fe8565b9150509250929050565b600060208284031215611219578081fd5b5051919050565b60008060408385031215611232578182fd5b50508035926020909101359150565b600060208284031215611252578081fd5b6110ad82611080565b6000806040838503121561126d578182fd5b61116583611080565b6001600160a01b0391909116815260200190565b6001600160a01b0392909216825260ff16602082015260400190565b901515815260200190565b6000602080835283518082850152825b818110156112dd578581018301518582016040015282016112c1565b818111156112ee5783604083870101525b50601f01601f1916929092016040019392505050565b60208082526022908201527f45524332303a206275726e20616d6f756e7420657863656564732062616c616e604082015261636560f01b606082015260800190565b60208082526026908201527f4f776e61626c653a206e6577206f776e657220697320746865207a65726f206160408201526564647265737360d01b606082015260800190565b60208082526022908201527f45524332303a20617070726f766520746f20746865207a65726f206164647265604082015261737360f01b606082015260800190565b60208082526028908201527f45524332303a207472616e7366657220616d6f756e74206578636565647320616040820152676c6c6f77616e636560c01b606082015260800190565b6020808252818101527f4f776e61626c653a2063616c6c6572206973206e6f7420746865206f776e6572604082015260600190565b6020808252601d908201527f53656e6465722068617320696e73756666696369656e742066756e6473000000604082015260600190565b60208082526021908201527f45524332303a206275726e2066726f6d20746865207a65726f206164647265736040820152607360f81b606082015260800190565b60208082526024908201527f45524332303a20617070726f76652066726f6d20746865207a65726f206164646040820152637265737360e01b606082015260800190565b6020808252602c908201527f496473206c656e67746820646f6573206e6f74206d61746368206d756c74697060408201526b0d8d2cae4e640d8cadccee8d60a31b606082015260800190565b60208082526029908201527f557365727320617265206e6f7420616c6c6f77656420746f207472616e73666560408201526872207469636b65747360b81b606082015260800190565b60208082526025908201527f45524332303a2064656372656173656420616c6c6f77616e63652062656c6f77604082015264207a65726f60d81b606082015260800190565b6020808252601f908201527f45524332303a206d696e7420746f20746865207a65726f206164647265737300604082015260600190565b90815260200190565b60ff91909116815260200190565b60008219821115611642576116426116f3565b500190565b60008261166257634e487b7160e01b81526012600452602481fd5b500490565b6000816000190483118215151615611681576116816116f3565b500290565b600082821015611698576116986116f3565b500390565b6002810460018216806116b157607f821691505b602082108114156116d257634e487b7160e01b600052602260045260246000fd5b50919050565b60006000198214156116ec576116ec6116f3565b5060010190565b634e487b7160e01b600052601160045260246000fd5b634e487b7160e01b600052604160045260246000fd5b6001600160a01b0381168114610b3657600080fdfea264697066735822122008f314a9aefe9898a724c3c56c5e482189b1117cbd4e6657726debdde46082a664736f6c63430008000033",
  "devdoc": {
    "kind": "dev",
    "methods": {
      "allowance(address,address)": {
        "details": "See {IERC20-allowance}."
      },
      "approve(address,uint256)": {
        "details": "See {IERC20-approve}. Requirements: - `spender` cannot be the zero address."
      },
      "balanceOf(address)": {
        "details": "See {IERC20-balanceOf}."
      },
      "decimals()": {
        "details": "Returns the number of decimals used to get its user representation. For example, if `decimals` equals `2`, a balance of `505` tokens should be displayed to a user as `5.05` (`505 / 10 ** 2`). Tokens usually opt for a value of 18, imitating the relationship between Ether and Wei. This is the value {ERC20} uses, unless this function is overridden; NOTE: This information is only used for _display_ purposes: it in no way affects any of the arithmetic of the contract, including {IERC20-balanceOf} and {IERC20-transfer}."
      },
      "decreaseAllowance(address,uint256)": {
        "details": "Atomically decreases the allowance granted to `spender` by the caller. This is an alternative to {approve} that can be used as a mitigation for problems described in {IERC20-approve}. Emits an {Approval} event indicating the updated allowance. Requirements: - `spender` cannot be the zero address. - `spender` must have allowance for the caller of at least `subtractedValue`."
      },
      "increaseAllowance(address,uint256)": {
        "details": "Atomically increases the allowance granted to `spender` by the caller. This is an alternative to {approve} that can be used as a mitigation for problems described in {IERC20-approve}. Emits an {Approval} event indicating the updated allowance. Requirements: - `spender` cannot be the zero address."
      },
      "name()": {
        "details": "Returns the name of the token."
      },
      "owner()": {
        "details": "Returns the address of the current owner."
      },
      "renounceOwnership()": {
        "details": "Leaves the contract without owner. It will not be possible to call `onlyOwner` functions anymore. Can only be called by the current owner. NOTE: Renouncing ownership will leave the contract without an owner, thereby removing any functionality that is only available to the owner."
      },
      "symbol()": {
        "details": "Returns the symbol of the token, usually a shorter version of the name."
      },
      "totalSupply()": {
        "details": "See {IERC20-totalSupply}."
      },
      "transfer(address,uint256)": {
        "details": "See {IERC20-transfer}. Requirements: - `recipient` cannot be the zero address. - the caller must have a balance of at least `amount`."
      },
      "transferFrom(address,address,uint256)": {
        "details": "See {IERC20-transferFrom}. Emits an {Approval} event indicating the updated allowance. This is not required by the EIP. See the note at the beginning of {ERC20}. Requirements: - `sender` and `recipient` cannot be the zero address. - `sender` must have a balance of at least `amount`. - the caller must have allowance for ``sender``'s tokens of at least `amount`."
      },
      "transferOwnership(address)": {
        "details": "Transfers ownership of the contract to a new account (`newOwner`). Can only be called by the current owner."
      }
    },
    "version": 1
  },
  "userdoc": {
    "kind": "user",
    "methods": {},
    "version": 1
  },
  "storageLayout": {
    "storage": [
      {
        "astId": 613,
        "contract": "contracts/ticketer.sol:NuttyTickets",
        "label": "_balances",
        "offset": 0,
        "slot": "0",
        "type": "t_mapping(t_address,t_uint256)"
      },
      {
        "astId": 619,
        "contract": "contracts/ticketer.sol:NuttyTickets",
        "label": "_allowances",
        "offset": 0,
        "slot": "1",
        "type": "t_mapping(t_address,t_mapping(t_address,t_uint256))"
      },
      {
        "astId": 621,
        "contract": "contracts/ticketer.sol:NuttyTickets",
        "label": "_totalSupply",
        "offset": 0,
        "slot": "2",
        "type": "t_uint256"
      },
      {
        "astId": 623,
        "contract": "contracts/ticketer.sol:NuttyTickets",
        "label": "_name",
        "offset": 0,
        "slot": "3",
        "type": "t_string_storage"
      },
      {
        "astId": 625,
        "contract": "contracts/ticketer.sol:NuttyTickets",
        "label": "_symbol",
        "offset": 0,
        "slot": "4",
        "type": "t_string_storage"
      },
      {
        "astId": 387,
        "contract": "contracts/ticketer.sol:NuttyTickets",
        "label": "_owner",
        "offset": 0,
        "slot": "5",
        "type": "t_address"
      },
      {
        "astId": 5686,
        "contract": "contracts/ticketer.sol:NuttyTickets",
        "label": "boxTierToPrice",
        "offset": 0,
        "slot": "6",
        "type": "t_mapping(t_uint8,t_uint256)"
      },
      {
        "astId": 5689,
        "contract": "contracts/ticketer.sol:NuttyTickets",
        "label": "_nuttyLoot",
        "offset": 0,
        "slot": "7",
        "type": "t_contract(NuttyLootInterface)5647"
      },
      {
        "astId": 5692,
        "contract": "contracts/ticketer.sol:NuttyTickets",
        "label": "_nuttyNooki",
        "offset": 0,
        "slot": "8",
        "type": "t_contract(NuttyNookiInterface)5678"
      },
      {
        "astId": 5696,
        "contract": "contracts/ticketer.sol:NuttyTickets",
        "label": "_nookiTokenToTicketMultiplier",
        "offset": 0,
        "slot": "9",
        "type": "t_mapping(t_uint256,t_uint256)"
      },
      {
        "astId": 5700,
        "contract": "contracts/ticketer.sol:NuttyTickets",
        "label": "_nookiTokenPrevDispenseDay",
        "offset": 0,
        "slot": "10",
        "type": "t_mapping(t_uint256,t_uint256)"
      }
    ],
    "types": {
      "t_address": {
        "encoding": "inplace",
        "label": "address",
        "numberOfBytes": "20"
      },
      "t_contract(NuttyLootInterface)5647": {
        "encoding": "inplace",
        "label": "contract NuttyLootInterface",
        "numberOfBytes": "20"
      },
      "t_contract(NuttyNookiInterface)5678": {
        "encoding": "inplace",
        "label": "contract NuttyNookiInterface",
        "numberOfBytes": "20"
      },
      "t_mapping(t_address,t_mapping(t_address,t_uint256))": {
        "encoding": "mapping",
        "key": "t_address",
        "label": "mapping(address => mapping(address => uint256))",
        "numberOfBytes": "32",
        "value": "t_mapping(t_address,t_uint256)"
      },
      "t_mapping(t_address,t_uint256)": {
        "encoding": "mapping",
        "key": "t_address",
        "label": "mapping(address => uint256)",
        "numberOfBytes": "32",
        "value": "t_uint256"
      },
      "t_mapping(t_uint256,t_uint256)": {
        "encoding": "mapping",
        "key": "t_uint256",
        "label": "mapping(uint256 => uint256)",
        "numberOfBytes": "32",
        "value": "t_uint256"
      },
      "t_mapping(t_uint8,t_uint256)": {
        "encoding": "mapping",
        "key": "t_uint8",
        "label": "mapping(uint8 => uint256)",
        "numberOfBytes": "32",
        "value": "t_uint256"
      },
      "t_string_storage": {
        "encoding": "bytes",
        "label": "string",
        "numberOfBytes": "32"
      },
      "t_uint256": {
        "encoding": "inplace",
        "label": "uint256",
        "numberOfBytes": "32"
      },
      "t_uint8": {
        "encoding": "inplace",
        "label": "uint8",
        "numberOfBytes": "1"
      }
    }
  }
}