{
  "address": "0x989985ff6d2b1e155780Fc9d0F0c34e0BD269F6b",
  "abi": [
    {
      "inputs": [
        {
          "internalType": "uint16",
          "name": "_creatorRoyaltyBP",
          "type": "uint16"
        },
        {
          "internalType": "string",
          "name": "_contractURI",
          "type": "string"
        },
        {
          "internalType": "address payable",
          "name": "_royaltyTreasury",
          "type": "address"
        },
        {
          "internalType": "address",
          "name": "_ticketer",
          "type": "address"
        },
        {
          "internalType": "string",
          "name": "boxBaseURI",
          "type": "string"
        },
        {
          "internalType": "string",
          "name": "itemBaseURI",
          "type": "string"
        }
      ],
      "stateMutability": "nonpayable",
      "type": "constructor"
    },
    {
      "anonymous": false,
      "inputs": [
        {
          "indexed": true,
          "internalType": "address",
          "name": "owner",
          "type": "address"
        },
        {
          "indexed": true,
          "internalType": "address",
          "name": "approved",
          "type": "address"
        },
        {
          "indexed": true,
          "internalType": "uint256",
          "name": "tokenId",
          "type": "uint256"
        }
      ],
      "name": "Approval",
      "type": "event"
    },
    {
      "anonymous": false,
      "inputs": [
        {
          "indexed": true,
          "internalType": "address",
          "name": "owner",
          "type": "address"
        },
        {
          "indexed": true,
          "internalType": "address",
          "name": "operator",
          "type": "address"
        },
        {
          "indexed": false,
          "internalType": "bool",
          "name": "approved",
          "type": "bool"
        }
      ],
      "name": "ApprovalForAll",
      "type": "event"
    },
    {
      "anonymous": false,
      "inputs": [
        {
          "indexed": true,
          "internalType": "uint256",
          "name": "time",
          "type": "uint256"
        }
      ],
      "name": "BalanceWithdrawl",
      "type": "event"
    },
    {
      "anonymous": false,
      "inputs": [
        {
          "indexed": true,
          "internalType": "uint256",
          "name": "id",
          "type": "uint256"
        }
      ],
      "name": "CreateBox",
      "type": "event"
    },
    {
      "anonymous": false,
      "inputs": [
        {
          "indexed": true,
          "internalType": "uint256",
          "name": "id",
          "type": "uint256"
        }
      ],
      "name": "CreateItem",
      "type": "event"
    },
    {
      "anonymous": false,
      "inputs": [],
      "name": "DonationReceived",
      "type": "event"
    },
    {
      "anonymous": false,
      "inputs": [
        {
          "indexed": false,
          "internalType": "address",
          "name": "account",
          "type": "address"
        }
      ],
      "name": "Paused",
      "type": "event"
    },
    {
      "anonymous": false,
      "inputs": [
        {
          "indexed": true,
          "internalType": "bytes32",
          "name": "role",
          "type": "bytes32"
        },
        {
          "indexed": true,
          "internalType": "bytes32",
          "name": "previousAdminRole",
          "type": "bytes32"
        },
        {
          "indexed": true,
          "internalType": "bytes32",
          "name": "newAdminRole",
          "type": "bytes32"
        }
      ],
      "name": "RoleAdminChanged",
      "type": "event"
    },
    {
      "anonymous": false,
      "inputs": [
        {
          "indexed": true,
          "internalType": "bytes32",
          "name": "role",
          "type": "bytes32"
        },
        {
          "indexed": true,
          "internalType": "address",
          "name": "account",
          "type": "address"
        },
        {
          "indexed": true,
          "internalType": "address",
          "name": "sender",
          "type": "address"
        }
      ],
      "name": "RoleGranted",
      "type": "event"
    },
    {
      "anonymous": false,
      "inputs": [
        {
          "indexed": true,
          "internalType": "bytes32",
          "name": "role",
          "type": "bytes32"
        },
        {
          "indexed": true,
          "internalType": "address",
          "name": "account",
          "type": "address"
        },
        {
          "indexed": true,
          "internalType": "address",
          "name": "sender",
          "type": "address"
        }
      ],
      "name": "RoleRevoked",
      "type": "event"
    },
    {
      "anonymous": false,
      "inputs": [
        {
          "indexed": true,
          "internalType": "address",
          "name": "from",
          "type": "address"
        },
        {
          "indexed": true,
          "internalType": "address",
          "name": "to",
          "type": "address"
        },
        {
          "indexed": true,
          "internalType": "uint256",
          "name": "tokenId",
          "type": "uint256"
        }
      ],
      "name": "Transfer",
      "type": "event"
    },
    {
      "anonymous": false,
      "inputs": [
        {
          "indexed": false,
          "internalType": "address",
          "name": "account",
          "type": "address"
        }
      ],
      "name": "Unpaused",
      "type": "event"
    },
    {
      "inputs": [],
      "name": "ADMIN",
      "outputs": [
        {
          "internalType": "bytes32",
          "name": "",
          "type": "bytes32"
        }
      ],
      "stateMutability": "view",
      "type": "function"
    },
    {
      "inputs": [],
      "name": "DEFAULT_ADMIN_ROLE",
      "outputs": [
        {
          "internalType": "bytes32",
          "name": "",
          "type": "bytes32"
        }
      ],
      "stateMutability": "view",
      "type": "function"
    },
    {
      "inputs": [],
      "name": "TICKETER",
      "outputs": [
        {
          "internalType": "bytes32",
          "name": "",
          "type": "bytes32"
        }
      ],
      "stateMutability": "view",
      "type": "function"
    },
    {
      "inputs": [
        {
          "internalType": "address",
          "name": "to",
          "type": "address"
        },
        {
          "internalType": "uint256",
          "name": "tokenId",
          "type": "uint256"
        }
      ],
      "name": "approve",
      "outputs": [],
      "stateMutability": "nonpayable",
      "type": "function"
    },
    {
      "inputs": [
        {
          "internalType": "address",
          "name": "owner",
          "type": "address"
        }
      ],
      "name": "balanceOf",
      "outputs": [
        {
          "internalType": "uint256",
          "name": "",
          "type": "uint256"
        }
      ],
      "stateMutability": "view",
      "type": "function"
    },
    {
      "inputs": [
        {
          "internalType": "uint256",
          "name": "tokenId",
          "type": "uint256"
        }
      ],
      "name": "boxInfo",
      "outputs": [
        {
          "internalType": "uint8",
          "name": "tier",
          "type": "uint8"
        },
        {
          "internalType": "uint256",
          "name": "boxId",
          "type": "uint256"
        }
      ],
      "stateMutability": "view",
      "type": "function"
    },
    {
      "inputs": [
        {
          "internalType": "uint256",
          "name": "tokenId",
          "type": "uint256"
        }
      ],
      "name": "burn",
      "outputs": [],
      "stateMutability": "nonpayable",
      "type": "function"
    },
    {
      "inputs": [],
      "name": "contractURI",
      "outputs": [
        {
          "internalType": "string",
          "name": "",
          "type": "string"
        }
      ],
      "stateMutability": "view",
      "type": "function"
    },
    {
      "inputs": [],
      "name": "creatorRoyaltyBP",
      "outputs": [
        {
          "internalType": "uint16",
          "name": "",
          "type": "uint16"
        }
      ],
      "stateMutability": "view",
      "type": "function"
    },
    {
      "inputs": [
        {
          "internalType": "uint256",
          "name": "tokenId",
          "type": "uint256"
        }
      ],
      "name": "getApproved",
      "outputs": [
        {
          "internalType": "address",
          "name": "",
          "type": "address"
        }
      ],
      "stateMutability": "view",
      "type": "function"
    },
    {
      "inputs": [
        {
          "internalType": "bytes32",
          "name": "role",
          "type": "bytes32"
        }
      ],
      "name": "getRoleAdmin",
      "outputs": [
        {
          "internalType": "bytes32",
          "name": "",
          "type": "bytes32"
        }
      ],
      "stateMutability": "view",
      "type": "function"
    },
    {
      "inputs": [
        {
          "internalType": "address[]",
          "name": "recipients",
          "type": "address[]"
        },
        {
          "internalType": "uint8",
          "name": "tier",
          "type": "uint8"
        }
      ],
      "name": "giveawayBox",
      "outputs": [],
      "stateMutability": "nonpayable",
      "type": "function"
    },
    {
      "inputs": [
        {
          "internalType": "bytes32",
          "name": "role",
          "type": "bytes32"
        },
        {
          "internalType": "address",
          "name": "account",
          "type": "address"
        }
      ],
      "name": "grantRole",
      "outputs": [],
      "stateMutability": "nonpayable",
      "type": "function"
    },
    {
      "inputs": [
        {
          "internalType": "bytes32",
          "name": "role",
          "type": "bytes32"
        },
        {
          "internalType": "address",
          "name": "account",
          "type": "address"
        }
      ],
      "name": "hasRole",
      "outputs": [
        {
          "internalType": "bool",
          "name": "",
          "type": "bool"
        }
      ],
      "stateMutability": "view",
      "type": "function"
    },
    {
      "inputs": [
        {
          "internalType": "address",
          "name": "owner",
          "type": "address"
        },
        {
          "internalType": "address",
          "name": "operator",
          "type": "address"
        }
      ],
      "name": "isApprovedForAll",
      "outputs": [
        {
          "internalType": "bool",
          "name": "",
          "type": "bool"
        }
      ],
      "stateMutability": "view",
      "type": "function"
    },
    {
      "inputs": [
        {
          "internalType": "uint256",
          "name": "tokenId",
          "type": "uint256"
        }
      ],
      "name": "isBox",
      "outputs": [
        {
          "internalType": "bool",
          "name": "",
          "type": "bool"
        }
      ],
      "stateMutability": "view",
      "type": "function"
    },
    {
      "inputs": [
        {
          "internalType": "uint256",
          "name": "tokenId",
          "type": "uint256"
        }
      ],
      "name": "itemInfo",
      "outputs": [
        {
          "internalType": "uint256",
          "name": "itemId",
          "type": "uint256"
        }
      ],
      "stateMutability": "view",
      "type": "function"
    },
    {
      "inputs": [
        {
          "internalType": "address",
          "name": "recipient",
          "type": "address"
        },
        {
          "internalType": "uint8",
          "name": "tier",
          "type": "uint8"
        }
      ],
      "name": "mintBox",
      "outputs": [],
      "stateMutability": "nonpayable",
      "type": "function"
    },
    {
      "inputs": [],
      "name": "name",
      "outputs": [
        {
          "internalType": "string",
          "name": "",
          "type": "string"
        }
      ],
      "stateMutability": "view",
      "type": "function"
    },
    {
      "inputs": [
        {
          "internalType": "address",
          "name": "recipient",
          "type": "address"
        },
        {
          "internalType": "uint256",
          "name": "tokenId",
          "type": "uint256"
        }
      ],
      "name": "openBox",
      "outputs": [],
      "stateMutability": "nonpayable",
      "type": "function"
    },
    {
      "inputs": [
        {
          "internalType": "uint256",
          "name": "tokenId",
          "type": "uint256"
        }
      ],
      "name": "ownerOf",
      "outputs": [
        {
          "internalType": "address",
          "name": "",
          "type": "address"
        }
      ],
      "stateMutability": "view",
      "type": "function"
    },
    {
      "inputs": [],
      "name": "paused",
      "outputs": [
        {
          "internalType": "bool",
          "name": "",
          "type": "bool"
        }
      ],
      "stateMutability": "view",
      "type": "function"
    },
    {
      "inputs": [
        {
          "internalType": "bytes32",
          "name": "role",
          "type": "bytes32"
        },
        {
          "internalType": "address",
          "name": "account",
          "type": "address"
        }
      ],
      "name": "renounceRole",
      "outputs": [],
      "stateMutability": "nonpayable",
      "type": "function"
    },
    {
      "inputs": [
        {
          "internalType": "bytes32",
          "name": "role",
          "type": "bytes32"
        },
        {
          "internalType": "address",
          "name": "account",
          "type": "address"
        }
      ],
      "name": "revokeRole",
      "outputs": [],
      "stateMutability": "nonpayable",
      "type": "function"
    },
    {
      "inputs": [
        {
          "internalType": "uint256",
          "name": "",
          "type": "uint256"
        },
        {
          "internalType": "uint256",
          "name": "salePrice",
          "type": "uint256"
        }
      ],
      "name": "royaltyInfo",
      "outputs": [
        {
          "internalType": "address",
          "name": "receiver",
          "type": "address"
        },
        {
          "internalType": "uint256",
          "name": "royaltyAmount",
          "type": "uint256"
        }
      ],
      "stateMutability": "view",
      "type": "function"
    },
    {
      "inputs": [],
      "name": "royaltyTreasury",
      "outputs": [
        {
          "internalType": "address payable",
          "name": "",
          "type": "address"
        }
      ],
      "stateMutability": "view",
      "type": "function"
    },
    {
      "inputs": [
        {
          "internalType": "address",
          "name": "from",
          "type": "address"
        },
        {
          "internalType": "address",
          "name": "to",
          "type": "address"
        },
        {
          "internalType": "uint256",
          "name": "tokenId",
          "type": "uint256"
        }
      ],
      "name": "safeTransferFrom",
      "outputs": [],
      "stateMutability": "nonpayable",
      "type": "function"
    },
    {
      "inputs": [
        {
          "internalType": "address",
          "name": "from",
          "type": "address"
        },
        {
          "internalType": "address",
          "name": "to",
          "type": "address"
        },
        {
          "internalType": "uint256",
          "name": "tokenId",
          "type": "uint256"
        },
        {
          "internalType": "bytes",
          "name": "_data",
          "type": "bytes"
        }
      ],
      "name": "safeTransferFrom",
      "outputs": [],
      "stateMutability": "nonpayable",
      "type": "function"
    },
    {
      "inputs": [
        {
          "internalType": "address",
          "name": "operator",
          "type": "address"
        },
        {
          "internalType": "bool",
          "name": "approved",
          "type": "bool"
        }
      ],
      "name": "setApprovalForAll",
      "outputs": [],
      "stateMutability": "nonpayable",
      "type": "function"
    },
    {
      "inputs": [
        {
          "internalType": "string",
          "name": "boxBaseURI",
          "type": "string"
        }
      ],
      "name": "setBoxBaseURI",
      "outputs": [],
      "stateMutability": "nonpayable",
      "type": "function"
    },
    {
      "inputs": [
        {
          "internalType": "uint256",
          "name": "boxId",
          "type": "uint256"
        },
        {
          "internalType": "uint256[]",
          "name": "itemIds",
          "type": "uint256[]"
        }
      ],
      "name": "setBoxItems",
      "outputs": [],
      "stateMutability": "nonpayable",
      "type": "function"
    },
    {
      "inputs": [
        {
          "internalType": "uint8",
          "name": "tier",
          "type": "uint8"
        },
        {
          "internalType": "uint256[]",
          "name": "boxIds",
          "type": "uint256[]"
        }
      ],
      "name": "setBoxTierIds",
      "outputs": [],
      "stateMutability": "nonpayable",
      "type": "function"
    },
    {
      "inputs": [
        {
          "internalType": "string",
          "name": "metadataURI",
          "type": "string"
        }
      ],
      "name": "setContractURI",
      "outputs": [],
      "stateMutability": "nonpayable",
      "type": "function"
    },
    {
      "inputs": [
        {
          "internalType": "string",
          "name": "itemBaseURI",
          "type": "string"
        }
      ],
      "name": "setItemBaseURI",
      "outputs": [],
      "stateMutability": "nonpayable",
      "type": "function"
    },
    {
      "inputs": [
        {
          "internalType": "bool",
          "name": "pauseState",
          "type": "bool"
        }
      ],
      "name": "setPauseState",
      "outputs": [],
      "stateMutability": "nonpayable",
      "type": "function"
    },
    {
      "inputs": [
        {
          "internalType": "uint16",
          "name": "basePoints",
          "type": "uint16"
        }
      ],
      "name": "setRoyaltyBP",
      "outputs": [],
      "stateMutability": "nonpayable",
      "type": "function"
    },
    {
      "inputs": [
        {
          "internalType": "address payable",
          "name": "treasury",
          "type": "address"
        }
      ],
      "name": "setRoyaltyTreasury",
      "outputs": [],
      "stateMutability": "nonpayable",
      "type": "function"
    },
    {
      "inputs": [
        {
          "internalType": "bytes4",
          "name": "interfaceId",
          "type": "bytes4"
        }
      ],
      "name": "supportsInterface",
      "outputs": [
        {
          "internalType": "bool",
          "name": "",
          "type": "bool"
        }
      ],
      "stateMutability": "view",
      "type": "function"
    },
    {
      "inputs": [],
      "name": "symbol",
      "outputs": [
        {
          "internalType": "string",
          "name": "",
          "type": "string"
        }
      ],
      "stateMutability": "view",
      "type": "function"
    },
    {
      "inputs": [
        {
          "internalType": "uint256",
          "name": "index",
          "type": "uint256"
        }
      ],
      "name": "tokenByIndex",
      "outputs": [
        {
          "internalType": "uint256",
          "name": "",
          "type": "uint256"
        }
      ],
      "stateMutability": "view",
      "type": "function"
    },
    {
      "inputs": [
        {
          "internalType": "address",
          "name": "owner",
          "type": "address"
        },
        {
          "internalType": "uint256",
          "name": "index",
          "type": "uint256"
        }
      ],
      "name": "tokenOfOwnerByIndex",
      "outputs": [
        {
          "internalType": "uint256",
          "name": "",
          "type": "uint256"
        }
      ],
      "stateMutability": "view",
      "type": "function"
    },
    {
      "inputs": [
        {
          "internalType": "uint256",
          "name": "tokenId",
          "type": "uint256"
        }
      ],
      "name": "tokenURI",
      "outputs": [
        {
          "internalType": "string",
          "name": "",
          "type": "string"
        }
      ],
      "stateMutability": "view",
      "type": "function"
    },
    {
      "inputs": [],
      "name": "totalSupply",
      "outputs": [
        {
          "internalType": "uint256",
          "name": "",
          "type": "uint256"
        }
      ],
      "stateMutability": "view",
      "type": "function"
    },
    {
      "inputs": [
        {
          "internalType": "address",
          "name": "from",
          "type": "address"
        },
        {
          "internalType": "address",
          "name": "to",
          "type": "address"
        },
        {
          "internalType": "uint256",
          "name": "tokenId",
          "type": "uint256"
        }
      ],
      "name": "transferFrom",
      "outputs": [],
      "stateMutability": "nonpayable",
      "type": "function"
    },
    {
      "inputs": [
        {
          "internalType": "address",
          "name": "ownerAddress",
          "type": "address"
        }
      ],
      "name": "walletOfOwner",
      "outputs": [
        {
          "internalType": "uint256[]",
          "name": "",
          "type": "uint256[]"
        }
      ],
      "stateMutability": "view",
      "type": "function"
    },
    {
      "inputs": [],
      "name": "withdrawAll",
      "outputs": [],
      "stateMutability": "payable",
      "type": "function"
    },
    {
      "stateMutability": "payable",
      "type": "receive"
    }
  ],
  "transactionHash": "0x18b580fc15ac880595854c0e08a03f4a90d6d79526eb756c2e6d877bf2fcb3b9",
  "args": [
    850,
    "https://tanuki-metadata.s3.us-west-2.amazonaws.com/public/loot-contract.json",
    "0x18c05AEE87dCbc444e1fe27e4A65e8b8775f6365",
    "0x278d431B9bcfB1Fe078F7e18296dA3894e4A563e",
    "https://tanuki-metadata.s3.us-west-2.amazonaws.com/public/loot_boxes/",
    "https://tanuki-metadata.s3.us-west-2.amazonaws.com/public/loot_items/"
  ],
  "solcInputHash": "2ac7647d518c751c1fdadb1abc276bc9",
  "bytecode": "0x60806040523480156200001157600080fd5b5060405162003f4038038062003f40833981016040819052620000349162000535565b6040805180820182526009815268139d5d1d1e531bdbdd60ba1b60208083019182528351808501909452600384526213931560ea1b9084015281519192916200008091600091620003cc565b50805162000096906001906020840190620003cc565b5050600a805460ff19169055506001600160a01b038416620000d55760405162461bcd60e51b8152600401620000cc906200063f565b60405180910390fd5b6001600160a01b038316620000fe5760405162461bcd60e51b8152600401620000cc906200063f565b600d805461ffff191661ffff881617905584516200012490600e906020880190620003cc565b50601180546001600160a01b0319166001600160a01b03861617905581516200015590600f906020850190620003cc565b5080516200016b906010906020840190620003cc565b506200017662000210565b620001a060008051602062003f2083398151915260008051602062003f008339815191526200028b565b620001bb60008051602062003f2083398151915233620002e0565b620001d660008051602062003f2083398151915284620002e0565b620001f160008051602062003f0083398151915233620002e0565b5050601680546001600160a01b0319163317905550620006c992505050565b6200021a620002f0565b156200023a5760405162461bcd60e51b8152600401620000cc9062000615565b600a805460ff191660011790557f62e78cea01bee320cd4e420270b5ea74000d11b0c9f74754ebdbfc544b05a25862000272620002f9565b60405162000281919062000601565b60405180910390a1565b60006200029883620002fd565b6000848152600b6020526040808220600101859055519192508391839186917fbd79b86ffe0ab8e8776151514217cd7cacd52c909f66475c3af44e129f0b00ff9190a4505050565b620002ec828262000315565b5050565b600a5460ff1690565b3390565b6000818152600b60205260409020600101545b919050565b620003218282620003a1565b620002ec576000828152600b602090815260408083206001600160a01b03851684529091529020805460ff191660011790556200035d620002f9565b6001600160a01b0316816001600160a01b0316837f2f8788117e7eff1d82e926ec794901d17c78024a50270940304540a733656f0d60405160405180910390a45050565b6000918252600b602090815260408084206001600160a01b0393909316845291905290205460ff1690565b828054620003da9062000676565b90600052602060002090601f016020900481019282620003fe576000855562000449565b82601f106200041957805160ff191683800117855562000449565b8280016001018555821562000449579182015b82811115620004495782518255916020019190600101906200042c565b50620004579291506200045b565b5090565b5b808211156200045757600081556001016200045c565b80516001600160a01b03811681146200031057600080fd5b600082601f8301126200049b578081fd5b81516001600160401b0380821115620004b857620004b8620006b3565b6040516020601f8401601f1916820181018381118382101715620004e057620004e0620006b3565b6040528382528584018101871015620004f7578485fd5b8492505b838310156200051a5785830181015182840182015291820191620004fb565b838311156200052b57848185840101525b5095945050505050565b60008060008060008060c087890312156200054e578182fd5b865161ffff8116811462000560578283fd5b60208801519096506001600160401b03808211156200057d578384fd5b6200058b8a838b016200048a565b96506200059b60408a0162000472565b9550620005ab60608a0162000472565b94506080890151915080821115620005c1578384fd5b620005cf8a838b016200048a565b935060a0890151915080821115620005e5578283fd5b50620005f489828a016200048a565b9150509295509295509295565b6001600160a01b0391909116815260200190565b60208082526010908201526f14185d5cd8589b194e881c185d5cd95960821b604082015260600190565b6020808252601d908201527f526f79616c747920747265617375727920697320302061646472657373000000604082015260600190565b6002810460018216806200068b57607f821691505b60208210811415620006ad57634e487b7160e01b600052602260045260246000fd5b50919050565b634e487b7160e01b600052604160045260246000fd5b61382780620006d96000396000f3fe6080604052600436106102815760003560e01c8063696d15b11161014f578063a9c47d12116100c1578063e8a3d4851161007a578063e8a3d485146107b0578063e985e9c5146107c5578063e9a7a546146107e5578063ed353b7f14610805578063f815c33914610825578063fd2e997e14610845576102b1565b8063a9c47d12146106f0578063b88d4fde14610710578063c87b56dd14610730578063cdb88ad114610750578063d547741f14610770578063d85c1e7e14610790576102b1565b806391d148541161011357806391d1485414610646578063938e3d7b1461066657806395d89b41146106865780639fa2c21b1461069b578063a217fddf146106bb578063a22cb465146106d0576102b1565b8063696d15b1146105c957806370a08231146105de57806374f32450146105fe578063793daa441461061e578063853828b61461063e576102b1565b80632a0acc6a116101f357806342842e0e116101ac57806342842e0e1461050757806342966c6814610527578063438b6300146105475780634f6ccce7146105745780635c975abb146105945780636352211e146105a9576102b1565b80632a0acc6a146104445780632a55205a146104595780632f2ff15d146104875780632f745c59146104a757806336568abe146104c75780633b98a7df146104e7576102b1565b806318057bb81161024557806318057bb81461037257806318160ddd146103945780631a0263ab146103b657806323b872dd146103d6578063248a9ca3146103f6578063260d68fa14610416576102b1565b806301ffc9a7146102b657806305e9ca9b146102ec57806306fdde031461030e578063081812fc14610330578063095ea7b314610350576102b1565b366102b1576040517fe554fffbd0e5c2a35b0a24fef85d4297554111caf74cc33cb4cc85a117bbe6e090600090a1005b600080fd5b3480156102c257600080fd5b506102d66102d1366004612a8c565b610865565b6040516102e39190612e03565b60405180910390f35b3480156102f857600080fd5b50610301610892565b6040516102e39190612d55565b34801561031a57600080fd5b506103236108a1565b6040516102e39190612e17565b34801561033c57600080fd5b5061030161034b366004612a50565b610933565b34801561035c57600080fd5b5061037061036b366004612935565b61097f565b005b34801561037e57600080fd5b50610387610a17565b6040516102e391906135b7565b3480156103a057600080fd5b506103a9610a21565b6040516102e39190612e0e565b3480156103c257600080fd5b506103706103d1366004612bb9565b610a27565b3480156103e257600080fd5b506103706103f1366004612805565b610a70565b34801561040257600080fd5b506103a9610411366004612a50565b610aa8565b34801561042257600080fd5b50610436610431366004612a50565b610abd565b6040516102e39291906135c6565b34801561045057600080fd5b506103a9610b2a565b34801561046557600080fd5b50610479610474366004612b98565b610b3c565b6040516102e3929190612da6565b34801561049357600080fd5b506103706104a2366004612a68565b610b98565b3480156104b357600080fd5b506103a96104c2366004612935565b610bb7565b3480156104d357600080fd5b506103706104e2366004612a68565b610c09565b3480156104f357600080fd5b506103706105023660046127b1565b610c4f565b34801561051357600080fd5b50610370610522366004612805565b610cb3565b34801561053357600080fd5b50610370610542366004612a50565b610cce565b34801561055357600080fd5b506105676105623660046127b1565b610cf2565b6040516102e39190612dbf565b34801561058057600080fd5b506103a961058f366004612a50565b610db0565b3480156105a057600080fd5b506102d6610e0b565b3480156105b557600080fd5b506103016105c4366004612a50565b610e14565b3480156105d557600080fd5b506103a9610e49565b3480156105ea57600080fd5b506103a96105f93660046127b1565b610e6d565b34801561060a57600080fd5b5061037061061936600461298b565b610eb1565b34801561062a57600080fd5b50610370610639366004612960565b610f23565b6103706110cf565b34801561065257600080fd5b506102d6610661366004612a68565b6111a1565b34801561067257600080fd5b50610370610681366004612ac4565b6111cc565b34801561069257600080fd5b506103236111f3565b3480156106a757600080fd5b506103706106b6366004612935565b611202565b3480156106c757600080fd5b506103a96113a5565b3480156106dc57600080fd5b506103706106eb366004612901565b6113aa565b3480156106fc57600080fd5b5061037061070b366004612ac4565b611478565b34801561071c57600080fd5b5061037061072b366004612845565b61149f565b34801561073c57600080fd5b5061032361074b366004612a50565b6114d8565b34801561075c57600080fd5b5061037061076b366004612a36565b61156d565b34801561077c57600080fd5b5061037061078b366004612a68565b6115ca565b34801561079c57600080fd5b506102d66107ab366004612a50565b6115e9565b3480156107bc57600080fd5b50610323611600565b3480156107d157600080fd5b506102d66107e03660046127cd565b61168e565b3480156107f157600080fd5b50610370610800366004612b31565b6116bc565b34801561081157600080fd5b50610370610820366004612b53565b6116f0565b34801561083157600080fd5b50610370610840366004612ac4565b61172a565b34801561085157600080fd5b506103a9610860366004612a50565b611751565b60006001600160e01b0319821663152a902d60e11b148061088a575061088a826117b1565b90505b919050565b6011546001600160a01b031681565b6060600080546108b0906136d8565b80601f01602080910402602001604051908101604052809291908181526020018280546108dc906136d8565b80156109295780601f106108fe57610100808354040283529160200191610929565b820191906000526020600020905b81548152906001019060200180831161090c57829003601f168201915b5050505050905090565b600061093e826117d6565b6109635760405162461bcd60e51b815260040161095a90613338565b60405180910390fd5b506000908152600460205260409020546001600160a01b031690565b600061098a82610e14565b9050806001600160a01b0316836001600160a01b031614156109be5760405162461bcd60e51b815260040161095a906133fc565b806001600160a01b03166109d06117f3565b6001600160a01b031614806109ec57506109ec816107e06117f3565b610a085760405162461bcd60e51b815260040161095a90613213565b610a1283836117f7565b505050565b600d5461ffff1681565b60085490565b6000805160206137d2833981519152610a4781610a426117f3565b611865565b60ff831660009081526012602090815260409091208351610a6a92850190612636565b50505050565b610a81610a7b6117f3565b826118c9565b610a9d5760405162461bcd60e51b815260040161095a9061343d565b610a1283838361194e565b6000908152600b602052604090206001015490565b600080610ac9836117d6565b610ae55760405162461bcd60e51b815260040161095a90613143565b610aee836115e9565b610b0a5760405162461bcd60e51b815260040161095a906131bd565b50506000908152601460205260409020805460019091015460ff90911691565b6000805160206137d283398151915281565b60008060008311610b5f5760405162461bcd60e51b815260040161095a90613057565b601154600d546001600160a01b039091169061271090610b839061ffff168661365f565b610b8d919061364b565b915091509250929050565b610ba182610aa8565b610bad81610a426117f3565b610a128383611a7b565b6000610bc283610e6d565b8210610be05760405162461bcd60e51b815260040161095a90612f5a565b506001600160a01b03919091166000908152600660209081526040808320938352929052205490565b610c116117f3565b6001600160a01b0316816001600160a01b031614610c415760405162461bcd60e51b815260040161095a90613568565b610c4b8282611b02565b5050565b6000805160206137d2833981519152610c6a81610a426117f3565b6001600160a01b038216610c905760405162461bcd60e51b815260040161095a906133cd565b50601180546001600160a01b0319166001600160a01b0392909216919091179055565b610a128383836040518060200160405280600081525061149f565b6000805160206137d2833981519152610ce981610a426117f3565b610c4b82611b87565b60606000610cff83610e6d565b905060008167ffffffffffffffff811115610d2a57634e487b7160e01b600052604160045260246000fd5b604051908082528060200260200182016040528015610d53578160200160208202803683370190505b50905060005b82811015610da857610d6b8582610bb7565b828281518110610d8b57634e487b7160e01b600052603260045260246000fd5b602090810291909101015280610da081613735565b915050610d59565b509392505050565b6000610dba610a21565b8210610dd85760405162461bcd60e51b815260040161095a9061348e565b60088281548110610df957634e487b7160e01b600052603260045260246000fd5b90600052602060002001549050919050565b600a5460ff1690565b6000818152600260205260408120546001600160a01b03168061088a5760405162461bcd60e51b815260040161095a906132ba565b7fa8a81aa6ba1dbc812c33fd7ffef136dbca329ccc952397fcb9e5b494103ea5bb81565b60006001600160a01b038216610e955760405162461bcd60e51b815260040161095a90613270565b506001600160a01b031660009081526003602052604090205490565b6000805160206137d2833981519152610ecc81610a426117f3565b60005b83518161ffff161015610a6a57610f11848261ffff1681518110610f0357634e487b7160e01b600052603260045260246000fd5b602002602001015184610f23565b80610f1b81613713565b915050610ecf565b7fa8a81aa6ba1dbc812c33fd7ffef136dbca329ccc952397fcb9e5b494103ea5bb610f5081610a426117f3565b60008260ff1611610f735760405162461bcd60e51b815260040161095a906134da565b60ff8216600090815260126020526040902054610fa25760405162461bcd60e51b815260040161095a906130fe565b60ff8216600090815260126020526040812054610fc19060019061367e565b90506000610fcd611bba565b905060405180604001604052808560ff168152602001601260008760ff1660ff168152602001908152602001600020848154811061101b57634e487b7160e01b600052603260045260246000fd5b6000918252602080832091909101549092528381526014825260408082208451815460ff191660ff91821617825594840151600190910155928716815260129091522080548061107b57634e487b7160e01b600052603160045260246000fd5b60019003818190600052602060002001600090559055807f5953caea6cc62d91f9a883e1a8750b8ef0ad124df981377e875db39f64a0dca260405160405180910390a26110c88582611bd5565b5050505050565b6000805160206137d28339815191526110ea81610a426117f3565b47806110f557600080fd5b60405142907feede8f531dfe8867abb4d42c23573eb3fb93a5b7779d3f0bf3a86ce1c724985390600090a26016546040516000916001600160a01b031690839061113e90612cdd565b60006040518083038185875af1925050503d806000811461117b576040519150601f19603f3d011682016040523d82523d6000602084013e611180565b606091505b5050905080610a125760405162461bcd60e51b815260040161095a9061302e565b6000918252600b602090815260408084206001600160a01b0393909316845291905290205460ff1690565b6000805160206137d28339815191526111e781610a426117f3565b610a6a600e8484612681565b6060600180546108b0906136d8565b61120b816117d6565b6112275760405162461bcd60e51b815260040161095a90613143565b3361123182610e14565b6001600160a01b0316148061125957506112596000805160206137d2833981519152336111a1565b6112755760405162461bcd60e51b815260040161095a90612ed8565b61127e816115e9565b61129a5760405162461bcd60e51b815260040161095a906131bd565b600081815260146020908152604080832060010154835260138252808320805482518185028101850190935280835291929091908301828280156112fd57602002820191906000526020600020905b8154815260200190600101908083116112e9575b5050505050905060008151116113255760405162461bcd60e51b815260040161095a90613531565b60005b8151811015611374576113628483838151811061135557634e487b7160e01b600052603260045260246000fd5b6020026020010151611bef565b8061136c81613735565b915050611328565b5060008281526014602090815260408083206001015483526013909152812061139c916126f5565b610a1282611b87565b600081565b6113b26117f3565b6001600160a01b0316826001600160a01b031614156113e35760405162461bcd60e51b815260040161095a906130c7565b80600560006113f06117f3565b6001600160a01b03908116825260208083019390935260409182016000908120918716808252919093529120805460ff1916921515929092179091556114346117f3565b6001600160a01b03167f17307eab39ab6107e8899845ad3d59bd9653f200f220920489ca2b5937696c318360405161146c9190612e03565b60405180910390a35050565b6000805160206137d283398151915261149381610a426117f3565b610a6a60108484612681565b6114b06114aa6117f3565b836118c9565b6114cc5760405162461bcd60e51b815260040161095a9061343d565b610a6a84848484611c3f565b60606114e3826117d6565b6114ff5760405162461bcd60e51b815260040161095a90612f23565b611508826115e9565b1561155257600082815260146020526040902054600f9061152b9060ff16611c72565b60405160200161153c929190612c37565b604051602081830303815290604052905061088d565b60008281526015602052604090205460109061152b90611c72565b6000805160206137d283398151915261158881610a426117f3565b81801561159a5750611598610e0b565b155b156115ac576115a7611d8d565b610c4b565b811580156115bd57506115bd610e0b565b15610c4b57610c4b611dff565b6115d382610aa8565b6115df81610a426117f3565b610a128383611b02565b600090815260146020526040902060010154151590565b600e805461160d906136d8565b80601f0160208091040260200160405190810160405280929190818152602001828054611639906136d8565b80156116865780601f1061165b57610100808354040283529160200191611686565b820191906000526020600020905b81548152906001019060200180831161166957829003601f168201915b505050505081565b6001600160a01b03918216600090815260056020908152604080832093909416825291909152205460ff1690565b6000805160206137d28339815191526116d781610a426117f3565b50600d805461ffff191661ffff92909216919091179055565b6000805160206137d283398151915261170b81610a426117f3565b60008381526013602090815260409091208351610a6a92850190612636565b6000805160206137d283398151915261174581610a426117f3565b610a6a600f8484612681565b600061175c826117d6565b6117785760405162461bcd60e51b815260040161095a90613143565b611781826115e9565b1561179e5760405162461bcd60e51b815260040161095a90613504565b5060009081526015602052604090205490565b60006001600160e01b03198216637965db0b60e01b148061088a575061088a82611e56565b6000908152600260205260409020546001600160a01b0316151590565b3390565b600081815260046020526040902080546001600160a01b0319166001600160a01b038416908117909155819061182c82610e14565b6001600160a01b03167f8c5be1e5ebec7d5bd14f71427d1e84f3dd0314c0f7b2291e5b200ac8c7c3b92560405160405180910390a45050565b61186f82826111a1565b610c4b57611887816001600160a01b03166014611e7b565b611892836020611e7b565b6040516020016118a3929190612ce0565b60408051601f198184030181529082905262461bcd60e51b825261095a91600401612e17565b60006118d4826117d6565b6118f05760405162461bcd60e51b815260040161095a90613171565b60006118fb83610e14565b9050806001600160a01b0316846001600160a01b031614806119365750836001600160a01b031661192b84610933565b6001600160a01b0316145b806119465750611946818561168e565b949350505050565b826001600160a01b031661196182610e14565b6001600160a01b0316146119875760405162461bcd60e51b815260040161095a90613384565b6001600160a01b0382166119ad5760405162461bcd60e51b815260040161095a90613083565b6119b8838383612034565b6119c36000826117f7565b6001600160a01b03831660009081526003602052604081208054600192906119ec90849061367e565b90915550506001600160a01b0382166000908152600360205260408120805460019290611a1a908490613633565b909155505060008181526002602052604080822080546001600160a01b0319166001600160a01b0386811691821790925591518493918716917fddf252ad1be2c89b69c2b068fc378daa952ba7f163c4a11628f55a4df523b3ef91a4505050565b611a8582826111a1565b610c4b576000828152600b602090815260408083206001600160a01b03851684529091529020805460ff19166001179055611abe6117f3565b6001600160a01b0316816001600160a01b0316837f2f8788117e7eff1d82e926ec794901d17c78024a50270940304540a733656f0d60405160405180910390a45050565b611b0c82826111a1565b15610c4b576000828152600b602090815260408083206001600160a01b03851684529091529020805460ff19169055611b436117f3565b6001600160a01b0316816001600160a01b0316837ff6391f5c32d9c69d2a47ea670b442974b53935d1edc7fd64eb21e047a839171b60405160405180910390a45050565b6000818152601460209081526040808320805460ff191681556001018390556015909152812055611bb78161203f565b50565b6000611bc6600c6120e6565b611bd0600c6120ef565b905090565b610c4b8282604051806020016040528060008152506120f3565b6000611bf9611bba565b6000818152601560205260408082208590555191925082917fdfe3e57736ff136c528786ad701a1b04e118a2c7a62a61f5fd8ea48b8729ea239190a2610a128382611bd5565b611c4a84848461194e565b611c5684848484612126565b610a6a5760405162461bcd60e51b815260040161095a90612fa5565b606081611c9757506040805180820190915260018152600360fc1b602082015261088d565b8160005b8115611cc15780611cab81613735565b9150611cba9050600a8361364b565b9150611c9b565b60008167ffffffffffffffff811115611cea57634e487b7160e01b600052604160045260246000fd5b6040519080825280601f01601f191660200182016040528015611d14576020820181803683370190505b5090505b841561194657611d2960018361367e565b9150611d36600a86613750565b611d41906030613633565b60f81b818381518110611d6457634e487b7160e01b600052603260045260246000fd5b60200101906001600160f81b031916908160001a905350611d86600a8661364b565b9450611d18565b611d95610e0b565b15611db25760405162461bcd60e51b815260040161095a906131e9565b600a805460ff191660011790557f62e78cea01bee320cd4e420270b5ea74000d11b0c9f74754ebdbfc544b05a258611de86117f3565b604051611df59190612d55565b60405180910390a1565b611e07610e0b565b611e235760405162461bcd60e51b815260040161095a90612eaa565b600a805460ff191690557f5db9ee0a495bf2e6ff9c91a7834c1ba4fdd244a5e8aa4e537bd38aeae4b073aa611de86117f3565b60006001600160e01b0319821663780e9d6360e01b148061088a575061088a82612241565b60606000611e8a83600261365f565b611e95906002613633565b67ffffffffffffffff811115611ebb57634e487b7160e01b600052604160045260246000fd5b6040519080825280601f01601f191660200182016040528015611ee5576020820181803683370190505b509050600360fc1b81600081518110611f0e57634e487b7160e01b600052603260045260246000fd5b60200101906001600160f81b031916908160001a905350600f60fb1b81600181518110611f4b57634e487b7160e01b600052603260045260246000fd5b60200101906001600160f81b031916908160001a9053506000611f6f84600261365f565b611f7a906001613633565b90505b600181111561200e576f181899199a1a9b1b9c1cb0b131b232b360811b85600f1660108110611fbc57634e487b7160e01b600052603260045260246000fd5b1a60f81b828281518110611fe057634e487b7160e01b600052603260045260246000fd5b60200101906001600160f81b031916908160001a90535060049490941c93612007816136c1565b9050611f7d565b50831561202d5760405162461bcd60e51b815260040161095a90612e2a565b9392505050565b610a12838383612281565b600061204a82610e14565b905061205881600084612034565b6120636000836117f7565b6001600160a01b038116600090815260036020526040812080546001929061208c90849061367e565b909155505060008281526002602052604080822080546001600160a01b0319169055518391906001600160a01b038416907fddf252ad1be2c89b69c2b068fc378daa952ba7f163c4a11628f55a4df523b3ef908390a45050565b80546001019055565b5490565b6120fd83836122b1565b61210a6000848484612126565b610a125760405162461bcd60e51b815260040161095a90612fa5565b600061213a846001600160a01b0316612390565b1561223657836001600160a01b031663150b7a026121566117f3565b8786866040518563ffffffff1660e01b81526004016121789493929190612d69565b602060405180830381600087803b15801561219257600080fd5b505af19250505080156121c2575060408051601f3d908101601f191682019092526121bf91810190612aa8565b60015b61221c573d8080156121f0576040519150601f19603f3d011682016040523d82523d6000602084013e6121f5565b606091505b5080516122145760405162461bcd60e51b815260040161095a90612fa5565b805181602001fd5b6001600160e01b031916630a85bd0160e11b149050611946565b506001949350505050565b60006001600160e01b031982166380ac58cd60e01b148061227257506001600160e01b03198216635b5e139f60e01b145b8061088a575061088a82612396565b61228c8383836123af565b612294610e0b565b15610a125760405162461bcd60e51b815260040161095a90612e5f565b6001600160a01b0382166122d75760405162461bcd60e51b815260040161095a90613303565b6122e0816117d6565b156122fd5760405162461bcd60e51b815260040161095a90612ff7565b61230960008383612034565b6001600160a01b0382166000908152600360205260408120805460019290612332908490613633565b909155505060008181526002602052604080822080546001600160a01b0319166001600160a01b03861690811790915590518392907fddf252ad1be2c89b69c2b068fc378daa952ba7f163c4a11628f55a4df523b3ef908290a45050565b3b151590565b6001600160e01b031981166301ffc9a760e01b14919050565b6123ba838383610a12565b6001600160a01b0383166123d6576123d181612438565b6123f9565b816001600160a01b0316836001600160a01b0316146123f9576123f9838261247c565b6001600160a01b0382166124155761241081612519565b610a12565b826001600160a01b0316826001600160a01b031614610a1257610a1282826125f2565b600880546000838152600960205260408120829055600182018355919091527ff3f7a9fe364faab93b216da50a3214154f22a0a2b415b23a84c8169e8b636ee30155565b6000600161248984610e6d565b612493919061367e565b6000838152600760205260409020549091508082146124e6576001600160a01b03841660009081526006602090815260408083208584528252808320548484528184208190558352600790915290208190555b5060009182526007602090815260408084208490556001600160a01b039094168352600681528383209183525290812055565b60085460009061252b9060019061367e565b6000838152600960205260408120546008805493945090928490811061256157634e487b7160e01b600052603260045260246000fd5b90600052602060002001549050806008838154811061259057634e487b7160e01b600052603260045260246000fd5b60009182526020808320909101929092558281526009909152604080822084905585825281205560088054806125d657634e487b7160e01b600052603160045260246000fd5b6001900381819060005260206000200160009055905550505050565b60006125fd83610e6d565b6001600160a01b039093166000908152600660209081526040808320868452825280832085905593825260079052919091209190915550565b828054828255906000526020600020908101928215612671579160200282015b82811115612671578251825591602001919060010190612656565b5061267d92915061270f565b5090565b82805461268d906136d8565b90600052602060002090601f0160209004810192826126af5760008555612671565b82601f106126c85782800160ff19823516178555612671565b82800160010185558215612671579182015b828111156126715782358255916020019190600101906126da565b5080546000825590600052602060002090810190611bb791905b5b8082111561267d5760008155600101612710565b600082601f830112612734578081fd5b8135602061274961274483613603565b6135d9565b8281528181019085830183850287018401881015612765578586fd5b855b8581101561278357813584529284019290840190600101612767565b5090979650505050505050565b8035801515811461088d57600080fd5b803560ff8116811461088d57600080fd5b6000602082840312156127c2578081fd5b813561202d816137a6565b600080604083850312156127df578081fd5b82356127ea816137a6565b915060208301356127fa816137a6565b809150509250929050565b600080600060608486031215612819578081fd5b8335612824816137a6565b92506020840135612834816137a6565b929592945050506040919091013590565b6000806000806080858703121561285a578081fd5b8435612865816137a6565b9350602085810135612876816137a6565b935060408601359250606086013567ffffffffffffffff80821115612899578384fd5b818801915088601f8301126128ac578384fd5b8135818111156128be576128be613790565b6128d0601f8201601f191685016135d9565b915080825289848285010111156128e5578485fd5b8084840185840137810190920192909252939692955090935050565b60008060408385031215612913578182fd5b823561291e816137a6565b915061292c60208401612790565b90509250929050565b60008060408385031215612947578182fd5b8235612952816137a6565b946020939093013593505050565b60008060408385031215612972578182fd5b823561297d816137a6565b915061292c602084016127a0565b6000806040838503121561299d578182fd5b823567ffffffffffffffff8111156129b3578283fd5b8301601f810185136129c3578283fd5b803560206129d361274483613603565b82815281810190848301838502860184018a10156129ef578788fd5b8795505b84861015612a1a578035612a06816137a6565b8352600195909501949183019183016129f3565b509550612a2a90508682016127a0565b93505050509250929050565b600060208284031215612a47578081fd5b61202d82612790565b600060208284031215612a61578081fd5b5035919050565b60008060408385031215612a7a578182fd5b8235915060208301356127fa816137a6565b600060208284031215612a9d578081fd5b813561202d816137bb565b600060208284031215612ab9578081fd5b815161202d816137bb565b60008060208385031215612ad6578182fd5b823567ffffffffffffffff80821115612aed578384fd5b818501915085601f830112612b00578384fd5b813581811115612b0e578485fd5b866020828501011115612b1f578485fd5b60209290920196919550909350505050565b600060208284031215612b42578081fd5b813561ffff8116811461202d578182fd5b60008060408385031215612b65578182fd5b82359150602083013567ffffffffffffffff811115612b82578182fd5b612b8e85828601612724565b9150509250929050565b60008060408385031215612baa578182fd5b50508035926020909101359150565b60008060408385031215612bcb578182fd5b612bd4836127a0565b9150602083013567ffffffffffffffff811115612b82578182fd5b60008151808452612c07816020860160208601613695565b601f01601f19169290920160200192915050565b60008151612c2d818560208601613695565b9290920192915050565b8254600090819060028104600180831680612c5357607f831692505b6020808410821415612c7357634e487b7160e01b87526022600452602487fd5b818015612c875760018114612c9857612cc4565b60ff19861689528489019650612cc4565b612ca18b613627565b885b86811015612cbc5781548b820152908501908301612ca3565b505084890196505b505050505050612cd48185612c1b565b95945050505050565b90565b60007f416363657373436f6e74726f6c3a206163636f756e742000000000000000000082528351612d18816017850160208801613695565b7001034b99036b4b9b9b4b733903937b6329607d1b6017918401918201528351612d49816028840160208801613695565b01602801949350505050565b6001600160a01b0391909116815260200190565b6001600160a01b0385811682528416602082015260408101839052608060608201819052600090612d9c90830184612bef565b9695505050505050565b6001600160a01b03929092168252602082015260400190565b6020808252825182820181905260009190848201906040850190845b81811015612df757835183529284019291840191600101612ddb565b50909695505050505050565b901515815260200190565b90815260200190565b60006020825261202d6020830184612bef565b6020808252818101527f537472696e67733a20686578206c656e67746820696e73756666696369656e74604082015260600190565b6020808252602b908201527f4552433732315061757361626c653a20746f6b656e207472616e73666572207760408201526a1a1a5b19481c185d5cd95960aa1b606082015260800190565b60208082526014908201527314185d5cd8589b194e881b9bdd081c185d5cd95960621b604082015260600190565b6020808252602b908201527f53656e64657220646f6573206e6f742068617665207065726d697373696f6e2060408201526a0e8de40dee0cadc40c4def60ab1b606082015260800190565b6020808252601f908201527f55524920717565727920666f72206e6f6e6578697374656e7420746f6b656e00604082015260600190565b6020808252602b908201527f455243373231456e756d657261626c653a206f776e657220696e646578206f7560408201526a74206f6620626f756e647360a81b606082015260800190565b60208082526032908201527f4552433732313a207472616e7366657220746f206e6f6e20455243373231526560408201527131b2b4bb32b91034b6b83632b6b2b73a32b960711b606082015260800190565b6020808252601c908201527f4552433732313a20746f6b656e20616c7265616479206d696e74656400000000604082015260600190565b6020808252600f908201526e15da5d1a191c985dc819985a5b1959608a1b604082015260600190565b602080825260129082015271496e76616c69642073616c6520707269636560701b604082015260600190565b60208082526024908201527f4552433732313a207472616e7366657220746f20746865207a65726f206164646040820152637265737360e01b606082015260800190565b60208082526019908201527f4552433732313a20617070726f766520746f2063616c6c657200000000000000604082015260600190565b60208082526025908201527f426f78657320666f722073656c65637465642074696572206e6f7420617661696040820152646c61626c6560d81b606082015260800190565b602080825260149082015273151bdad95b88191bd95cc81b9bdd08195e1a5cdd60621b604082015260600190565b6020808252602c908201527f4552433732313a206f70657261746f7220717565727920666f72206e6f6e657860408201526b34b9ba32b73a103a37b5b2b760a11b606082015260800190565b6020808252601290820152710a8ded6cadc40d2e640dcdee840c240c4def60731b604082015260600190565b60208082526010908201526f14185d5cd8589b194e881c185d5cd95960821b604082015260600190565b60208082526038908201527f4552433732313a20617070726f76652063616c6c6572206973206e6f74206f7760408201527f6e6572206e6f7220617070726f76656420666f7220616c6c0000000000000000606082015260800190565b6020808252602a908201527f4552433732313a2062616c616e636520717565727920666f7220746865207a65604082015269726f206164647265737360b01b606082015260800190565b60208082526029908201527f4552433732313a206f776e657220717565727920666f72206e6f6e657869737460408201526832b73a103a37b5b2b760b91b606082015260800190565b6020808252818101527f4552433732313a206d696e7420746f20746865207a65726f2061646472657373604082015260600190565b6020808252602c908201527f4552433732313a20617070726f76656420717565727920666f72206e6f6e657860408201526b34b9ba32b73a103a37b5b2b760a11b606082015260800190565b60208082526029908201527f4552433732313a207472616e73666572206f6620746f6b656e2074686174206960408201526839903737ba1037bbb760b91b606082015260800190565b60208082526015908201527454726561737572792069732030206164647265737360581b604082015260600190565b60208082526021908201527f4552433732313a20617070726f76616c20746f2063757272656e74206f776e656040820152603960f91b606082015260800190565b60208082526031908201527f4552433732313a207472616e736665722063616c6c6572206973206e6f74206f6040820152701ddb995c881b9bdc88185c1c1c9bdd9959607a1b606082015260800190565b6020808252602c908201527f455243373231456e756d657261626c653a20676c6f62616c20696e646578206f60408201526b7574206f6620626f756e647360a01b606082015260800190565b60208082526010908201526f24b73b30b634b2103137bc103a34b2b960811b604082015260600190565b602080825260139082015272546f6b656e206973206e6f742061206974656d60681b604082015260600190565b60208082526019908201527f426f7820686173206e6f206174746163686564206974656d7300000000000000604082015260600190565b6020808252602f908201527f416363657373436f6e74726f6c3a2063616e206f6e6c792072656e6f756e636560408201526e103937b632b9903337b91039b2b63360891b606082015260800190565b61ffff91909116815260200190565b60ff929092168252602082015260400190565b60405181810167ffffffffffffffff811182821017156135fb576135fb613790565b604052919050565b600067ffffffffffffffff82111561361d5761361d613790565b5060209081020190565b60009081526020902090565b6000821982111561364657613646613764565b500190565b60008261365a5761365a61377a565b500490565b600081600019048311821515161561367957613679613764565b500290565b60008282101561369057613690613764565b500390565b60005b838110156136b0578181015183820152602001613698565b83811115610a6a5750506000910152565b6000816136d0576136d0613764565b506000190190565b6002810460018216806136ec57607f821691505b6020821081141561370d57634e487b7160e01b600052602260045260246000fd5b50919050565b600061ffff8083168181141561372b5761372b613764565b6001019392505050565b600060001982141561374957613749613764565b5060010190565b60008261375f5761375f61377a565b500690565b634e487b7160e01b600052601160045260246000fd5b634e487b7160e01b600052601260045260246000fd5b634e487b7160e01b600052604160045260246000fd5b6001600160a01b0381168114611bb757600080fd5b6001600160e01b031981168114611bb757600080fdfedf8b4c520ffe197c5343c6f5aec59570151ef9a492f2c624fd45ddde6135ec42a26469706673582212205ba6da91f39e5ae7e70201031c5b6d610928157e51a2000d271bf34d67ca196464736f6c63430008000033df8b4c520ffe197c5343c6f5aec59570151ef9a492f2c624fd45ddde6135ec42a8a81aa6ba1dbc812c33fd7ffef136dbca329ccc952397fcb9e5b494103ea5bb",
  "devdoc": {
    "kind": "dev",
    "methods": {
      "approve(address,uint256)": {
        "details": "See {IERC721-approve}."
      },
      "balanceOf(address)": {
        "details": "See {IERC721-balanceOf}."
      },
      "getApproved(uint256)": {
        "details": "See {IERC721-getApproved}."
      },
      "getRoleAdmin(bytes32)": {
        "details": "Returns the admin role that controls `role`. See {grantRole} and {revokeRole}. To change a role's admin, use {_setRoleAdmin}."
      },
      "grantRole(bytes32,address)": {
        "details": "Grants `role` to `account`. If `account` had not been already granted `role`, emits a {RoleGranted} event. Requirements: - the caller must have ``role``'s admin role."
      },
      "hasRole(bytes32,address)": {
        "details": "Returns `true` if `account` has been granted `role`."
      },
      "isApprovedForAll(address,address)": {
        "details": "See {IERC721-isApprovedForAll}."
      },
      "name()": {
        "details": "See {IERC721Metadata-name}."
      },
      "ownerOf(uint256)": {
        "details": "See {IERC721-ownerOf}."
      },
      "paused()": {
        "details": "Returns true if the contract is paused, and false otherwise."
      },
      "renounceRole(bytes32,address)": {
        "details": "Revokes `role` from the calling account. Roles are often managed via {grantRole} and {revokeRole}: this function's purpose is to provide a mechanism for accounts to lose their privileges if they are compromised (such as when a trusted device is misplaced). If the calling account had been granted `role`, emits a {RoleRevoked} event. Requirements: - the caller must be `account`."
      },
      "revokeRole(bytes32,address)": {
        "details": "Revokes `role` from `account`. If `account` had been granted `role`, emits a {RoleRevoked} event. Requirements: - the caller must have ``role``'s admin role."
      },
      "safeTransferFrom(address,address,uint256)": {
        "details": "See {IERC721-safeTransferFrom}."
      },
      "safeTransferFrom(address,address,uint256,bytes)": {
        "details": "See {IERC721-safeTransferFrom}."
      },
      "setApprovalForAll(address,bool)": {
        "details": "See {IERC721-setApprovalForAll}."
      },
      "symbol()": {
        "details": "See {IERC721Metadata-symbol}."
      },
      "tokenByIndex(uint256)": {
        "details": "See {IERC721Enumerable-tokenByIndex}."
      },
      "tokenOfOwnerByIndex(address,uint256)": {
        "details": "See {IERC721Enumerable-tokenOfOwnerByIndex}."
      },
      "tokenURI(uint256)": {
        "details": "See {IERC721Metadata-tokenURI}."
      },
      "totalSupply()": {
        "details": "See {IERC721Enumerable-totalSupply}."
      },
      "transferFrom(address,address,uint256)": {
        "details": "See {IERC721-transferFrom}."
      }
    },
    "version": 1
  },
  "userdoc": {
    "kind": "user",
    "methods": {},
    "version": 1
  },
  "storageLayout": {
    "storage": [
      {
        "astId": 1272,
        "contract": "contracts/loot-box.sol:NuttyLoot",
        "label": "_name",
        "offset": 0,
        "slot": "0",
        "type": "t_string_storage"
      },
      {
        "astId": 1274,
        "contract": "contracts/loot-box.sol:NuttyLoot",
        "label": "_symbol",
        "offset": 0,
        "slot": "1",
        "type": "t_string_storage"
      },
      {
        "astId": 1278,
        "contract": "contracts/loot-box.sol:NuttyLoot",
        "label": "_owners",
        "offset": 0,
        "slot": "2",
        "type": "t_mapping(t_uint256,t_address)"
      },
      {
        "astId": 1282,
        "contract": "contracts/loot-box.sol:NuttyLoot",
        "label": "_balances",
        "offset": 0,
        "slot": "3",
        "type": "t_mapping(t_address,t_uint256)"
      },
      {
        "astId": 1286,
        "contract": "contracts/loot-box.sol:NuttyLoot",
        "label": "_tokenApprovals",
        "offset": 0,
        "slot": "4",
        "type": "t_mapping(t_uint256,t_address)"
      },
      {
        "astId": 1292,
        "contract": "contracts/loot-box.sol:NuttyLoot",
        "label": "_operatorApprovals",
        "offset": 0,
        "slot": "5",
        "type": "t_mapping(t_address,t_mapping(t_address,t_bool))"
      },
      {
        "astId": 2211,
        "contract": "contracts/loot-box.sol:NuttyLoot",
        "label": "_ownedTokens",
        "offset": 0,
        "slot": "6",
        "type": "t_mapping(t_address,t_mapping(t_uint256,t_uint256))"
      },
      {
        "astId": 2215,
        "contract": "contracts/loot-box.sol:NuttyLoot",
        "label": "_ownedTokensIndex",
        "offset": 0,
        "slot": "7",
        "type": "t_mapping(t_uint256,t_uint256)"
      },
      {
        "astId": 2218,
        "contract": "contracts/loot-box.sol:NuttyLoot",
        "label": "_allTokens",
        "offset": 0,
        "slot": "8",
        "type": "t_array(t_uint256)dyn_storage"
      },
      {
        "astId": 2222,
        "contract": "contracts/loot-box.sol:NuttyLoot",
        "label": "_allTokensIndex",
        "offset": 0,
        "slot": "9",
        "type": "t_mapping(t_uint256,t_uint256)"
      },
      {
        "astId": 523,
        "contract": "contracts/loot-box.sol:NuttyLoot",
        "label": "_paused",
        "offset": 0,
        "slot": "10",
        "type": "t_bool"
      },
      {
        "astId": 24,
        "contract": "contracts/loot-box.sol:NuttyLoot",
        "label": "_roles",
        "offset": 0,
        "slot": "11",
        "type": "t_mapping(t_bytes32,t_struct(RoleData)19_storage)"
      },
      {
        "astId": 3491,
        "contract": "contracts/loot-box.sol:NuttyLoot",
        "label": "_tokenIdTracker",
        "offset": 0,
        "slot": "12",
        "type": "t_struct(Counter)2954_storage"
      },
      {
        "astId": 3493,
        "contract": "contracts/loot-box.sol:NuttyLoot",
        "label": "creatorRoyaltyBP",
        "offset": 0,
        "slot": "13",
        "type": "t_uint16"
      },
      {
        "astId": 3495,
        "contract": "contracts/loot-box.sol:NuttyLoot",
        "label": "contractURI",
        "offset": 0,
        "slot": "14",
        "type": "t_string_storage"
      },
      {
        "astId": 3497,
        "contract": "contracts/loot-box.sol:NuttyLoot",
        "label": "_boxBaseURI",
        "offset": 0,
        "slot": "15",
        "type": "t_string_storage"
      },
      {
        "astId": 3499,
        "contract": "contracts/loot-box.sol:NuttyLoot",
        "label": "_itemBaseURI",
        "offset": 0,
        "slot": "16",
        "type": "t_string_storage"
      },
      {
        "astId": 3501,
        "contract": "contracts/loot-box.sol:NuttyLoot",
        "label": "royaltyTreasury",
        "offset": 0,
        "slot": "17",
        "type": "t_address_payable"
      },
      {
        "astId": 3506,
        "contract": "contracts/loot-box.sol:NuttyLoot",
        "label": "_boxTierToIds",
        "offset": 0,
        "slot": "18",
        "type": "t_mapping(t_uint8,t_array(t_uint256)dyn_storage)"
      },
      {
        "astId": 3511,
        "contract": "contracts/loot-box.sol:NuttyLoot",
        "label": "_boxIdToItems",
        "offset": 0,
        "slot": "19",
        "type": "t_mapping(t_uint256,t_array(t_uint256)dyn_storage)"
      },
      {
        "astId": 3516,
        "contract": "contracts/loot-box.sol:NuttyLoot",
        "label": "_tokenIdToBoxInfo",
        "offset": 0,
        "slot": "20",
        "type": "t_mapping(t_uint256,t_struct(BoxInfo)3484_storage)"
      },
      {
        "astId": 3520,
        "contract": "contracts/loot-box.sol:NuttyLoot",
        "label": "_tokenIdToItemId",
        "offset": 0,
        "slot": "21",
        "type": "t_mapping(t_uint256,t_uint256)"
      },
      {
        "astId": 3546,
        "contract": "contracts/loot-box.sol:NuttyLoot",
        "label": "_owner",
        "offset": 0,
        "slot": "22",
        "type": "t_address_payable"
      }
    ],
    "types": {
      "t_address": {
        "encoding": "inplace",
        "label": "address",
        "numberOfBytes": "20"
      },
      "t_address_payable": {
        "encoding": "inplace",
        "label": "address payable",
        "numberOfBytes": "20"
      },
      "t_array(t_uint256)dyn_storage": {
        "base": "t_uint256",
        "encoding": "dynamic_array",
        "label": "uint256[]",
        "numberOfBytes": "32"
      },
      "t_bool": {
        "encoding": "inplace",
        "label": "bool",
        "numberOfBytes": "1"
      },
      "t_bytes32": {
        "encoding": "inplace",
        "label": "bytes32",
        "numberOfBytes": "32"
      },
      "t_mapping(t_address,t_bool)": {
        "encoding": "mapping",
        "key": "t_address",
        "label": "mapping(address => bool)",
        "numberOfBytes": "32",
        "value": "t_bool"
      },
      "t_mapping(t_address,t_mapping(t_address,t_bool))": {
        "encoding": "mapping",
        "key": "t_address",
        "label": "mapping(address => mapping(address => bool))",
        "numberOfBytes": "32",
        "value": "t_mapping(t_address,t_bool)"
      },
      "t_mapping(t_address,t_mapping(t_uint256,t_uint256))": {
        "encoding": "mapping",
        "key": "t_address",
        "label": "mapping(address => mapping(uint256 => uint256))",
        "numberOfBytes": "32",
        "value": "t_mapping(t_uint256,t_uint256)"
      },
      "t_mapping(t_address,t_uint256)": {
        "encoding": "mapping",
        "key": "t_address",
        "label": "mapping(address => uint256)",
        "numberOfBytes": "32",
        "value": "t_uint256"
      },
      "t_mapping(t_bytes32,t_struct(RoleData)19_storage)": {
        "encoding": "mapping",
        "key": "t_bytes32",
        "label": "mapping(bytes32 => struct AccessControl.RoleData)",
        "numberOfBytes": "32",
        "value": "t_struct(RoleData)19_storage"
      },
      "t_mapping(t_uint256,t_address)": {
        "encoding": "mapping",
        "key": "t_uint256",
        "label": "mapping(uint256 => address)",
        "numberOfBytes": "32",
        "value": "t_address"
      },
      "t_mapping(t_uint256,t_array(t_uint256)dyn_storage)": {
        "encoding": "mapping",
        "key": "t_uint256",
        "label": "mapping(uint256 => uint256[])",
        "numberOfBytes": "32",
        "value": "t_array(t_uint256)dyn_storage"
      },
      "t_mapping(t_uint256,t_struct(BoxInfo)3484_storage)": {
        "encoding": "mapping",
        "key": "t_uint256",
        "label": "mapping(uint256 => struct NuttyLoot.BoxInfo)",
        "numberOfBytes": "32",
        "value": "t_struct(BoxInfo)3484_storage"
      },
      "t_mapping(t_uint256,t_uint256)": {
        "encoding": "mapping",
        "key": "t_uint256",
        "label": "mapping(uint256 => uint256)",
        "numberOfBytes": "32",
        "value": "t_uint256"
      },
      "t_mapping(t_uint8,t_array(t_uint256)dyn_storage)": {
        "encoding": "mapping",
        "key": "t_uint8",
        "label": "mapping(uint8 => uint256[])",
        "numberOfBytes": "32",
        "value": "t_array(t_uint256)dyn_storage"
      },
      "t_string_storage": {
        "encoding": "bytes",
        "label": "string",
        "numberOfBytes": "32"
      },
      "t_struct(BoxInfo)3484_storage": {
        "encoding": "inplace",
        "label": "struct NuttyLoot.BoxInfo",
        "members": [
          {
            "astId": 3481,
            "contract": "contracts/loot-box.sol:NuttyLoot",
            "label": "tier",
            "offset": 0,
            "slot": "0",
            "type": "t_uint8"
          },
          {
            "astId": 3483,
            "contract": "contracts/loot-box.sol:NuttyLoot",
            "label": "id",
            "offset": 0,
            "slot": "1",
            "type": "t_uint256"
          }
        ],
        "numberOfBytes": "64"
      },
      "t_struct(Counter)2954_storage": {
        "encoding": "inplace",
        "label": "struct Counters.Counter",
        "members": [
          {
            "astId": 2953,
            "contract": "contracts/loot-box.sol:NuttyLoot",
            "label": "_value",
            "offset": 0,
            "slot": "0",
            "type": "t_uint256"
          }
        ],
        "numberOfBytes": "32"
      },
      "t_struct(RoleData)19_storage": {
        "encoding": "inplace",
        "label": "struct AccessControl.RoleData",
        "members": [
          {
            "astId": 16,
            "contract": "contracts/loot-box.sol:NuttyLoot",
            "label": "members",
            "offset": 0,
            "slot": "0",
            "type": "t_mapping(t_address,t_bool)"
          },
          {
            "astId": 18,
            "contract": "contracts/loot-box.sol:NuttyLoot",
            "label": "adminRole",
            "offset": 0,
            "slot": "1",
            "type": "t_bytes32"
          }
        ],
        "numberOfBytes": "64"
      },
      "t_uint16": {
        "encoding": "inplace",
        "label": "uint16",
        "numberOfBytes": "2"
      },
      "t_uint256": {
        "encoding": "inplace",
        "label": "uint256",
        "numberOfBytes": "32"
      },
      "t_uint8": {
        "encoding": "inplace",
        "label": "uint8",
        "numberOfBytes": "1"
      }
    }
  }
}