{
  "address": "0xFB4c8c1769E721F0fCfcEe439e241b6944Bc991d",
  "abi": [
    {
      "inputs": [
        {
          "internalType": "uint256",
          "name": "_minMintPrice",
          "type": "uint256"
        },
        {
          "internalType": "uint256",
          "name": "_maxTokensInCurrentDrop",
          "type": "uint256"
        },
        {
          "internalType": "uint16",
          "name": "_maxTokensPerMint",
          "type": "uint16"
        },
        {
          "internalType": "uint16",
          "name": "_maxTokensPerOwner",
          "type": "uint16"
        },
        {
          "internalType": "uint16",
          "name": "_creatorRoyaltyBP",
          "type": "uint16"
        },
        {
          "internalType": "string",
          "name": "_contractURI",
          "type": "string"
        },
        {
          "internalType": "string",
          "name": "_baseTokenURI",
          "type": "string"
        },
        {
          "internalType": "address payable",
          "name": "_royaltyTreasury",
          "type": "address"
        },
        {
          "internalType": "address payable",
          "name": "_mintTreasury",
          "type": "address"
        }
      ],
      "stateMutability": "nonpayable",
      "type": "constructor"
    },
    {
      "anonymous": false,
      "inputs": [
        {
          "indexed": true,
          "internalType": "address",
          "name": "owner",
          "type": "address"
        },
        {
          "indexed": true,
          "internalType": "address",
          "name": "approved",
          "type": "address"
        },
        {
          "indexed": true,
          "internalType": "uint256",
          "name": "tokenId",
          "type": "uint256"
        }
      ],
      "name": "Approval",
      "type": "event"
    },
    {
      "anonymous": false,
      "inputs": [
        {
          "indexed": true,
          "internalType": "address",
          "name": "owner",
          "type": "address"
        },
        {
          "indexed": true,
          "internalType": "address",
          "name": "operator",
          "type": "address"
        },
        {
          "indexed": false,
          "internalType": "bool",
          "name": "approved",
          "type": "bool"
        }
      ],
      "name": "ApprovalForAll",
      "type": "event"
    },
    {
      "anonymous": false,
      "inputs": [
        {
          "indexed": true,
          "internalType": "uint256",
          "name": "time",
          "type": "uint256"
        }
      ],
      "name": "BalanceWithdrawl",
      "type": "event"
    },
    {
      "anonymous": false,
      "inputs": [
        {
          "indexed": true,
          "internalType": "uint256",
          "name": "id",
          "type": "uint256"
        }
      ],
      "name": "CreateNooki",
      "type": "event"
    },
    {
      "anonymous": false,
      "inputs": [],
      "name": "DonationReceived",
      "type": "event"
    },
    {
      "anonymous": false,
      "inputs": [
        {
          "indexed": true,
          "internalType": "address",
          "name": "previousOwner",
          "type": "address"
        },
        {
          "indexed": true,
          "internalType": "address",
          "name": "newOwner",
          "type": "address"
        }
      ],
      "name": "OwnershipTransferred",
      "type": "event"
    },
    {
      "anonymous": false,
      "inputs": [
        {
          "indexed": false,
          "internalType": "address",
          "name": "account",
          "type": "address"
        }
      ],
      "name": "Paused",
      "type": "event"
    },
    {
      "anonymous": false,
      "inputs": [
        {
          "indexed": true,
          "internalType": "address",
          "name": "from",
          "type": "address"
        },
        {
          "indexed": true,
          "internalType": "address",
          "name": "to",
          "type": "address"
        },
        {
          "indexed": true,
          "internalType": "uint256",
          "name": "tokenId",
          "type": "uint256"
        }
      ],
      "name": "Transfer",
      "type": "event"
    },
    {
      "anonymous": false,
      "inputs": [
        {
          "indexed": false,
          "internalType": "address",
          "name": "account",
          "type": "address"
        }
      ],
      "name": "Unpaused",
      "type": "event"
    },
    {
      "inputs": [
        {
          "internalType": "address[]",
          "name": "wlAddresses",
          "type": "address[]"
        }
      ],
      "name": "addToWhitelist",
      "outputs": [],
      "stateMutability": "nonpayable",
      "type": "function"
    },
    {
      "inputs": [
        {
          "internalType": "address",
          "name": "to",
          "type": "address"
        },
        {
          "internalType": "uint256",
          "name": "tokenId",
          "type": "uint256"
        }
      ],
      "name": "approve",
      "outputs": [],
      "stateMutability": "nonpayable",
      "type": "function"
    },
    {
      "inputs": [
        {
          "internalType": "address",
          "name": "owner",
          "type": "address"
        }
      ],
      "name": "balanceOf",
      "outputs": [
        {
          "internalType": "uint256",
          "name": "",
          "type": "uint256"
        }
      ],
      "stateMutability": "view",
      "type": "function"
    },
    {
      "inputs": [],
      "name": "baseTokenURI",
      "outputs": [
        {
          "internalType": "string",
          "name": "",
          "type": "string"
        }
      ],
      "stateMutability": "view",
      "type": "function"
    },
    {
      "inputs": [
        {
          "internalType": "uint256",
          "name": "tokenId",
          "type": "uint256"
        }
      ],
      "name": "burn",
      "outputs": [],
      "stateMutability": "nonpayable",
      "type": "function"
    },
    {
      "inputs": [],
      "name": "contractURI",
      "outputs": [
        {
          "internalType": "string",
          "name": "",
          "type": "string"
        }
      ],
      "stateMutability": "view",
      "type": "function"
    },
    {
      "inputs": [],
      "name": "creatorRoyaltyBP",
      "outputs": [
        {
          "internalType": "uint16",
          "name": "",
          "type": "uint16"
        }
      ],
      "stateMutability": "view",
      "type": "function"
    },
    {
      "inputs": [
        {
          "internalType": "uint256",
          "name": "tokenId",
          "type": "uint256"
        }
      ],
      "name": "getApproved",
      "outputs": [
        {
          "internalType": "address",
          "name": "",
          "type": "address"
        }
      ],
      "stateMutability": "view",
      "type": "function"
    },
    {
      "inputs": [
        {
          "internalType": "address[]",
          "name": "recipients",
          "type": "address[]"
        }
      ],
      "name": "giveaway",
      "outputs": [],
      "stateMutability": "nonpayable",
      "type": "function"
    },
    {
      "inputs": [
        {
          "internalType": "address",
          "name": "owner",
          "type": "address"
        },
        {
          "internalType": "address",
          "name": "operator",
          "type": "address"
        }
      ],
      "name": "isApprovedForAll",
      "outputs": [
        {
          "internalType": "bool",
          "name": "",
          "type": "bool"
        }
      ],
      "stateMutability": "view",
      "type": "function"
    },
    {
      "inputs": [],
      "name": "maxTokensInCurrentDrop",
      "outputs": [
        {
          "internalType": "uint256",
          "name": "",
          "type": "uint256"
        }
      ],
      "stateMutability": "view",
      "type": "function"
    },
    {
      "inputs": [],
      "name": "maxTokensPerMint",
      "outputs": [
        {
          "internalType": "uint16",
          "name": "",
          "type": "uint16"
        }
      ],
      "stateMutability": "view",
      "type": "function"
    },
    {
      "inputs": [],
      "name": "maxTokensPerOwner",
      "outputs": [
        {
          "internalType": "uint16",
          "name": "",
          "type": "uint16"
        }
      ],
      "stateMutability": "view",
      "type": "function"
    },
    {
      "inputs": [],
      "name": "minMintPrice",
      "outputs": [
        {
          "internalType": "uint256",
          "name": "",
          "type": "uint256"
        }
      ],
      "stateMutability": "view",
      "type": "function"
    },
    {
      "inputs": [
        {
          "internalType": "address",
          "name": "recipient",
          "type": "address"
        },
        {
          "internalType": "uint16",
          "name": "count",
          "type": "uint16"
        }
      ],
      "name": "mint",
      "outputs": [
        {
          "internalType": "uint256",
          "name": "firstTokenId",
          "type": "uint256"
        },
        {
          "internalType": "uint256",
          "name": "lastTokenId",
          "type": "uint256"
        }
      ],
      "stateMutability": "payable",
      "type": "function"
    },
    {
      "inputs": [],
      "name": "mintTreasury",
      "outputs": [
        {
          "internalType": "address payable",
          "name": "",
          "type": "address"
        }
      ],
      "stateMutability": "view",
      "type": "function"
    },
    {
      "inputs": [],
      "name": "name",
      "outputs": [
        {
          "internalType": "string",
          "name": "",
          "type": "string"
        }
      ],
      "stateMutability": "view",
      "type": "function"
    },
    {
      "inputs": [],
      "name": "owner",
      "outputs": [
        {
          "internalType": "address",
          "name": "",
          "type": "address"
        }
      ],
      "stateMutability": "view",
      "type": "function"
    },
    {
      "inputs": [
        {
          "internalType": "uint256",
          "name": "tokenId",
          "type": "uint256"
        }
      ],
      "name": "ownerOf",
      "outputs": [
        {
          "internalType": "address",
          "name": "",
          "type": "address"
        }
      ],
      "stateMutability": "view",
      "type": "function"
    },
    {
      "inputs": [],
      "name": "paused",
      "outputs": [
        {
          "internalType": "bool",
          "name": "",
          "type": "bool"
        }
      ],
      "stateMutability": "view",
      "type": "function"
    },
    {
      "inputs": [
        {
          "internalType": "address",
          "name": "wlAddress",
          "type": "address"
        }
      ],
      "name": "removeFromWhiteList",
      "outputs": [],
      "stateMutability": "nonpayable",
      "type": "function"
    },
    {
      "inputs": [],
      "name": "renounceOwnership",
      "outputs": [],
      "stateMutability": "nonpayable",
      "type": "function"
    },
    {
      "inputs": [
        {
          "internalType": "uint256",
          "name": "",
          "type": "uint256"
        },
        {
          "internalType": "uint256",
          "name": "salePrice",
          "type": "uint256"
        }
      ],
      "name": "royaltyInfo",
      "outputs": [
        {
          "internalType": "address",
          "name": "receiver",
          "type": "address"
        },
        {
          "internalType": "uint256",
          "name": "royaltyAmount",
          "type": "uint256"
        }
      ],
      "stateMutability": "view",
      "type": "function"
    },
    {
      "inputs": [],
      "name": "royaltyTreasury",
      "outputs": [
        {
          "internalType": "address payable",
          "name": "",
          "type": "address"
        }
      ],
      "stateMutability": "view",
      "type": "function"
    },
    {
      "inputs": [
        {
          "internalType": "address",
          "name": "from",
          "type": "address"
        },
        {
          "internalType": "address",
          "name": "to",
          "type": "address"
        },
        {
          "internalType": "uint256",
          "name": "tokenId",
          "type": "uint256"
        }
      ],
      "name": "safeTransferFrom",
      "outputs": [],
      "stateMutability": "nonpayable",
      "type": "function"
    },
    {
      "inputs": [
        {
          "internalType": "address",
          "name": "from",
          "type": "address"
        },
        {
          "internalType": "address",
          "name": "to",
          "type": "address"
        },
        {
          "internalType": "uint256",
          "name": "tokenId",
          "type": "uint256"
        },
        {
          "internalType": "bytes",
          "name": "_data",
          "type": "bytes"
        }
      ],
      "name": "safeTransferFrom",
      "outputs": [],
      "stateMutability": "nonpayable",
      "type": "function"
    },
    {
      "inputs": [
        {
          "internalType": "address",
          "name": "operator",
          "type": "address"
        },
        {
          "internalType": "bool",
          "name": "approved",
          "type": "bool"
        }
      ],
      "name": "setApprovalForAll",
      "outputs": [],
      "stateMutability": "nonpayable",
      "type": "function"
    },
    {
      "inputs": [
        {
          "internalType": "string",
          "name": "baseURI",
          "type": "string"
        }
      ],
      "name": "setBaseURI",
      "outputs": [],
      "stateMutability": "nonpayable",
      "type": "function"
    },
    {
      "inputs": [
        {
          "internalType": "string",
          "name": "metadataURI",
          "type": "string"
        }
      ],
      "name": "setContractURI",
      "outputs": [],
      "stateMutability": "nonpayable",
      "type": "function"
    },
    {
      "inputs": [
        {
          "internalType": "uint256",
          "name": "tokens",
          "type": "uint256"
        }
      ],
      "name": "setMaxTokensInCurrentDrop",
      "outputs": [],
      "stateMutability": "nonpayable",
      "type": "function"
    },
    {
      "inputs": [
        {
          "internalType": "uint16",
          "name": "tokens",
          "type": "uint16"
        }
      ],
      "name": "setMaxTokensPerMint",
      "outputs": [],
      "stateMutability": "nonpayable",
      "type": "function"
    },
    {
      "inputs": [
        {
          "internalType": "uint16",
          "name": "tokens",
          "type": "uint16"
        }
      ],
      "name": "setMaxTokensPerOwner",
      "outputs": [],
      "stateMutability": "nonpayable",
      "type": "function"
    },
    {
      "inputs": [
        {
          "internalType": "uint256",
          "name": "price",
          "type": "uint256"
        }
      ],
      "name": "setMinMintPrice",
      "outputs": [],
      "stateMutability": "nonpayable",
      "type": "function"
    },
    {
      "inputs": [
        {
          "internalType": "address payable",
          "name": "treasury",
          "type": "address"
        }
      ],
      "name": "setMintTreasury",
      "outputs": [],
      "stateMutability": "nonpayable",
      "type": "function"
    },
    {
      "inputs": [
        {
          "internalType": "bool",
          "name": "pauseState",
          "type": "bool"
        }
      ],
      "name": "setPauseState",
      "outputs": [],
      "stateMutability": "nonpayable",
      "type": "function"
    },
    {
      "inputs": [
        {
          "internalType": "uint16",
          "name": "basePoints",
          "type": "uint16"
        }
      ],
      "name": "setRoyaltyBP",
      "outputs": [],
      "stateMutability": "nonpayable",
      "type": "function"
    },
    {
      "inputs": [
        {
          "internalType": "address payable",
          "name": "treasury",
          "type": "address"
        }
      ],
      "name": "setRoyaltyTreasury",
      "outputs": [],
      "stateMutability": "nonpayable",
      "type": "function"
    },
    {
      "inputs": [
        {
          "internalType": "uint256[]",
          "name": "tokenIds",
          "type": "uint256[]"
        },
        {
          "internalType": "uint256",
          "name": "date",
          "type": "uint256"
        }
      ],
      "name": "setTicketResetDates",
      "outputs": [],
      "stateMutability": "nonpayable",
      "type": "function"
    },
    {
      "inputs": [
        {
          "internalType": "bool",
          "name": "isEnabled",
          "type": "bool"
        }
      ],
      "name": "setWhitelistSaleEnabled",
      "outputs": [],
      "stateMutability": "nonpayable",
      "type": "function"
    },
    {
      "inputs": [
        {
          "internalType": "bytes4",
          "name": "interfaceId",
          "type": "bytes4"
        }
      ],
      "name": "supportsInterface",
      "outputs": [
        {
          "internalType": "bool",
          "name": "",
          "type": "bool"
        }
      ],
      "stateMutability": "view",
      "type": "function"
    },
    {
      "inputs": [],
      "name": "symbol",
      "outputs": [
        {
          "internalType": "string",
          "name": "",
          "type": "string"
        }
      ],
      "stateMutability": "view",
      "type": "function"
    },
    {
      "inputs": [
        {
          "internalType": "uint256",
          "name": "tokenId",
          "type": "uint256"
        }
      ],
      "name": "ticketResetDate",
      "outputs": [
        {
          "internalType": "uint256",
          "name": "",
          "type": "uint256"
        }
      ],
      "stateMutability": "view",
      "type": "function"
    },
    {
      "inputs": [
        {
          "internalType": "uint256[]",
          "name": "tokenIds",
          "type": "uint256[]"
        }
      ],
      "name": "ticketResetDates",
      "outputs": [
        {
          "internalType": "uint256[]",
          "name": "",
          "type": "uint256[]"
        }
      ],
      "stateMutability": "view",
      "type": "function"
    },
    {
      "inputs": [
        {
          "internalType": "uint256",
          "name": "index",
          "type": "uint256"
        }
      ],
      "name": "tokenByIndex",
      "outputs": [
        {
          "internalType": "uint256",
          "name": "",
          "type": "uint256"
        }
      ],
      "stateMutability": "view",
      "type": "function"
    },
    {
      "inputs": [
        {
          "internalType": "address",
          "name": "owner",
          "type": "address"
        },
        {
          "internalType": "uint256",
          "name": "index",
          "type": "uint256"
        }
      ],
      "name": "tokenOfOwnerByIndex",
      "outputs": [
        {
          "internalType": "uint256",
          "name": "",
          "type": "uint256"
        }
      ],
      "stateMutability": "view",
      "type": "function"
    },
    {
      "inputs": [
        {
          "internalType": "uint256",
          "name": "tokenId",
          "type": "uint256"
        }
      ],
      "name": "tokenURI",
      "outputs": [
        {
          "internalType": "string",
          "name": "",
          "type": "string"
        }
      ],
      "stateMutability": "view",
      "type": "function"
    },
    {
      "inputs": [],
      "name": "totalSupply",
      "outputs": [
        {
          "internalType": "uint256",
          "name": "",
          "type": "uint256"
        }
      ],
      "stateMutability": "view",
      "type": "function"
    },
    {
      "inputs": [
        {
          "internalType": "address",
          "name": "from",
          "type": "address"
        },
        {
          "internalType": "address",
          "name": "to",
          "type": "address"
        },
        {
          "internalType": "uint256",
          "name": "tokenId",
          "type": "uint256"
        }
      ],
      "name": "transferFrom",
      "outputs": [],
      "stateMutability": "nonpayable",
      "type": "function"
    },
    {
      "inputs": [
        {
          "internalType": "address",
          "name": "newOwner",
          "type": "address"
        }
      ],
      "name": "transferOwnership",
      "outputs": [],
      "stateMutability": "nonpayable",
      "type": "function"
    },
    {
      "inputs": [
        {
          "internalType": "address",
          "name": "ownerAddress",
          "type": "address"
        }
      ],
      "name": "walletOfOwner",
      "outputs": [
        {
          "internalType": "uint256[]",
          "name": "",
          "type": "uint256[]"
        }
      ],
      "stateMutability": "view",
      "type": "function"
    },
    {
      "inputs": [
        {
          "internalType": "address",
          "name": "",
          "type": "address"
        }
      ],
      "name": "whitelist",
      "outputs": [
        {
          "internalType": "bool",
          "name": "",
          "type": "bool"
        }
      ],
      "stateMutability": "view",
      "type": "function"
    },
    {
      "inputs": [],
      "name": "whitelistSaleEnabled",
      "outputs": [
        {
          "internalType": "bool",
          "name": "",
          "type": "bool"
        }
      ],
      "stateMutability": "view",
      "type": "function"
    },
    {
      "inputs": [],
      "name": "withdrawAll",
      "outputs": [],
      "stateMutability": "payable",
      "type": "function"
    },
    {
      "stateMutability": "payable",
      "type": "receive"
    }
  ],
  "transactionHash": "0x855a9d5093780b05ecf74b625e9896197db172d2c81bcbe588dc6dbd0f6fc681",
  "args": [
    "50000000000000000",
    1000,
    5,
    5,
    850,
    "https://tanuki-metadata.s3.us-west-2.amazonaws.com/public/nooki-contract.json",
    "https://tanuki-metadata.s3.us-west-2.amazonaws.com/public/obscured_tokens/",
    "0x18c05AEE87dCbc444e1fe27e4A65e8b8775f6365",
    "0x665ca8d5CE2ad0Ff7f04cB4289cd6399e048E6C6"
  ],
  "solcInputHash": "7a7fb7dd4877558f80652a86cb4fcff7",
  "bytecode": "0x60806040523480156200001157600080fd5b5060405162003e8638038062003e8683398101604081905262000034916200043b565b604080518082018252600a8152694e757474794e6f6f6b6960b01b6020808301918252835180850190945260058452644e4f4f4b4960d81b9084015281519192916200008391600091620002ba565b50805162000099906001906020840190620002ba565b5050600a805460ff1916905550620000ba620000b4620001d8565b620001dc565b6001600160a01b038216620000ec5760405162461bcd60e51b8152600401620000e39062000552565b60405180910390fd5b6001600160a01b038116620001155760405162461bcd60e51b8152600401620000e39062000589565b600d899055600e889055600f805461ffff8781166401000000000261ffff60201b19918b1661ffff19909316929092171617905583516200015e906010906020870190620002ba565b50825162000174906011906020860190620002ba565b50601280546001600160a01b038085166001600160a01b0319928316179092556013805492841692909116919091179055600f805461ffff8816620100000263ffff000019909116179055620001c962000236565b50505050505050505062000613565b3390565b600a80546001600160a01b03838116610100818102610100600160a81b031985161790945560405193909204169182907f8be0079c531659141344cd1fd0a4f28419497f9722a3daafe3b4186f6b6457e090600090a35050565b62000240620002b1565b15620002605760405162461bcd60e51b8152600401620000e39062000528565b600a805460ff191660011790557f62e78cea01bee320cd4e420270b5ea74000d11b0c9f74754ebdbfc544b05a25862000298620001d8565b604051620002a7919062000514565b60405180910390a1565b600a5460ff1690565b828054620002c890620005c0565b90600052602060002090601f016020900481019282620002ec576000855562000337565b82601f106200030757805160ff191683800117855562000337565b8280016001018555821562000337579182015b82811115620003375782518255916020019190600101906200031a565b506200034592915062000349565b5090565b5b808211156200034557600081556001016200034a565b80516001600160a01b03811681146200037857600080fd5b919050565b600082601f8301126200038e578081fd5b81516001600160401b0380821115620003ab57620003ab620005fd565b6040516020601f8401601f1916820181018381118382101715620003d357620003d3620005fd565b6040528382528584018101871015620003ea578485fd5b8492505b838310156200040d5785830181015182840182015291820191620003ee565b838311156200041e57848185840101525b5095945050505050565b805161ffff811681146200037857600080fd5b60008060008060008060008060006101208a8c0312156200045a578485fd5b8951985060208a015197506200047360408b0162000428565b96506200048360608b0162000428565b95506200049360808b0162000428565b60a08b01519095506001600160401b0380821115620004b0578586fd5b620004be8d838e016200037d565b955060c08c0151915080821115620004d4578485fd5b50620004e38c828d016200037d565b935050620004f460e08b0162000360565b9150620005056101008b0162000360565b90509295985092959850929598565b6001600160a01b0391909116815260200190565b60208082526010908201526f14185d5cd8589b194e881c185d5cd95960821b604082015260600190565b6020808252601d908201527f526f79616c747920747265617375727920697320302061646472657373000000604082015260600190565b6020808252601a908201527f4d696e7420747265617375727920697320302061646472657373000000000000604082015260600190565b600281046001821680620005d557607f821691505b60208210811415620005f757634e487b7160e01b600052602260045260246000fd5b50919050565b634e487b7160e01b600052604160045260246000fd5b61386380620006236000396000f3fe60806040526004361061031e5760003560e01c806370a08231116101ab578063badfff3a116100f7578063e3e3506211610095578063e9a7a5461161006f578063e9a7a54614610913578063ed83e0d614610933578063f2fde38b14610953578063f6bca878146109735761034e565b8063e3e35062146108c9578063e8a3d485146108de578063e985e9c5146108f35761034e565b8063cdb88ad1116100d1578063cdb88ad114610854578063d547cfb714610874578063e28da3b714610889578063e3aaf0f8146108a95761034e565b8063badfff3a146107ff578063c80d123a1461081f578063c87b56dd146108345761034e565b80638da5cb5b116101645780639b19251a1161013e5780639b19251a1461077e578063a22cb4651461079e578063ad0be4bd146107be578063b88d4fde146107df5761034e565b80638da5cb5b14610734578063938e3d7b1461074957806395d89b41146107695761034e565b806370a0823114610697578063715018a6146106b75780637e227f4b146106cc5780637f649783146106ec578063853828b61461070c5780638a727fd5146107145761034e565b806328d46df01161026a57806342966c68116102235780634f6ccce7116101fd5780634f6ccce71461062257806355f804b3146106425780635c975abb146106625780636352211e146106775761034e565b806342966c68146105b5578063434387e7146105d5578063438b6300146105f55761034e565b806328d46df0146104f25780632a55205a146105125780632f745c59146105405780633b98a7df1461056057806342842e0e1461058057806342884801146105a05761034e565b8063095ea7b3116102d757806318160ddd116102b157806318160ddd1461047b5780631c0c6e8a1461049d57806323b872dd146104b25780632451a295146104d25761034e565b8063095ea7b314610424578063174654711461044457806318057bb8146104665761034e565b806301bf66481461035357806301ffc9a71461037557806305e9ca9b146103ab5780630694d6c5146103cd57806306fdde03146103e2578063081812fc146104045761034e565b3661034e576040517fe554fffbd0e5c2a35b0a24fef85d4297554111caf74cc33cb4cc85a117bbe6e090600090a1005b600080fd5b34801561035f57600080fd5b5061037361036e3660046129c5565b610993565b005b34801561038157600080fd5b50610395610390366004612c80565b6109fc565b6040516103a29190612e5d565b60405180910390f35b3480156103b757600080fd5b506103c0610a29565b6040516103a29190612daf565b3480156103d957600080fd5b50610395610a38565b3480156103ee57600080fd5b506103f7610a41565b6040516103a29190612e68565b34801561041057600080fd5b506103c061041f366004612d18565b610ad3565b34801561043057600080fd5b5061037361043f366004612b2c565b610b16565b34801561045057600080fd5b50610459610bae565b6040516103a29190613632565b34801561047257600080fd5b50610459610bb8565b34801561048757600080fd5b50610490610bca565b6040516103a29190613641565b3480156104a957600080fd5b50610490610bd0565b3480156104be57600080fd5b506103736104cd366004612a19565b610bd6565b3480156104de57600080fd5b506103736104ed366004612d18565b610c0e565b3480156104fe57600080fd5b5061037361050d366004612b57565b610c52565b34801561051e57600080fd5b5061053261052d366004612d30565b610ceb565b6040516103a2929190612e00565b34801561054c57600080fd5b5061049061055b366004612b2c565b610d4f565b34801561056c57600080fd5b5061037361057b3660046129c5565b610da1565b34801561058c57600080fd5b5061037361059b366004612a19565b610e28565b3480156105ac57600080fd5b50610459610e43565b3480156105c157600080fd5b506103736105d0366004612d18565b610e53565b3480156105e157600080fd5b506103736105f0366004612cfe565b610e9e565b34801561060157600080fd5b506106156106103660046129c5565b610efd565b6040516103a29190612e19565b34801561062e57600080fd5b5061049061063d366004612d18565b610fbb565b34801561064e57600080fd5b5061037361065d366004612cb8565b611016565b34801561066e57600080fd5b50610395611068565b34801561068357600080fd5b506103c0610692366004612d18565b611071565b3480156106a357600080fd5b506104906106b23660046129c5565b6110a6565b3480156106c357600080fd5b506103736110ea565b3480156106d857600080fd5b506103736106e73660046129c5565b611135565b3480156106f857600080fd5b50610373610707366004612b57565b6111bc565b6103736112ea565b34801561072057600080fd5b5061049061072f366004612d18565b6113e0565b34801561074057600080fd5b506103c0611424565b34801561075557600080fd5b50610373610764366004612cb8565b611438565b34801561077557600080fd5b506103f761148a565b34801561078a57600080fd5b506103956107993660046129c5565b611499565b3480156107aa57600080fd5b506103736107b9366004612ad6565b6114ae565b6107d16107cc366004612b01565b61157c565b6040516103a292919061364a565b3480156107eb57600080fd5b506103736107fa366004612a59565b611702565b34801561080b57600080fd5b5061037361081a366004612c23565b611741565b34801561082b57600080fd5b506104906117de565b34801561084057600080fd5b506103f761084f366004612d18565b6117e4565b34801561086057600080fd5b5061037361086f366004612c66565b611867565b34801561088057600080fd5b506103f76118e8565b34801561089557600080fd5b506103736108a4366004612c66565b611976565b3480156108b557600080fd5b506103736108c4366004612cfe565b6119c8565b3480156108d557600080fd5b506103c0611a1f565b3480156108ea57600080fd5b506103f7611a2e565b3480156108ff57600080fd5b5061039561090e3660046129e1565b611a3b565b34801561091f57600080fd5b5061037361092e366004612cfe565b611a69565b34801561093f57600080fd5b5061061561094e366004612bf0565b611acc565b34801561095f57600080fd5b5061037361096e3660046129c5565b611bee565b34801561097f57600080fd5b5061037361098e366004612d18565b611c5c565b61099b611ca0565b6001600160a01b03166109ac611424565b6001600160a01b0316146109db5760405162461bcd60e51b81526004016109d290613413565b60405180910390fd5b6001600160a01b03166000908152601460205260409020805460ff19169055565b60006001600160e01b0319821663152a902d60e11b1480610a215750610a2182611ca4565b90505b919050565b6012546001600160a01b031681565b600c5460ff1681565b606060008054610a5090613734565b80601f0160208091040260200160405190810160405280929190818152602001828054610a7c90613734565b8015610ac95780601f10610a9e57610100808354040283529160200191610ac9565b820191906000526020600020905b815481529060010190602001808311610aac57829003601f168201915b5050505050905090565b6000610ade82611cc9565b610afa5760405162461bcd60e51b81526004016109d2906133c7565b506000908152600460205260409020546001600160a01b031690565b6000610b2182611071565b9050806001600160a01b0316836001600160a01b03161415610b555760405162461bcd60e51b81526004016109d29061350f565b806001600160a01b0316610b67611ca0565b6001600160a01b03161480610b835750610b838161090e611ca0565b610b9f5760405162461bcd60e51b81526004016109d290613257565b610ba98383611ce6565b505050565b600f5461ffff1681565b600f54640100000000900461ffff1681565b60085490565b600e5481565b610be7610be1611ca0565b82611d54565b610c035760405162461bcd60e51b81526004016109d290613550565b610ba9838383611dd9565b610c16611ca0565b6001600160a01b0316610c27611424565b6001600160a01b031614610c4d5760405162461bcd60e51b81526004016109d290613413565b600e55565b610c5a611ca0565b6001600160a01b0316610c6b611424565b6001600160a01b031614610c915760405162461bcd60e51b81526004016109d290613413565b60005b81518161ffff161015610ce757610cd5828261ffff1681518110610cc857634e487b7160e01b600052603260045260246000fd5b6020026020010151611df5565b80610cdf8161376f565b915050610c94565b5050565b60008060008311610d0e5760405162461bcd60e51b81526004016109d2906130c9565b601254600f546001600160a01b039091169061271090610d3a90640100000000900461ffff16866136d2565b610d4491906136be565b915091509250929050565b6000610d5a836110a6565b8210610d785760405162461bcd60e51b81526004016109d290612f2b565b506001600160a01b03919091166000908152600660209081526040808320938352929052205490565b610da9611ca0565b6001600160a01b0316610dba611424565b6001600160a01b031614610de05760405162461bcd60e51b81526004016109d290613413565b6001600160a01b038116610e065760405162461bcd60e51b81526004016109d2906134e0565b601280546001600160a01b0319166001600160a01b0392909216919091179055565b610ba983838360405180602001604052806000815250611702565b600f5462010000900461ffff1681565b610e5b611ca0565b6001600160a01b0316610e6c611424565b6001600160a01b031614610e925760405162461bcd60e51b81526004016109d290613413565b610e9b81611e65565b50565b610ea6611ca0565b6001600160a01b0316610eb7611424565b6001600160a01b031614610edd5760405162461bcd60e51b81526004016109d290613413565b600f805461ffff909216620100000263ffff000019909216919091179055565b60606000610f0a836110a6565b905060008167ffffffffffffffff811115610f3557634e487b7160e01b600052604160045260246000fd5b604051908082528060200260200182016040528015610f5e578160200160208202803683370190505b50905060005b82811015610fb357610f768582610d4f565b828281518110610f9657634e487b7160e01b600052603260045260246000fd5b602090810291909101015280610fab81613791565b915050610f64565b509392505050565b6000610fc5610bca565b8210610fe35760405162461bcd60e51b81526004016109d2906135a1565b6008828154811061100457634e487b7160e01b600052603260045260246000fd5b90600052602060002001549050919050565b61101e611ca0565b6001600160a01b031661102f611424565b6001600160a01b0316146110555760405162461bcd60e51b81526004016109d290613413565b8051610ce7906011906020840190612846565b600a5460ff1690565b6000818152600260205260408120546001600160a01b031680610a215760405162461bcd60e51b81526004016109d2906132fe565b60006001600160a01b0382166110ce5760405162461bcd60e51b81526004016109d2906132b4565b506001600160a01b031660009081526003602052604090205490565b6110f2611ca0565b6001600160a01b0316611103611424565b6001600160a01b0316146111295760405162461bcd60e51b81526004016109d290613413565b6111336000611e7d565b565b61113d611ca0565b6001600160a01b031661114e611424565b6001600160a01b0316146111745760405162461bcd60e51b81526004016109d290613413565b6001600160a01b03811661119a5760405162461bcd60e51b81526004016109d2906134e0565b601380546001600160a01b0319166001600160a01b0392909216919091179055565b6111c4611ca0565b6001600160a01b03166111d5611424565b6001600160a01b0316146111fb5760405162461bcd60e51b81526004016109d290613413565b60005b81518110156112735760006001600160a01b031682828151811061123257634e487b7160e01b600052603260045260246000fd5b60200260200101516001600160a01b031614156112615760405162461bcd60e51b81526004016109d2906135ed565b8061126b81613791565b9150506111fe565b5060005b8151811015610ce7576001601460008484815181106112a657634e487b7160e01b600052603260045260246000fd5b6020908102919091018101516001600160a01b03168252810191909152604001600020805460ff1916911515919091179055806112e281613791565b915050611277565b6112f2611ca0565b6001600160a01b0316611303611424565b6001600160a01b0316146113295760405162461bcd60e51b81526004016109d290613413565b478061133457600080fd5b60405142907feede8f531dfe8867abb4d42c23573eb3fb93a5b7779d3f0bf3a86ce1c724985390600090a26013546040516000916001600160a01b031690839061137d90612dac565b60006040518083038185875af1925050503d80600081146113ba576040519150601f19603f3d011682016040523d82523d6000602084013e6113bf565b606091505b5050905080610ce75760405162461bcd60e51b81526004016109d290613045565b600080821180156113f557506113f582611cc9565b6114115760405162461bcd60e51b81526004016109d2906131b8565b5060009081526015602052604090205490565b600a5461010090046001600160a01b031690565b611440611ca0565b6001600160a01b0316611451611424565b6001600160a01b0316146114775760405162461bcd60e51b81526004016109d290613413565b8051610ce7906010906020840190612846565b606060018054610a5090613734565b60146020526000908152604090205460ff1681565b6114b6611ca0565b6001600160a01b0316826001600160a01b031614156114e75760405162461bcd60e51b81526004016109d290613181565b80600560006114f4611ca0565b6001600160a01b03908116825260208083019390935260409182016000908120918716808252919093529120805460ff191692151592909217909155611538611ca0565b6001600160a01b03167f17307eab39ab6107e8899845ad3d59bd9653f200f220920489ca2b5937696c31836040516115709190612e5d565b60405180910390a35050565b60008060008361ffff1611801561159d5750600f5461ffff90811690841611155b6115b95760405162461bcd60e51b81526004016109d29061309a565b8261ffff16600d546115cb91906136d2565b3410156115ea5760405162461bcd60e51b81526004016109d290612ef4565b600f5461ffff620100009091048116908416611605866110a6565b61160f91906136a6565b111561162d5760405162461bcd60e51b81526004016109d290613347565b600e548361ffff1661163f600b611ed7565b61164991906136a6565b11156116675760405162461bcd60e51b81526004016109d29061306e565b600c5460ff16156116aa576001600160a01b03841660009081526014602052604090205460ff166116aa5760405162461bcd60e51b81526004016109d290613139565b60005b8361ffff168161ffff1610156116ee576116c685611df5565b61ffff81166116dc576116d9600b611ed7565b92505b806116e68161376f565b9150506116ad565b506116f9600b611ed7565b90509250929050565b61171361170d611ca0565b83611d54565b61172f5760405162461bcd60e51b81526004016109d290613550565b61173b84848484611edb565b50505050565b611749611ca0565b6001600160a01b031661175a611424565b6001600160a01b0316146117805760405162461bcd60e51b81526004016109d290613413565b60005b8251811015610ba95781601560008584815181106117b157634e487b7160e01b600052603260045260246000fd5b602002602001015181526020019081526020016000208190555080806117d690613791565b915050611783565b600d5481565b60606117ef82611cc9565b61180b5760405162461bcd60e51b81526004016109d290613491565b6000611815611f0e565b905060008151116118355760405180602001604052806000815250611860565b8061183f84611f1d565b604051602001611850929190612d7d565b6040516020818303038152906040525b9392505050565b61186f611ca0565b6001600160a01b0316611880611424565b6001600160a01b0316146118a65760405162461bcd60e51b81526004016109d290613413565b8080156118b857506118b6611068565b155b156118ca576118c5612038565b610e9b565b801580156118db57506118db611068565b15610e9b57610e9b6120aa565b601180546118f590613734565b80601f016020809104026020016040519081016040528092919081815260200182805461192190613734565b801561196e5780601f106119435761010080835404028352916020019161196e565b820191906000526020600020905b81548152906001019060200180831161195157829003601f168201915b505050505081565b61197e611ca0565b6001600160a01b031661198f611424565b6001600160a01b0316146119b55760405162461bcd60e51b81526004016109d290613413565b600c805460ff1916911515919091179055565b6119d0611ca0565b6001600160a01b03166119e1611424565b6001600160a01b031614611a075760405162461bcd60e51b81526004016109d290613413565b600f805461ffff191661ffff92909216919091179055565b6013546001600160a01b031681565b601080546118f590613734565b6001600160a01b03918216600090815260056020908152604080832093909416825291909152205460ff1690565b611a71611ca0565b6001600160a01b0316611a82611424565b6001600160a01b031614611aa85760405162461bcd60e51b81526004016109d290613413565b600f805461ffff9092166401000000000265ffff0000000019909216919091179055565b6060611ad6611ca0565b6001600160a01b0316611ae7611424565b6001600160a01b031614611b0d5760405162461bcd60e51b81526004016109d290613413565b6000825167ffffffffffffffff811115611b3757634e487b7160e01b600052604160045260246000fd5b604051908082528060200260200182016040528015611b60578160200160208202803683370190505b50905060005b8351811015611be75760156000858381518110611b9357634e487b7160e01b600052603260045260246000fd5b6020026020010151815260200190815260200160002054828281518110611bca57634e487b7160e01b600052603260045260246000fd5b602090810291909101015280611bdf81613791565b915050611b66565b5092915050565b611bf6611ca0565b6001600160a01b0316611c07611424565b6001600160a01b031614611c2d5760405162461bcd60e51b81526004016109d290613413565b6001600160a01b038116611c535760405162461bcd60e51b81526004016109d290612fc8565b610e9b81611e7d565b611c64611ca0565b6001600160a01b0316611c75611424565b6001600160a01b031614611c9b5760405162461bcd60e51b81526004016109d290613413565b600d55565b3390565b60006001600160e01b0319821663780e9d6360e01b1480610a215750610a2182612101565b6000908152600260205260409020546001600160a01b0316151590565b600081815260046020526040902080546001600160a01b0319166001600160a01b0384169081179091558190611d1b82611071565b6001600160a01b03167f8c5be1e5ebec7d5bd14f71427d1e84f3dd0314c0f7b2291e5b200ac8c7c3b92560405160405180910390a45050565b6000611d5f82611cc9565b611d7b5760405162461bcd60e51b81526004016109d2906131e1565b6000611d8683611071565b9050806001600160a01b0316846001600160a01b03161480611dc15750836001600160a01b0316611db684610ad3565b6001600160a01b0316145b80611dd15750611dd18185611a3b565b949350505050565b6000818152601560205260409020429055610ba9838383612141565b611dff600b61226e565b4260156000611e0e600b611ed7565b8152602081019190915260400160002055611e29600b611ed7565b6040517f128808f22de7bb1e3ffd9c206885e55a5e23da0baf99665e5146706b4dd1b89790600090a2610e9b81611e60600b611ed7565b612277565b600081815260156020526040812055610e9b81612291565b600a80546001600160a01b03838116610100818102610100600160a81b031985161790945560405193909204169182907f8be0079c531659141344cd1fd0a4f28419497f9722a3daafe3b4186f6b6457e090600090a35050565b5490565b611ee6848484611dd9565b611ef284848484612338565b61173b5760405162461bcd60e51b81526004016109d290612f76565b606060118054610a5090613734565b606081611f4257506040805180820190915260018152600360fc1b6020820152610a24565b8160005b8115611f6c5780611f5681613791565b9150611f659050600a836136be565b9150611f46565b60008167ffffffffffffffff811115611f9557634e487b7160e01b600052604160045260246000fd5b6040519080825280601f01601f191660200182016040528015611fbf576020820181803683370190505b5090505b8415611dd157611fd46001836136f1565b9150611fe1600a866137ac565b611fec9060306136a6565b60f81b81838151811061200f57634e487b7160e01b600052603260045260246000fd5b60200101906001600160f81b031916908160001a905350612031600a866136be565b9450611fc3565b612040611068565b1561205d5760405162461bcd60e51b81526004016109d29061322d565b600a805460ff191660011790557f62e78cea01bee320cd4e420270b5ea74000d11b0c9f74754ebdbfc544b05a258612093611ca0565b6040516120a09190612daf565b60405180910390a1565b6120b2611068565b6120ce5760405162461bcd60e51b81526004016109d290612ec6565b600a805460ff191690557f5db9ee0a495bf2e6ff9c91a7834c1ba4fdd244a5e8aa4e537bd38aeae4b073aa612093611ca0565b60006001600160e01b031982166380ac58cd60e01b148061213257506001600160e01b03198216635b5e139f60e01b145b80610a215750610a2182612453565b826001600160a01b031661215482611071565b6001600160a01b03161461217a5760405162461bcd60e51b81526004016109d290613448565b6001600160a01b0382166121a05760405162461bcd60e51b81526004016109d2906130f5565b6121ab83838361246c565b6121b6600082611ce6565b6001600160a01b03831660009081526003602052604081208054600192906121df9084906136f1565b90915550506001600160a01b038216600090815260036020526040812080546001929061220d9084906136a6565b909155505060008181526002602052604080822080546001600160a01b0319166001600160a01b0386811691821790925591518493918716917fddf252ad1be2c89b69c2b068fc378daa952ba7f163c4a11628f55a4df523b3ef91a4505050565b80546001019055565b610ce7828260405180602001604052806000815250612477565b600061229c82611071565b90506122aa8160008461246c565b6122b5600083611ce6565b6001600160a01b03811660009081526003602052604081208054600192906122de9084906136f1565b909155505060008281526002602052604080822080546001600160a01b0319169055518391906001600160a01b038416907fddf252ad1be2c89b69c2b068fc378daa952ba7f163c4a11628f55a4df523b3ef908390a45050565b600061234c846001600160a01b03166124aa565b1561244857836001600160a01b031663150b7a02612368611ca0565b8786866040518563ffffffff1660e01b815260040161238a9493929190612dc3565b602060405180830381600087803b1580156123a457600080fd5b505af19250505080156123d4575060408051601f3d908101601f191682019092526123d191810190612c9c565b60015b61242e573d808015612402576040519150601f19603f3d011682016040523d82523d6000602084013e612407565b606091505b5080516124265760405162461bcd60e51b81526004016109d290612f76565b805181602001fd5b6001600160e01b031916630a85bd0160e11b149050611dd1565b506001949350505050565b6001600160e01b031981166301ffc9a760e01b14919050565b610ba98383836124b0565b61248183836124e0565b61248e6000848484612338565b610ba95760405162461bcd60e51b81526004016109d290612f76565b3b151590565b6124bb8383836125bf565b6124c3611068565b15610ba95760405162461bcd60e51b81526004016109d290612e7b565b6001600160a01b0382166125065760405162461bcd60e51b81526004016109d290613392565b61250f81611cc9565b1561252c5760405162461bcd60e51b81526004016109d29061300e565b6125386000838361246c565b6001600160a01b03821660009081526003602052604081208054600192906125619084906136a6565b909155505060008181526002602052604080822080546001600160a01b0319166001600160a01b03861690811790915590518392907fddf252ad1be2c89b69c2b068fc378daa952ba7f163c4a11628f55a4df523b3ef908290a45050565b6125ca838383610ba9565b6001600160a01b0383166125e6576125e181612648565b612609565b816001600160a01b0316836001600160a01b03161461260957612609838261268c565b6001600160a01b0382166126255761262081612729565b610ba9565b826001600160a01b0316826001600160a01b031614610ba957610ba98282612802565b600880546000838152600960205260408120829055600182018355919091527ff3f7a9fe364faab93b216da50a3214154f22a0a2b415b23a84c8169e8b636ee30155565b60006001612699846110a6565b6126a391906136f1565b6000838152600760205260409020549091508082146126f6576001600160a01b03841660009081526006602090815260408083208584528252808320548484528184208190558352600790915290208190555b5060009182526007602090815260408084208490556001600160a01b039094168352600681528383209183525290812055565b60085460009061273b906001906136f1565b6000838152600960205260408120546008805493945090928490811061277157634e487b7160e01b600052603260045260246000fd5b9060005260206000200154905080600883815481106127a057634e487b7160e01b600052603260045260246000fd5b60009182526020808320909101929092558281526009909152604080822084905585825281205560088054806127e657634e487b7160e01b600052603160045260246000fd5b6001900381819060005260206000200160009055905550505050565b600061280d836110a6565b6001600160a01b039093166000908152600660209081526040808320868452825280832085905593825260079052919091209190915550565b82805461285290613734565b90600052602060002090601f01602090048101928261287457600085556128ba565b82601f1061288d57805160ff19168380011785556128ba565b828001600101855582156128ba579182015b828111156128ba57825182559160200191906001019061289f565b506128c69291506128ca565b5090565b5b808211156128c657600081556001016128cb565b600067ffffffffffffffff8311156128f9576128f96137ec565b61290c601f8401601f1916602001613658565b905082815283838301111561292057600080fd5b828260208301376000602084830101529392505050565b600082601f830112612947578081fd5b8135602061295c61295783613682565b613658565b8281528181019085830183850287018401881015612978578586fd5b855b858110156129965781358452928401929084019060010161297a565b5090979650505050505050565b80358015158114610a2457600080fd5b803561ffff81168114610a2457600080fd5b6000602082840312156129d6578081fd5b813561186081613802565b600080604083850312156129f3578081fd5b82356129fe81613802565b91506020830135612a0e81613802565b809150509250929050565b600080600060608486031215612a2d578081fd5b8335612a3881613802565b92506020840135612a4881613802565b929592945050506040919091013590565b60008060008060808587031215612a6e578081fd5b8435612a7981613802565b93506020850135612a8981613802565b925060408501359150606085013567ffffffffffffffff811115612aab578182fd5b8501601f81018713612abb578182fd5b612aca878235602084016128df565b91505092959194509250565b60008060408385031215612ae8578182fd5b8235612af381613802565b91506116f9602084016129a3565b60008060408385031215612b13578182fd5b8235612b1e81613802565b91506116f9602084016129b3565b60008060408385031215612b3e578182fd5b8235612b4981613802565b946020939093013593505050565b60006020808385031215612b69578182fd5b823567ffffffffffffffff811115612b7f578283fd5b8301601f81018513612b8f578283fd5b8035612b9d61295782613682565b8181528381019083850185840285018601891015612bb9578687fd5b8694505b83851015612be4578035612bd081613802565b835260019490940193918501918501612bbd565b50979650505050505050565b600060208284031215612c01578081fd5b813567ffffffffffffffff811115612c17578182fd5b611dd184828501612937565b60008060408385031215612c35578182fd5b823567ffffffffffffffff811115612c4b578283fd5b612c5785828601612937565b95602094909401359450505050565b600060208284031215612c77578081fd5b611860826129a3565b600060208284031215612c91578081fd5b813561186081613817565b600060208284031215612cad578081fd5b815161186081613817565b600060208284031215612cc9578081fd5b813567ffffffffffffffff811115612cdf578182fd5b8201601f81018413612cef578182fd5b611dd1848235602084016128df565b600060208284031215612d0f578081fd5b611860826129b3565b600060208284031215612d29578081fd5b5035919050565b60008060408385031215612d42578182fd5b50508035926020909101359150565b60008151808452612d69816020860160208601613708565b601f01601f19169290920160200192915050565b60008351612d8f818460208801613708565b835190830190612da3818360208801613708565b01949350505050565b90565b6001600160a01b0391909116815260200190565b6001600160a01b0385811682528416602082015260408101839052608060608201819052600090612df690830184612d51565b9695505050505050565b6001600160a01b03929092168252602082015260400190565b6020808252825182820181905260009190848201906040850190845b81811015612e5157835183529284019291840191600101612e35565b50909695505050505050565b901515815260200190565b6000602082526118606020830184612d51565b6020808252602b908201527f4552433732315061757361626c653a20746f6b656e207472616e73666572207760408201526a1a1a5b19481c185d5cd95960aa1b606082015260800190565b60208082526014908201527314185d5cd8589b194e881b9bdd081c185d5cd95960621b604082015260600190565b60208082526017908201527f496e73756666696369656e74206d696e742076616c7565000000000000000000604082015260600190565b6020808252602b908201527f455243373231456e756d657261626c653a206f776e657220696e646578206f7560408201526a74206f6620626f756e647360a81b606082015260800190565b60208082526032908201527f4552433732313a207472616e7366657220746f206e6f6e20455243373231526560408201527131b2b4bb32b91034b6b83632b6b2b73a32b960711b606082015260800190565b60208082526026908201527f4f776e61626c653a206e6577206f776e657220697320746865207a65726f206160408201526564647265737360d01b606082015260800190565b6020808252601c908201527f4552433732313a20746f6b656e20616c7265616479206d696e74656400000000604082015260600190565b6020808252600f908201526e15da5d1a191c985dc819985a5b1959608a1b604082015260600190565b602080825260129082015271111c9bdc081b1a5b5a5d081c995858da195960721b604082015260600190565b60208082526015908201527410dbdd5b9d081d1bc81b5a5b9d081a5b9d985b1a59605a1b604082015260600190565b602080825260129082015271496e76616c69642073616c6520707269636560701b604082015260600190565b60208082526024908201527f4552433732313a207472616e7366657220746f20746865207a65726f206164646040820152637265737360e01b606082015260800190565b60208082526028908201527f526563697069656e74206973206e6f742070617274206f662077686974656c696040820152671cdd08195d995b9d60c21b606082015260800190565b60208082526019908201527f4552433732313a20617070726f766520746f2063616c6c657200000000000000604082015260600190565b6020808252600f908201526e125b9d985b1a59081d1bdad95b9259608a1b604082015260600190565b6020808252602c908201527f4552433732313a206f70657261746f7220717565727920666f72206e6f6e657860408201526b34b9ba32b73a103a37b5b2b760a11b606082015260800190565b60208082526010908201526f14185d5cd8589b194e881c185d5cd95960821b604082015260600190565b60208082526038908201527f4552433732313a20617070726f76652063616c6c6572206973206e6f74206f7760408201527f6e6572206e6f7220617070726f76656420666f7220616c6c0000000000000000606082015260800190565b6020808252602a908201527f4552433732313a2062616c616e636520717565727920666f7220746865207a65604082015269726f206164647265737360b01b606082015260800190565b60208082526029908201527f4552433732313a206f776e657220717565727920666f72206e6f6e657869737460408201526832b73a103a37b5b2b760b91b606082015260800190565b6020808252602b908201527f546f6b656e206f776e657273686970206c696d697420666f722072656369706960408201526a195b9d081c995858da195960aa1b606082015260800190565b6020808252818101527f4552433732313a206d696e7420746f20746865207a65726f2061646472657373604082015260600190565b6020808252602c908201527f4552433732313a20617070726f76656420717565727920666f72206e6f6e657860408201526b34b9ba32b73a103a37b5b2b760a11b606082015260800190565b6020808252818101527f4f776e61626c653a2063616c6c6572206973206e6f7420746865206f776e6572604082015260600190565b60208082526029908201527f4552433732313a207472616e73666572206f6620746f6b656e2074686174206960408201526839903737ba1037bbb760b91b606082015260800190565b6020808252602f908201527f4552433732314d657461646174613a2055524920717565727920666f72206e6f60408201526e3732bc34b9ba32b73a103a37b5b2b760891b606082015260800190565b60208082526015908201527454726561737572792069732030206164647265737360581b604082015260600190565b60208082526021908201527f4552433732313a20617070726f76616c20746f2063757272656e74206f776e656040820152603960f91b606082015260800190565b60208082526031908201527f4552433732313a207472616e736665722063616c6c6572206973206e6f74206f6040820152701ddb995c881b9bdc88185c1c1c9bdd9959607a1b606082015260800190565b6020808252602c908201527f455243373231456e756d657261626c653a20676c6f62616c20696e646578206f60408201526b7574206f6620626f756e647360a01b606082015260800190565b60208082526025908201527f4e65772077686974656c6973742063616e6e6f74206265207468652030206164604082015264647265737360d81b606082015260800190565b61ffff91909116815260200190565b90815260200190565b918252602082015260400190565b60405181810167ffffffffffffffff8111828210171561367a5761367a6137ec565b604052919050565b600067ffffffffffffffff82111561369c5761369c6137ec565b5060209081020190565b600082198211156136b9576136b96137c0565b500190565b6000826136cd576136cd6137d6565b500490565b60008160001904831182151516156136ec576136ec6137c0565b500290565b600082821015613703576137036137c0565b500390565b60005b8381101561372357818101518382015260200161370b565b8381111561173b5750506000910152565b60028104600182168061374857607f821691505b6020821081141561376957634e487b7160e01b600052602260045260246000fd5b50919050565b600061ffff80831681811415613787576137876137c0565b6001019392505050565b60006000198214156137a5576137a56137c0565b5060010190565b6000826137bb576137bb6137d6565b500690565b634e487b7160e01b600052601160045260246000fd5b634e487b7160e01b600052601260045260246000fd5b634e487b7160e01b600052604160045260246000fd5b6001600160a01b0381168114610e9b57600080fd5b6001600160e01b031981168114610e9b57600080fdfea2646970667358221220c0f051050dfa8ce6996acea64d1a882e27c6a59bf889dd9310d5a0a92b9e509c64736f6c63430008000033",
  "devdoc": {
    "kind": "dev",
    "methods": {
      "approve(address,uint256)": {
        "details": "See {IERC721-approve}."
      },
      "balanceOf(address)": {
        "details": "See {IERC721-balanceOf}."
      },
      "getApproved(uint256)": {
        "details": "See {IERC721-getApproved}."
      },
      "isApprovedForAll(address,address)": {
        "details": "See {IERC721-isApprovedForAll}."
      },
      "name()": {
        "details": "See {IERC721Metadata-name}."
      },
      "owner()": {
        "details": "Returns the address of the current owner."
      },
      "ownerOf(uint256)": {
        "details": "See {IERC721-ownerOf}."
      },
      "paused()": {
        "details": "Returns true if the contract is paused, and false otherwise."
      },
      "renounceOwnership()": {
        "details": "Leaves the contract without owner. It will not be possible to call `onlyOwner` functions anymore. Can only be called by the current owner. NOTE: Renouncing ownership will leave the contract without an owner, thereby removing any functionality that is only available to the owner."
      },
      "safeTransferFrom(address,address,uint256)": {
        "details": "See {IERC721-safeTransferFrom}."
      },
      "safeTransferFrom(address,address,uint256,bytes)": {
        "details": "See {IERC721-safeTransferFrom}."
      },
      "setApprovalForAll(address,bool)": {
        "details": "See {IERC721-setApprovalForAll}."
      },
      "symbol()": {
        "details": "See {IERC721Metadata-symbol}."
      },
      "tokenByIndex(uint256)": {
        "details": "See {IERC721Enumerable-tokenByIndex}."
      },
      "tokenOfOwnerByIndex(address,uint256)": {
        "details": "See {IERC721Enumerable-tokenOfOwnerByIndex}."
      },
      "tokenURI(uint256)": {
        "details": "See {IERC721Metadata-tokenURI}."
      },
      "totalSupply()": {
        "details": "See {IERC721Enumerable-totalSupply}."
      },
      "transferFrom(address,address,uint256)": {
        "details": "See {IERC721-transferFrom}."
      },
      "transferOwnership(address)": {
        "details": "Transfers ownership of the contract to a new account (`newOwner`). Can only be called by the current owner."
      }
    },
    "version": 1
  },
  "userdoc": {
    "kind": "user",
    "methods": {},
    "version": 1
  },
  "storageLayout": {
    "storage": [
      {
        "astId": 1272,
        "contract": "contracts/tanuki-nft.sol:NuttyNooki",
        "label": "_name",
        "offset": 0,
        "slot": "0",
        "type": "t_string_storage"
      },
      {
        "astId": 1274,
        "contract": "contracts/tanuki-nft.sol:NuttyNooki",
        "label": "_symbol",
        "offset": 0,
        "slot": "1",
        "type": "t_string_storage"
      },
      {
        "astId": 1278,
        "contract": "contracts/tanuki-nft.sol:NuttyNooki",
        "label": "_owners",
        "offset": 0,
        "slot": "2",
        "type": "t_mapping(t_uint256,t_address)"
      },
      {
        "astId": 1282,
        "contract": "contracts/tanuki-nft.sol:NuttyNooki",
        "label": "_balances",
        "offset": 0,
        "slot": "3",
        "type": "t_mapping(t_address,t_uint256)"
      },
      {
        "astId": 1286,
        "contract": "contracts/tanuki-nft.sol:NuttyNooki",
        "label": "_tokenApprovals",
        "offset": 0,
        "slot": "4",
        "type": "t_mapping(t_uint256,t_address)"
      },
      {
        "astId": 1292,
        "contract": "contracts/tanuki-nft.sol:NuttyNooki",
        "label": "_operatorApprovals",
        "offset": 0,
        "slot": "5",
        "type": "t_mapping(t_address,t_mapping(t_address,t_bool))"
      },
      {
        "astId": 2211,
        "contract": "contracts/tanuki-nft.sol:NuttyNooki",
        "label": "_ownedTokens",
        "offset": 0,
        "slot": "6",
        "type": "t_mapping(t_address,t_mapping(t_uint256,t_uint256))"
      },
      {
        "astId": 2215,
        "contract": "contracts/tanuki-nft.sol:NuttyNooki",
        "label": "_ownedTokensIndex",
        "offset": 0,
        "slot": "7",
        "type": "t_mapping(t_uint256,t_uint256)"
      },
      {
        "astId": 2218,
        "contract": "contracts/tanuki-nft.sol:NuttyNooki",
        "label": "_allTokens",
        "offset": 0,
        "slot": "8",
        "type": "t_array(t_uint256)dyn_storage"
      },
      {
        "astId": 2222,
        "contract": "contracts/tanuki-nft.sol:NuttyNooki",
        "label": "_allTokensIndex",
        "offset": 0,
        "slot": "9",
        "type": "t_mapping(t_uint256,t_uint256)"
      },
      {
        "astId": 523,
        "contract": "contracts/tanuki-nft.sol:NuttyNooki",
        "label": "_paused",
        "offset": 0,
        "slot": "10",
        "type": "t_bool"
      },
      {
        "astId": 387,
        "contract": "contracts/tanuki-nft.sol:NuttyNooki",
        "label": "_owner",
        "offset": 1,
        "slot": "10",
        "type": "t_address"
      },
      {
        "astId": 4773,
        "contract": "contracts/tanuki-nft.sol:NuttyNooki",
        "label": "_tokenIdTracker",
        "offset": 0,
        "slot": "11",
        "type": "t_struct(Counter)2954_storage"
      },
      {
        "astId": 4775,
        "contract": "contracts/tanuki-nft.sol:NuttyNooki",
        "label": "whitelistSaleEnabled",
        "offset": 0,
        "slot": "12",
        "type": "t_bool"
      },
      {
        "astId": 4777,
        "contract": "contracts/tanuki-nft.sol:NuttyNooki",
        "label": "minMintPrice",
        "offset": 0,
        "slot": "13",
        "type": "t_uint256"
      },
      {
        "astId": 4779,
        "contract": "contracts/tanuki-nft.sol:NuttyNooki",
        "label": "maxTokensInCurrentDrop",
        "offset": 0,
        "slot": "14",
        "type": "t_uint256"
      },
      {
        "astId": 4781,
        "contract": "contracts/tanuki-nft.sol:NuttyNooki",
        "label": "maxTokensPerMint",
        "offset": 0,
        "slot": "15",
        "type": "t_uint16"
      },
      {
        "astId": 4783,
        "contract": "contracts/tanuki-nft.sol:NuttyNooki",
        "label": "maxTokensPerOwner",
        "offset": 2,
        "slot": "15",
        "type": "t_uint16"
      },
      {
        "astId": 4785,
        "contract": "contracts/tanuki-nft.sol:NuttyNooki",
        "label": "creatorRoyaltyBP",
        "offset": 4,
        "slot": "15",
        "type": "t_uint16"
      },
      {
        "astId": 4787,
        "contract": "contracts/tanuki-nft.sol:NuttyNooki",
        "label": "contractURI",
        "offset": 0,
        "slot": "16",
        "type": "t_string_storage"
      },
      {
        "astId": 4789,
        "contract": "contracts/tanuki-nft.sol:NuttyNooki",
        "label": "baseTokenURI",
        "offset": 0,
        "slot": "17",
        "type": "t_string_storage"
      },
      {
        "astId": 4791,
        "contract": "contracts/tanuki-nft.sol:NuttyNooki",
        "label": "royaltyTreasury",
        "offset": 0,
        "slot": "18",
        "type": "t_address_payable"
      },
      {
        "astId": 4793,
        "contract": "contracts/tanuki-nft.sol:NuttyNooki",
        "label": "mintTreasury",
        "offset": 0,
        "slot": "19",
        "type": "t_address_payable"
      },
      {
        "astId": 4797,
        "contract": "contracts/tanuki-nft.sol:NuttyNooki",
        "label": "whitelist",
        "offset": 0,
        "slot": "20",
        "type": "t_mapping(t_address,t_bool)"
      },
      {
        "astId": 4801,
        "contract": "contracts/tanuki-nft.sol:NuttyNooki",
        "label": "_ticketResetDates",
        "offset": 0,
        "slot": "21",
        "type": "t_mapping(t_uint256,t_uint256)"
      }
    ],
    "types": {
      "t_address": {
        "encoding": "inplace",
        "label": "address",
        "numberOfBytes": "20"
      },
      "t_address_payable": {
        "encoding": "inplace",
        "label": "address payable",
        "numberOfBytes": "20"
      },
      "t_array(t_uint256)dyn_storage": {
        "base": "t_uint256",
        "encoding": "dynamic_array",
        "label": "uint256[]",
        "numberOfBytes": "32"
      },
      "t_bool": {
        "encoding": "inplace",
        "label": "bool",
        "numberOfBytes": "1"
      },
      "t_mapping(t_address,t_bool)": {
        "encoding": "mapping",
        "key": "t_address",
        "label": "mapping(address => bool)",
        "numberOfBytes": "32",
        "value": "t_bool"
      },
      "t_mapping(t_address,t_mapping(t_address,t_bool))": {
        "encoding": "mapping",
        "key": "t_address",
        "label": "mapping(address => mapping(address => bool))",
        "numberOfBytes": "32",
        "value": "t_mapping(t_address,t_bool)"
      },
      "t_mapping(t_address,t_mapping(t_uint256,t_uint256))": {
        "encoding": "mapping",
        "key": "t_address",
        "label": "mapping(address => mapping(uint256 => uint256))",
        "numberOfBytes": "32",
        "value": "t_mapping(t_uint256,t_uint256)"
      },
      "t_mapping(t_address,t_uint256)": {
        "encoding": "mapping",
        "key": "t_address",
        "label": "mapping(address => uint256)",
        "numberOfBytes": "32",
        "value": "t_uint256"
      },
      "t_mapping(t_uint256,t_address)": {
        "encoding": "mapping",
        "key": "t_uint256",
        "label": "mapping(uint256 => address)",
        "numberOfBytes": "32",
        "value": "t_address"
      },
      "t_mapping(t_uint256,t_uint256)": {
        "encoding": "mapping",
        "key": "t_uint256",
        "label": "mapping(uint256 => uint256)",
        "numberOfBytes": "32",
        "value": "t_uint256"
      },
      "t_string_storage": {
        "encoding": "bytes",
        "label": "string",
        "numberOfBytes": "32"
      },
      "t_struct(Counter)2954_storage": {
        "encoding": "inplace",
        "label": "struct Counters.Counter",
        "members": [
          {
            "astId": 2953,
            "contract": "contracts/tanuki-nft.sol:NuttyNooki",
            "label": "_value",
            "offset": 0,
            "slot": "0",
            "type": "t_uint256"
          }
        ],
        "numberOfBytes": "32"
      },
      "t_uint16": {
        "encoding": "inplace",
        "label": "uint16",
        "numberOfBytes": "2"
      },
      "t_uint256": {
        "encoding": "inplace",
        "label": "uint256",
        "numberOfBytes": "32"
      }
    }
  }
}